:020000040800F2
:1000000000000320593700089D3700089D3700087D
:100010009D3700089D3700089D370008000000004C
:100020000000000000000000000000009D370008F4
:100030009D370008000000009D3700089D3700082C
:100040009D3700089D3700089D3700089D37000840
:100050009D3700089D3700089D3700089D37000830
:100060009D3700089D3700089D3700089D37000820
:100070009D3700089D3700089D3700089D37000810
:100080009D3700089D3700089D3700089D37000800
:100090009D3700089D3700089D370008F53500089A
:1000A0009D3700089D3700089D3700089D370008E0
:1000B0009D3700089D3700089D3700089D370008D0
:1000C0009D3700089D3700089D3700089D370008C0
:1000D0009D3700082D1C00089D1C00089D37000856
:1000E0009D3700089D3700089D3700089D370008A0
:1000F0009D3700089D3700089D3700089D37000890
:100100009D3700089D3700089D3700089D3700087F
:100110009D3700089D3700089D3700089D3700086F
:100120009D3700089D3700089D3700089D3700085F
:100130009D3700089D3700089D3700089D3700084F
:100140009D3700089D3700089D3700089D3700083F
:100150009D3700089D3700089D3700089D3700082F
:100160009D3700089D3700089D3700089D3700081F
:100170009D3700089D3700089D3700089D3700080F
:100180009D3700089D3700089D3700089D370008FF
:100190009D3700089D3700089D3700089D370008EF
:0C01A0009D3700089D3700089D370008BF
:1001C00002780B78012A28BF9A4240F0D8806DE966
:1001D000044540EA0104CDE902676FF0000C4FEAE4
:1001E00044721AB380EA010414F0070F6BD100F0D7
:1001F000070420F0070004F0030521F007014FEA8F
:10020000C505F0E8042314F0040FF1E804670CFAC4
:1002100005F462EA040266EA04060BD063EA04030A
:10022000624667EA0407664604E000BFF0E804237C
:10023000F1E8046782FA4CF582EA0604A4FA8CF429
:100240006CBB83FA4CF583EA0705A5FA8CF595B9E2
:1002500050E9022351E9026782FA4CF582EA06046A
:10026000A4FA8CF483FA4CF583EA0705A5FA8CF519
:100270002543DBD09CB92DBAB5FA85F424F00704E8
:1002800027FA04F1DDE9026723FA04F303F0FF0023
:1002900001F0FF01FDE80445A0EB0100704724BA1E
:1002A000B4FA84F424F0070426FA04F1DDE90267C5
:1002B00022FA04F202F0FF0001F0FF01FDE804451C
:1002C000A0EB0100704714F0030F3CD110F00304C1
:1002D00028D150F8082B51F8083B82FA4CF582EAF5
:1002E0000305A5FA8CF55DB950F8042C51F8043CCF
:1002F00082FA4CF582EA0305A5FA8CF5002DE8D0C8
:100300002DBAB5FA85F424F0070423FA04F122FA91
:1003100004F202F0FF0001F0FF01FDE80445A0EB4C
:10032000010070474FEAC40420F0030050F8082B86
:1003300021F0030151F8083B0CFA04F462EA0402CC
:1003400063EA0403C9E710F003041DD0A1EB040124
:1003500020F00300E40750F8042B06D012D28B786B
:100360005FFAA2F4E41A06D12BB1CB785FFAB2F4AB
:10037000E41A00D133B920465DF8104B7047A2EB68
:100380000300704701F1040150F8042BCC0721F061
:10039000030151F8043B48D824D222F07F4482FA6A
:1003A0004CF594EA1325A5FA8CF50AD165B951F8F4
:1003B000043B84EA0204B4EB036F0ED150F8042B23
:1003C000EBE74FEA132355E035F07F454DD1087830
:1003D000FDE80445C0F1000070474FEA126203F0E7
:1003E000FF0347E002EA1C4482FA4CF594EA134505
:1003F000A5FA8CF50AD165B951F8043B84EA0204E8
:10040000B4EB034F0CD150F8042BEBE74FEA134346
:1004100030E015EA1C4528D10B884FEA124229E04A
:100420004FEA124203EA1C4324E002F0FF0482FA7E
:100430004CF594EA1365A5FA8CF50AD165B951F823
:10044000043B84EA0204B4EB032F09D150F8042BD7
:10045000EBE74FEA13630DE015F0FF0F05D10B68D2
:100460004FEA122223F07F4304E04FF00000FDE842
:100470000445704712BA1BBA82FA4CF482EA0304AC
:10048000A4FA8CF5B5FA85F402FA04F203FA04F33F
:100490004FEA1260FDE80445A0EB1360704700BF0F
:1004A00001F0FF01102A2BDB10F0070F08D010F825
:1004B000013B013A8B422DD010F0070F42B3F6D129
:1004C000F0B441EA012141EA014122F007047FF042
:1004D00000070023F0E80256083C85EA010586EA99
:1004E000010685FA47F5A3FA87F586FA47F6A5FAD5
:1004F00087F68EB9EED1F0BC01F0FF0102F00702E1
:1005000032B110F8013B013A83EA010313B1F8D18B
:100510000020704701387047002D06BF354603386C
:10052000073815F0010F07D1013015F4807F02BFA5
:10053000013015F4C03F0130F0BC0138704700BFF6
:10054000844641EA000313F003036DD1403A41D3DE
:1005500051F8043B40F8043B51F8043B40F8043B9D
:1005600051F8043B40F8043B51F8043B40F8043B8D
:1005700051F8043B40F8043B51F8043B40F8043B7D
:1005800051F8043B40F8043B51F8043B40F8043B6D
:1005900051F8043B40F8043B51F8043B40F8043B5D
:1005A00051F8043B40F8043B51F8043B40F8043B4D
:1005B00051F8043B40F8043B51F8043B40F8043B3D
:1005C00051F8043B40F8043B51F8043B40F8043B2D
:1005D000403ABDD2303211D351F8043B40F8043BCD
:1005E00051F8043B40F8043B51F8043B40F8043B0D
:1005F00051F8043B40F8043B103AEDD20C3205D3DD
:1006000051F8043B40F8043B043AF9D2043208D0D4
:10061000D2071CBF11F8013B00F8013B01D30B8846
:1006200003806046704700BF082A13D38B078DD024
:1006300010F003038AD0C3F10403D21ADB071CBFF6
:1006400011F8013B00F8013B80D331F8023B20F860
:10065000023B7BE7043AD9D3013A11F8013B00F899
:10066000013BF9D20B7803704B7843708B78837021
:10067000604670470000000000000000000000001D
:1006800030B490F800F020F007016FF0000C10F08B
:10069000070491F820F040F048804FF000046FF01C
:1006A0000700D1E9002391F840F000F1080082FA38
:1006B0004CF2A4FA8CF283FA4CF3A2FA8CF34BBB03
:1006C000D1E9022382FA4CF200F10800A4FA8CF27C
:1006D00083FA4CF3A2FA8CF3E3B9D1E9042382FA4A
:1006E0004CF200F10800A4FA8CF283FA4CF3A2FA5F
:1006F0008CF37BB9D1E9062301F1200182FA4CF297
:1007000000F10800A4FA8CF283FA4CF3A2FA8CF3FD
:10071000002BC6D0002A04BF04301A4612BAB2FA1F
:1007200082F200EBD20030BC7047D1E9002304F024
:100730000305C4F100004FEAC50514F0040F91F859
:1007400040F00CFA05F562EA05021CBF63EA0503F6
:1007500062464FF00004AAE781F0004102E000BFCA
:1007600083F0004330B54FEA41044FEA430594EA71
:10077000050F08BF90EA020F1FBF54EA000C55EAAC
:10078000020C7FEA645C7FEA655C00F0E2804FEA7D
:100790005454D4EB5555B8BF6D420CDD2C4480EA5F
:1007A000020281EA030382EA000083EA010180EA8F
:1007B000020281EA0303362D88BF30BD11F0004FDD
:1007C0004FEA01314FF4801C4CEA113102D0404213
:1007D00061EB410113F0004F4FEA03334CEA13334E
:1007E00002D0524263EB430394EA050F00F0A78066
:1007F000A4F10104D5F1200E0DDB02FA0EFC22FA61
:1008000005F2801841F1000103FA0EF2801843FA54
:1008100005F359410EE0A5F120050EF1200E012A45
:1008200003FA0EFC28BF4CF0020C43FA05F3C01883
:1008300051EBE37101F0004507D54FF0000EDCF1FC
:10084000000C7EEB00006EEB0101B1F5801F1BD3A5
:10085000B1F5001F0CD349085FEA30004FEA3C0CA9
:1008600004F101044FEA445212F5800F80F09A809F
:10087000BCF1004F08BF5FEA500C50F1000041EBA3
:10088000045141EA050130BD5FEA4C0C404141EBA7
:100890000101013C28BFB1F5801FE9D291F0000FA2
:1008A00004BF01460020B1FA81F308BF2033A3F151
:1008B0000B03B3F120020CDA0C3208DD02F1140C48
:1008C000C2F10C0201FA0CF021FA02F10CE002F183
:1008D0001402D8BFC2F1200C01FA02F120FA0CFC7C
:1008E000DCBF41EA0C019040E41AA2BF01EB0451C5
:1008F000294330BD6FEA04041F3C1CDA0C340EDCC3
:1009000004F11404C4F1200220FA04F001FA02F305
:1009100040EA030021FA04F345EA030130BDC4F1C3
:100920000C04C4F1200220FA02F001FA04F340EAB8
:100930000300294630BD21FA04F0294630BD94F069
:10094000000F83F4801306BF81F480110134013D50
:100950004EE77FEA645C18BF7FEA655C29D094EAC1
:10096000050F08BF90EA020F05D054EA000C04BF3F
:100970001946104630BD91EA030F1EBF002100202A
:1009800030BD5FEA545C05D14000494128BF41F0C9
:10099000004130BD14F580043CBF01F5801130BD2D
:1009A00001F0004545F0FE4141F470014FF00000B8
:1009B00030BD7FEA645C1ABF194610467FEA655C69
:1009C0001CBF0B46024650EA013406BF52EA03350B
:1009D00091EA030F41F4002130BD00BF90F0000FF9
:1009E00004BF0021704730B54FF4806404F1320435
:1009F0004FF000054FF0000150E700BF90F0000FEE
:100A000004BF0021704730B54FF4806404F1320414
:100A100010F0004548BF40424FF000013EE700BFE4
:100A200042004FEAE2014FEA31014FEA02701FBF74
:100A300012F07F4393F07F4F81F06051704732F0A6
:100A40007F4208BF704793F07F4F04BF41F40021FD
:100A5000704730B54FF4607401F0004521F000415B
:100A60001CE700BF50EA010208BF704730B54FF0E5
:100A700000050AE050EA010208BF704730B511F0E6
:100A8000004502D5404261EB41014FF4806404F11E
:100A900032045FEA915C3FF4D8AE4FF003025FEAA4
:100AA000DC0C18BF03325FEADC0C18BF033202EB28
:100AB000DC02C2F1200300FA03FC20FA02F001FA82
:100AC00003FE40EA0E0021FA02F11444BDE600BF25
:100AD00070B54FF0FF0C4CF4E06C1CEA11541DBFD4
:100AE0001CEA135594EA0C0F95EA0C0F00F0DEF89F
:100AF0002C4481EA030621EA4C5123EA4C5350EA84
:100B0000013518BF52EA033541F4801143F48013D4
:100B100038D0A0FB02CE4FF00005E1FB02E506F065
:100B20000042E0FB03E54FF00006E1FB03569CF0BA
:100B3000000F18BF4EF0010EA4F1FF04B6F5007FC0
:100B400064F5407404D25FEA4E0E6D4146EB060632
:100B500042EAC62141EA55514FEAC52040EA5E50BB
:100B60004FEACE2EB4F1FD0C88BFBCF5E06F1ED865
:100B7000BEF1004F08BF5FEA500E50F1000041EB9C
:100B8000045170BD06F0004646EA010140EA020049
:100B900081EA0301B4EB5C04C2BFD4EB0C0541EA6B
:100BA000045170BD41F480114FF0000E013C00F380
:100BB000AB8014F1360FDEBF002001F0004170BDA4
:100BC000C4F10004203C35DA0C341BDC04F11404BD
:100BD000C4F1200500FA05F320FA04F001FA05F249
:100BE00040EA020001F0004221F0004110EBD37016
:100BF00021FA04F642EB06015EEA430E08BF20EA42
:100C0000D37070BDC4F10C04C4F1200500FA04F3E4
:100C100020FA05F001FA04F240EA020001F0004176
:100C200010EBD37041F100015EEA430E08BF20EAE9
:100C3000D37070BDC4F1200500FA05F24EEA020E31
:100C400020FA04F301FA05F243EA020321FA04F060
:100C500001F0004121FA04F220EA020000EBD37017
:100C60005EEA430E08BF20EAD37070BD94F0000F17
:100C70000FD101F00046400041EB010111F4801F4B
:100C800008BF013CF7D041EA060195F0000F18BFFC
:100C9000704703F00046520043EB030313F4801F38
:100CA00008BF013DF7D043EA0603704794EA0C0FF2
:100CB0000CEA135518BF95EA0C0F0CD050EA410608
:100CC00018BF52EA4306D1D181EA030101F0004185
:100CD0004FF0000070BD50EA410606BF10461946AD
:100CE00052EA430619D094EA0C0F02D150EA0136B9
:100CF00013D195EA0C0F05D152EA03361CBF1046FA
:100D000019460AD181EA030101F0004141F0FE4198
:100D100041F470014FF0000070BD41F0FE4141F41C
:100D2000780170BD70B54FF0FF0C4CF4E06C1CEA1C
:100D300011541DBF1CEA135594EA0C0F95EA0C0FD1
:100D400000F0A7F8A4EB050481EA030E52EA03358C
:100D50004FEA013100F088804FEA03334FF08055AD
:100D600045EA131343EA12634FEA022245EA1115DA
:100D700045EA10654FEA00260EF000419D4208BF8B
:100D8000964244F1FD0404F5407402D25B084FEA38
:100D90003202B61A65EB03055B084FEA32024FF4E4
:100DA00080104FF4002CB6EB020E75EB030E22BF41
:100DB000B61A754640EA0C005B084FEA3202B6EB01
:100DC000020E75EB030E22BFB61A754640EA5C00B0
:100DD0005B084FEA3202B6EB020E75EB030E22BF40
:100DE000B61A754640EA9C005B084FEA3202B6EB41
:100DF000020E75EB030E22BFB61A754640EADC0000
:100E000055EA060E18D04FEA051545EA16754FEA61
:100E100006164FEAC30343EA52734FEAC2025FEA7F
:100E20001C1CC0D111F4801F0BD141EA00014FF00E
:100E300000004FF0004CB6E711F4801F04BF0143DF
:100E40000020B4F1FD0C88BFBCF5E06F3FF6AFAEFB
:100E5000B5EB030C04BFB6EB020C5FEA500C50F18B
:100E6000000041EB045170BD0EF0004E4EEA11310E
:100E700014EB5C04C2BFD4EB0C0541EA045170BD15
:100E800041F480114FF0000E013C90E645EA060E59
:100E90008DE60CEA135594EA0C0F08BF95EA0C0F87
:100EA0003FF43BAF94EA0C0F0AD150EA01347FF4CF
:100EB00034AF95EA0C0F7FF425AF104619462CE7A6
:100EC00095EA0C0F06D152EA03353FF4FDAE104609
:100ED000194622E750EA410618BF52EA43067FF45A
:100EE000C5AE50EA41047FF40DAF52EA43057FF4EA
:100EF000EBAE12E74FF0FF3C06E000BF4FF0010CF5
:100F000002E000BF4FF0010C4DF804CD4FEA410C58
:100F10007FEA6C5C4FEA430C18BF7FEA6C5C1BD025
:100F200001B050EA410C0CBF52EA430C91EA030FA6
:100F300002BF90EA020F0020704710F1000F91EA03
:100F4000030F58BF994208BF90422CBFD8176FEAD1
:100F5000E37040F0010070474FEA410C7FEA6C5C9F
:100F600002D150EA013C07D14FEA430C7FEA6C5CA6
:100F7000D6D152EA033CD3D05DF8040B704700BFD2
:100F80008446104662468C461946634600E000BF20
:100F900001B5FFF7B7FF002848BF10F1000F01BDF2
:100FA0004DF808EDFFF7F4FF0CBF012000205DF8BD
:100FB00008FB00BF4DF808EDFFF7EAFF34BF012042
:100FC00000205DF808FB00BF4DF808EDFFF7E0FFDB
:100FD00094BF012000205DF808FB00BF4DF808ED2C
:100FE000FFF7CEFF94BF012000205DF808FB00BF93
:100FF0004DF808EDFFF7C4FF34BF012000205DF875
:1010000008FB00BF4FEA410C7FEA6C5C02D150EA5A
:10101000013C0AD14FEA430C7FEA6C5C02D152EAF0
:10102000033C02D14FF0000070474FF001007047C1
:101030004FEA410212F5001215D211D56FF4787300
:10104000B3EB625212D94FEAC12343F0004343EAA3
:10105000505311F0004F23FA02F018BF404270477E
:101060004FF00000704750EA013005D111F0004008
:1010700008BF6FF0004070474FF00000704700BF9E
:1010800000F1340191E838009C46A6464CF8045D16
:1010900090E8FF0FE54600BD90EC210B704700BFC4
:1010A00080EC210B704700BF90EC200B704700BF15
:1010B00080EC200B704700BFD0EC200B704700BFC6
:1010C000C0EC200B704700BFF0EC0201F0EC021105
:1010D000F0EC0221F0EC0231F0EC0241F0EC0251B4
:1010E000F0EC0261F0EC0271F0EC0281F0EC0291A4
:1010F000F0EC02A1F0EC02B1F0EC02C1F0EC02D194
:10110000F0EC02E1F0EC02F1704700BFE0EC02010C
:10111000E0EC0211E0EC0221E0EC0231E0EC0241F3
:10112000E0EC0251E0EC0261E0EC0271E0EC0281E3
:10113000E0EC0291E0EC02A1E0EC02B1E0EC02C1D3
:10114000E0EC02D1E0EC02E1E0EC02F1704700BF1C
:10115000B0FC0181B0FC0191B0FC01A1B0FC01B177
:10116000704700BFA0FC0181A0FC0191A0FC01A17F
:10117000A0FC01B1704700BFEC4600B52DE900505E
:101180002DE9FF1F4FF000032DE90C0001A90AF023
:1011900083FADDF840E012B0704700BFEC4600B5BE
:1011A0002DE900502DE9FF1F4FF000032DE90C0041
:1011B00001A90AF0ADFADDF840E012B0704700BFB7
:1011C000EC4600B52DE900502DE9FF1F4FF000035C
:1011D0002DE90C0001A90AF0BDFADDF840E012B0DB
:1011E000704700BFEC4600B52DE900502DE9FF1F08
:1011F0004FF000032DE90C0001AB0AF081FADDF895
:1012000040E012B0704700BFEC4600B52DE9005039
:101210002DE9FF1F4FF000032DE90C0001AA0AF091
:10122000F1FADDF840E012B0704700BF0348044B0C
:10123000834202D0034B03B1184770472C070020AC
:101240002C070020000000000548064B1B1AD90F90
:1012500001EBA301491002D0034B03B118477047BB
:101260002C0700202C0700200000000010B5064CC1
:10127000237843B9FFF7DAFF044B13B10448AFF307
:1012800000800123237010BD2C0700200000000007
:10129000F8C1000808B5054B1BB105490548AFF377
:1012A0000080BDE80840FFF7CFBF00BF000000008E
:1012B00030070020F8C1000808B502F05DF93223BC
:1012C0006422FA214FF4B47000F0D9FD3223642275
:1012D000FA214FF4027000F0D2FDFEE710B584B0A1
:1012E0000378ABB1012B26D1144C2368013B23605A
:1012F0000393134B02930020019020230093F022CC
:10130000402100F093FE21680E4802F039FB12E004
:101310000A4C2368013323600393094B0293002096
:10132000019020230093F022402100F07FFE2168ED
:10133000044802F025FB04B010BD00BF48070020A0
:1013400010C2000818C2000882B000230193009365
:10135000344A136843F480331360324B1B6803F440
:1013600000330093019B01330193009B1BB9019B48
:10137000B3F5A04FF1D12B4B1B6813F4003F06D0FF
:1013800001230093009B012B04D002B0704700237F
:101390000093F7E7234B1A6C42F080521A642249FB
:1013A0000A6842F440420A609A689A609A6842F475
:1013B00000429A609A6842F4A0529A601B4A5A60AE
:1013C0001A6842F080721A60164B1B6813F0007F97
:1013D000FAD0154A136843F480331360124B5B68EC
:1013E00013F4803FFAD0104A136843F400331360BB
:1013F0000D4B5B6813F4003FFAD00D4B40F20572C1
:101400001A60A3F580639A6822F003029A609A68D2
:1014100042F002029A60034B9B6803F00C03082B16
:10142000F9D1B2E70038024000700040195A400775
:10143000003C024010B5104CD4F8883043F47003DF
:10144000C4F888300D4B1A6842F001021A6000217E
:1014500099601A6822F0847222F480321A60084A75
:101460005A601A6822F480221A60D960FFF76CFF74
:101470004FF00063A36010BD00ED00E000380240B3
:1014800010300024C378FBB1154BDA68D243C2F3A5
:101490000222C2F10401C9B20F23134142788A40EB
:1014A000D2B281780B4013431B01DBB202780D49A5
:1014B0000A4482F80033037803F01F005B0901221D
:1014C000824041F823207047037803F01F015B0935
:1014D00001228A402033034941F82320704700BF8E
:1014E00000ED00E000E100E010B401F00302920022
:1014F0004FF00F0C0CFA02FC8908084B023153F82C
:10150000214024EA0C0443F8214053F82140904044
:10151000044343F821405DF8044B70470038014014
:1015200010B4294B9B6803F00C03042B21D0082B2B
:1015300022D0002B45D1254B0360234CA368C3F375
:1015400003132349CA5CD2B20368D3404360A26844
:10155000C2F382228A5CD2B223FA02F28260A268CB
:10156000C2F342328A5CD2B2D340C3605DF8044B0E
:101570007047184B0360E0E7134B59685A6802F054
:101580003F0211F4800F12D0124BB3FBF2F30E4A5C
:101590005268C2F3881202FB03F30B4A5268C2F38B
:1015A000014201325200B3FBF2F30360C5E7074B7F
:1015B000B3FBF2F3044A5268C2F3881202FB03F34E
:1015C000EBE7024B0360B8E7003802400024F40068
:1015D000FCC3000840787D0121B1054A136B034329
:1015E00013637047024A136B23EA000313637047C7
:1015F0000038024021B1054A136C0343136470475D
:10160000024A136C23EA0003136470470038024057
:1016100021B1054A536C034353647047024A536C2B
:1016200023EA0003536470470038024000220F2A67
:101630004DD810B514E0C36894B264004FF0030EA7
:101640000EFA04FE23EA0E03C360C36891F807E0B4
:101650000EFA0CFC43EA0C03C36001320F2A35D8A2
:10166000012393400C68A343F7D104684FEA420C6E
:10167000032303FA0CF36FEA030E24EA0303036067
:1016800003680C7904FA0CF4234303600B79013BE3
:10169000DBB2012BCFD883680EEA03038360836833
:1016A0004C7904FA0CF42343836043681FFA82FEEA
:1016B000012404FA0EF423EA0403436044688B799E
:1016C00003FA0EF39BB223434360B4E710BD7047A7
:1016D00010B401F007039B009A40C908083150F884
:1016E00021404FF00F0C0CFA03F324EA030340F8F7
:1016F000213050F82130134340F821305DF8044B7D
:10170000704700008379002B36D010B4204B1A6844
:10171000016822EA01021A605A68016822EA01029D
:101720005A60027902F1804202F59E321168046823
:10173000214311609A68016822EA01029A60DA681E
:10174000016822EA0102DA604379102B0AD003F122
:10175000804303F59E331A6801680A431A605DF8F6
:10176000044B70470A4B9A6801680A439A60DA682A
:1017700001680A43DA60F2E7037903F1804303F575
:101780009E331A68016822EA01021A60704700BF9E
:10179000003C0140034B5B69034201D001207047CC
:1017A00000207047003C0140014B5861704700BF6A
:1017B000003C014030B585B004460D46038A9BB21B
:1017C00023F44053CA881343038283899BB223F4D2
:1017D000B05323F00C03898828896A8901430A439E
:1017E0001343A381A38A9BB223F44073AA891343B2
:1017F000A3826846FFF794FE1F4B9C4205D003F579
:1018000080639C4201D0029B00E0039BA28912F4FA
:10181000004F1FD103EB830303EB83032A6892007D
:10182000B3FBF2F3154AA2FB031252091101642023
:1018300002FB1033A28912F4004F14D11B01323382
:101840000E4AA2FB0323C3F343130B439BB2238132
:1018500005B030BD03EB830303EB83032A6852001A
:10186000B3FBF2F3DEE7DB003233044AA2FB0323CF
:10187000C3F342130B43E9E7001001401F85EB510E
:1018800029B183899BB243F40053838170478389D4
:101890009BB223F400539BB2838170478088C0F3CE
:1018A00008007047C1F3421C01F01F0101238B4067
:1018B000BCF1010F08D0BCF1020F07D014303AB1CF
:1018C00002681343036070470C30F8E71030F6E706
:1018D000026822EA030303607047C1F3421201F079
:1018E0001F0C012303FA0CF3012A0FD0022A11D096
:1018F000828A92B21340090A012202FA01F1028897
:1019000092B20A4053B15AB900207047828992B20C
:101910001340F0E7028A92B21340ECE700207047D0
:1019200001207047090A01238B409BB2DB439BB225
:10193000038070474FF0E022136923F00403136122
:10194000C008054B1870C0EB401300EB8300C000CB
:10195000024B1880704700BF4E0700204C07002044
:101960000E4B1B7803FB00F04FF0E0235861002280
:101970009A611A6942F001021A614FF0E0231B6973
:1019800003F00113012BF8D04FF0E0231A6922F085
:1019900001021A6100229A61704700BF4E070020C1
:1019A0000E4B1B8803FB00F04FF0E0235861002230
:1019B0009A611A6942F001021A614FF0E0231B6933
:1019C00003F00113012BF8D04FF0E0231A6922F045
:1019D00001021A6100229A61704700BF4C07002083
:1019E00038B50C4CA4FB0034630A1C464FF4077254
:1019F00002FB130085B205E04FF40770FFF7D0FF3C
:101A0000013CE4B2002CF7D105B938BD2846FFF7F8
:101A1000C7FFFAE749D6B9F22DE9F043DDF81C809B
:101A2000089F4FF0000C0AE0C5682E40C660C568EC
:101A300007FA04FE45EA0E05C5600CF1010CBCF185
:101A40000F0F2DD84FF0010E0EFA0CFE3EEA0104E6
:101A5000F3D1D0F800904FEA4C040325A540EE43A3
:101A600029EA05050560056802FA04F945EA090551
:101A70000560551E012DD7D885683540856085687D
:101A800008FA04F945EA09058560456825EA0E0566
:101A90004560456803FA0CFE45EA0E054560C3E75C
:101AA000BDE8F08312F0010F03D08369194381610F
:101AB0007047836943EA01438361704703691942B0
:101AC00001D00120704700207047000010464FF001
:101AD000000C944510DA00B5084B1B8813F0400F3A
:101AE000FAD011F80CE0054BA3F804E00CF1010C5E
:101AF0008445F1DB5DF804FB704700BF0010014036
:101B0000F0B587B0064601210846FFF765FD0121C3
:101B10001020FFF77DFD1E4F072209213846FFF7F1
:101B2000D7FD07220A213846FFF7D2FD4FF4C063E4
:101B3000049302238DF814308DF8153000248DF8AD
:101B4000164001258DF8175004A93846FFF76EFDA1
:101B50000096ADF80440ADF80640ADF80840ADF889
:101B60000C400C23ADF80A3004F1804404F58834AD
:101B700069462046FFF71EFE2A4640F225512046C0
:101B8000FFF790FE29462046FFF77AFE07B0F0BD2A
:101B9000000002402DE9F04186B0064601210846CA
:101BA000FFF71AFD01214FF40030FFF723FD1D4F11
:101BB000072202213846FFF78BFD07220321384612
:101BC000FFF786FD4FF00C08CDF8108002238DF84A
:101BD00014308DF8153000248DF8164001258DF84D
:101BE000175004A93846FFF721FD0096ADF80440D0
:101BF000ADF80640ADF80840ADF80C40ADF80A80ED
:101C0000094C69462046FFF7D5FD2A4640F225518A
:101C10002046FFF747FE29462046FFF731FE06B073
:101C2000BDE8F0810000024000440040184B1B88D2
:101C300013F0200F26D0164B9B88DBB215490A887B
:101C4000B1F9001000291DDB12F4804F0CD00A2BD3
:101C500003D0104B00221A8070476FEA42426FEAAD
:101C600052420C4B1A8070470D2B0CD0C2F30D0161
:101C700009484354013292B2064B1A80C72A01D94F
:101C800000221A80704742F48042024B1A8070474B
:101C900000100140800700208407002010B540F2AA
:101CA00025511548FFF719FE012800D010BD124C30
:101CB00040F225512046FFF735FE2046FFF7EEFDA6
:101CC0000146012810D00D4B1B68002BEED00229D5
:101CD0000ED00B4A1378581C10700A4A22F81310C1
:101CE000094801F04DFEE1E7044B01221A60EAE7E2
:101CF000024B00221A60D9E7004400405007002040
:101D0000540700205807002018C2000808B5044BEB
:101D10001B6803B908BD034B1A6800F015FAF9E710
:101D20005C0800200400002008B5074B9871074BA1
:101D30001B6803B908BD00F0F3F9044AD18A024BCD
:101D40001980128B5A80F5E74C0800205C080020AF
:101D500008B5034B1B6803B908BD00F077FAFBE731
:101D60005C08002008B500F079FB1A4B988070BB26
:101D7000184B9B8849F2413293420BD045F2103206
:101D8000934207D045F21052934203D041F66312BA
:101D9000934210D1104B5A6822F00F025A605A68D1
:101DA00022F470625A605A6842F004025A605A681B
:101DB00042F480625A600120FFF7B6FF074B012210
:101DC000C3F894224FF6FF70FFF7C2FF08BD00F082
:101DD00091FBCDE74C080020000100A000804042AC
:101DE0002DE9F04F83B08046A2EB000A8946A3EBB1
:101DF000010BBAF1000F0DDD01220092BBF1000FC3
:101E000014DD01230193DA451CDD564600252F46DB
:101E10002C461BE0BAF1000F05D0A0EB020A4FF0F0
:101E2000FF320092EAE7CDF800A0E7E7BBF1000F30
:101E300005D0A1EB030B4FF0FF330193E3E7CDF89F
:101E400004B0E0E75E46E1E70134A4B2731C9C42B3
:101E500012DC1FFA89F11FFA88F0FFF757FF574489
:101E60005D44BE4202DABF1B009B9844AE42EBDAEF
:101E7000AD1B019B9944E7E703B0BDE8F08FF8B5CF
:101E800006460F461C46024495B20B462A46FFF70B
:101E9000A7FF3C44A4B22346324639463046FFF7FA
:101EA0009FFF23462A4639462846FFF799FF2346D7
:101EB0002A4621463046FFF793FFF8BD2DE9F04F43
:101EC00083B0814688461F469DF830A013F0070373
:101ED00018BF012303EBD7034FEA570B1BFB03FB90
:101EE0005FFA8BF30193203AD1B244464FF0000BD6
:101EF00056E001EB4100464B03EB800313F80B5017
:101F00000026CDF800B08B4627E0424B03EB0113CF
:101F100013F80B50F4E701EBC1003F4B03EB8003D8
:101F200013F80B50ECE73D4B03EBC11313F80B50C8
:101F3000E6E73B4B1A682146484600F005F96D007C
:101F4000EDB20134A4B2374B5B88A3425CD9A4EB59
:101F50000803BB4210D00136F6B2072E19D815F08F
:101F6000800FE6D1BAF1000FE9D12F4B1A68214654
:101F7000484600F0E9F8E2E75946DDF800B009F11B
:101F800001091FFA89F9274B1B884B453CD9444668
:101F900002E05946DDF800B00BF101025FFA82FB66
:101FA000019B9B4530D2A7F10C03142B2CD801A028
:101FB00050F823F0F31E000809200008092000084B
:101FC000092000080B1F000809200008092000084C
:101FD000092000080920000809200008092000083D
:101FE00009200008171F0008092000080920000820
:101FF000092000080920000809200008092000081D
:1020000009200008271F000803B0BDE8F08F00BFBB
:10201000D8060108E80001088CF300080CC4000889
:10202000040000204C080020000000202DE9F04FA3
:10203000C5B082460D46914698469DF838719DF888
:102040003CB151AA0392509904A801F0F5FCD14487
:102050001FFA89F9A8441FFA88F8544604AE0CE028
:10206000454517D2CDF800B03B4629462046FFF73C
:1020700025FF04EB5704A4B201363278A2F1200305
:10208000DBB25E2B06D84C45EAD35FFA8AF43D44B6
:10209000ADB2E5E745B0BDE8F08F0000012806D0FD
:1020A00020B9064A936923F0010393617047034AFC
:1020B000936943F001039361704700BF00680140DA
:1020C000012909D081B9D8B9104AD2F8843023F057
:1020D0000103C2F8843007E060B90C4AD2F88430BA
:1020E00043F00103C2F88430084A536A43F0010305
:1020F00053627047064A536843F001035360F3E7A5
:10210000034A536823F001035360EDE70068014080
:1021100000690140014B1875704700BF5C08002042
:10212000084B587520B95A68DA821A681A837047C2
:10213000012800D07047034B1A68DA825A681A8364
:10214000F8E700BF5C08002070B4104B5B7D6BB1FA
:102150000E4C257D0E4B53F82550E369246804FB93
:10216000010101FB03F3EA5270BC7047074B1D7D70
:10217000074C54F82550DC691E685B681B1A013B4C
:1021800003FB061101FB04F3EA52EDE75C080020B3
:102190007C08002070B5294C647D002C43D0864615
:1021A0009C46264D2868AEEB020310FA83F39BB2DF
:1021B000013B9BB22E7D224C54F82640ED6901FB79
:1021C00000E000FB05441F4D286B40F4000028632D
:1021D0001D48056825F0010505604FF44035056090
:1021E000022545630364C463ACEB01030133A2EB36
:1021F0000E02013243EA02434364049B8363036893
:1022000043F00103036000230F4A526812F0020FEB
:1022100003D10133B3F5001FF6D30B4A936843F0A3
:102220000203936070BD8E4604494C68A21A511E89
:102230001A46241A04F1FF3CB3E700BF5C080020F3
:102240007C0800200038024000B0024000B583B096
:10225000074BDA8A1B8B013B013A00909BB292B28A
:1022600000210846FFF796FF03B05DF804FB00BFAE
:102270005C08002010B4224C236823F080532360B4
:1022800000231F4C246814F0005F06D041F6FE7452
:10229000A34202D801339BB2F3E741F6FF74A34295
:1022A00029D0090741EA80101549C1F88800D1F802
:1022B0008C0020F44030C1F88C00D1F88C0040EA4A
:1022C0000242C1F88C200A6842F080520A600C4A2F
:1022D000126812F0005F06D141F6FE72934202D8F6
:1022E00001339BB2F3E741F6FF72934205D0002021
:1022F0005DF8044B70470120FAE70220F8E700BFC1
:1023000000380240F8B5BDF8184000283FD1CF187A
:102310003B4DEE68C6F30B463744EE68C6F30B4CF4
:102320006144013141EA0741C5F888101619E9688E
:10233000C1F30A010E44E968C1F30A010A440132FB
:1023400042EA0642C5F88C20D5F8942002F0070234
:10235000012A18D00FD8C2B9042202FB03F3DA1CF9
:1023600042EA0343264AC2F8B030C2F8B440012121
:10237000FFF7A6FEF8BD053AD2B2012A01D8012224
:10238000EBE70222E9E70322E7E70222E5E7CE18BE
:102390001B4DEF68C7F30B473E44EF68C7F30B478D
:1023A0003944013141EA0641164EB1601119EF6816
:1023B000C7F30A0C6144ED68C5F30A052A440132EB
:1023C00042EA0142F260726902F00702012A13D068
:1023D0000AD89AB9042202FB03F3DA1C42EA034347
:1023E000084A13635463C2E7053AD2B2012A01D8FE
:1023F0000122F0E70222EEE70322ECE70222EAE7FD
:10240000006801400069014010B59DF808E09DF8A2
:102410000C409DF810C080B90E48C0F8AC10C0F850
:102420009420C0F89830059B43EA0E63C0F89C30B6
:102430004CEA0424C0F8A04010BD0748C1624261C4
:102440008361059B43EA0E63C3614CEA0424046282
:10245000F2E700BF006801400069014030B583B079
:102460001F4A136B43F4A0731363012501950024E5
:1024700000942346224640211A4801F01DF8019598
:102480000094234622468421174801F015F8174B83
:10249000D3F81832DBB2164AD2F8081243EA4103E5
:1024A000DBB2D2F81C2243EA8203DBB2042B11D840
:1024B000DFE803F00312070A0D0044F2423003B0D4
:1024C00030BD47F21600FAE747F21800F7E748F286
:1024D0001600F4E70020F2E747F28400EFE700BFC0
:1024E0000038024000180240002002400000434231
:1024F000000044422DE9F04784B0904B5A6C42F002
:1025000080625A641A6B42F002021A631A6B42F438
:10251000F0721A63012501950227009700232A46CD
:102520002021874800F0C8FFDFF838A201954FF05E
:102530000308CDF8008000233A464FF480615046EE
:1025400000F0BAFFDFF820920195CDF8008000235B
:102550003A464FF40C61484600F0AEFF794E0195C3
:10256000CDF8008000233A464FF47E41304600F01B
:10257000A3FF754C0195CDF8008000233A4640F248
:10258000F761204600F098FF0E220A21504600F025
:10259000DAFF0E220621484600F0D5FF0E22072161
:1025A000484600F0D0FF0E220B21484600F0CBFF3A
:1025B0000E220921304600F0C6FF0E220A213046C5
:1025C00000F0C1FF0E220B21304600F0BCFF0E22AE
:1025D0000C21304600F0B7FF0E220D21304600F0EE
:1025E000B2FF0E221146304600F0ADFF0E220F2141
:1025F000304600F0A8FF0E220021204600F0A3FF85
:102600000E222946204600F09EFF0E223946204623
:1026100000F099FF0E220421204600F094FF0E22C4
:102620000521204600F08FFF0E220621204600F0F3
:102630008AFF0E220721204600F085FF0E22092185
:10264000204600F080FF0E220A21204600F07BFF8A
:102650003E4C4FF4806323604FF416736360142381
:102660002381A4F80A808C22A281E381A023238203
:102670000C2363822A4639464FF4B470FFF7FAFD03
:102680003348002686616389013B2289013A43EA87
:10269000024383606389E189194401392289B4F8CE
:1026A0000CC094440CF1FF3C41EA0C41C160E1894B
:1026B0000B4461680B4403F1FF3EB4F80CC0624464
:1026C00021680A4402F1FF3C4EEA0C410161618A33
:1026D0000B44013B218A0A44013A43EA0243436125
:1026E000C6622846FFF7DAFC1A491B4B1960E761FE
:1026F000039607230293062301930096FF233A468D
:102700003046FFF781FEA388009323883246314686
:102710003046FFF7F7FD2268104B1A8062685A8036
:102720003046FFF7F7FC0E4BC3F894524FF0FF30E2
:10273000FFF78CFD04B0BDE8F08700BF0038024011
:1027400000040240001C0240002002405C080020FF
:1027500000680140000000C07C0800204C080020F8
:10276000008040420014024000180240C0F1040CF6
:10277000012000FA0CF0014341EA421141EA4321F1
:10278000074B19650023064A926D12F0200F05D001
:102790000133B3F5001FF6D30120704700207047C6
:1027A000000100A02DE9F04782B0954B9A6B42F0F2
:1027B00001029A631A6B42F07C021A63DFF854A29A
:1027C0000126019603270097002302220D2150467F
:1027D00000F072FEDFF8409201960097002302227B
:1027E0004CF20371484600F067FE864D0196009753
:1027F000002302224FF68371284600F05DFE824CD2
:1028000001960097002302224FF63F01204600F078
:1028100053FEDFF80882019600970023022248F257
:102820003711404600F048FE0C220021504600F0CF
:102830008AFE0C220221504600F085FE0C22394609
:10284000504600F080FE0C220021484600F07BFE3E
:102850000C223146484600F076FE0C2208214846FC
:1028600000F071FE0C220921484600F06CFE0C229B
:102870000A21484600F067FE0C220E21484600F06F
:1028800062FE0C220F21484600F05DFE0C22002162
:10289000284600F058FE0C223146284600F053FE30
:1028A0000C220721284600F04EFE0C220821284663
:1028B00000F049FE0C220921284600F044FE0C22BB
:1028C0000A21284600F03FFE0C220B21284600F08A
:1028D0003AFE0C221146284600F035FE0C220D214E
:1028E000284600F030FE0C220E21284600F02BFE78
:1028F0000C220F21284600F026FE0C220021204643
:1029000000F021FE0C223146204600F01CFE0C2275
:102910000221204600F017FE0C223946204600F026
:1029200012FE0C220421204600F00DFE0C2205218F
:10293000204600F008FE0C220B21204600F003FE8A
:102940000C221146204600F0FEFD0C220D212046EF
:1029500000F0F9FD0C220E21204600F0F4FD0C22BF
:102960000F21204600F0EFFD0C220021404600F030
:10297000EAFD0C223146404600F0E5FD0C22022122
:10298000404600F0E0FD0C220421404600F0DBFD53
:102990000C220521404600F0D6FD0C2208214046BD
:1029A00000F0D1FD0C220F21404600F0CCFD174C69
:1029B00041F6D9132364164BA36400231A4631460B
:1029C0001846FFF7D3FE4FF4FA70FEF7C9FF002355
:1029D0001A4602211846FFF7C9FE0023082239468D
:1029E0001846FFF7C3FE40F23323002204211046AD
:1029F000FFF7BCFE40F2B453636502B0BDE8F08758
:102A0000003802400010024000140240000100A003
:102A10006155110100080240000C024000180240FC
:102A2000F8B504460F46154600F050FA282000F08D
:102A30001FFB00F0AFFA200A00F01AFB00F0AAFA20
:102A4000E0B200F015FB00F0A5FA0026344601E0E4
:102A50000134E4B2AC4207D2385D00F009FB00F06B
:102A600099FA06460028F3D000F052FA3046F8BD35
:102A700070B504460E46154600F028FA282000F0EE
:102A8000F7FA00F087FA200A00F0F2FA00F082FA72
:102A9000E0B200F0EDFA00F07DFA00F017FA29201C
:102AA00000F0E6FA00F076FA002408E0681E201A2A
:102AB00018BF012000F004FB30550134E4B2AC42F1
:102AC000F4D300F025FA70BD10B584B08DF807007E
:102AD00000238DF80B309F4B1A780132D2B21A7056
:102AE0009D4BA3FB0213DB0803EB8303A2EB430321
:102AF00013F0FF0F02D0092A00F2068101220DF126
:102B0000070148F24E10FFF7B3FF9DF807309DF91B
:102B10000720002A22DB9DF8070010F00F0000F0CC
:102B2000F4808E4B1A78904200F2FE804FF6FF73CD
:102B300083408B498C8EDB436FEA83436FEA934378
:102B40008B868889D31C01EB430398800B8C0F3252
:102B500021F8123000238DF80B3035E07F4A1278CF
:102B600003F00F039A42D6D300238DF80B300122D5
:102B70000DF10B0148F24E10FFF752FFCBE7784BF7
:102B800093F8443013F0010F5CD0764B19889DF810
:102B90000F209DF80E3003EB02239BB29DF80B2013
:102BA000C91A6F48131D00EB430399809DF80D105F
:102BB0009DF80C3003EB0123103220F812309DF801
:102BC0000B3001338DF80B309DF80B00634B1B78F5
:102BD000984269D2624B9B8E034113F0010FEED0F5
:102BE000042203A9604B33F81000FFF741FF5D4B4F
:102BF0009B8845F210529342C1D049F60602934297
:102C0000BDD047F296729342B9D0554B93F84430F9
:102C100013F0010F2DD09DF80D209DF80C109DF89C
:102C20000B3001EB02214E481A1D00EB420291804D
:102C30009DF80F109DF80E2002EB0122103320F8B2
:102C40001320BCE79DF80D209DF80C109DF80B306B
:102C500001EB022142481A1D00EB420291809DF8CF
:102C60000F109DF80E2002EB0122103320F81320E4
:102C7000A5E73C4B19889DF80F209DF80E3003EB1B
:102C800002239BB29DF80B20C91A3548131D00EB97
:102C9000430399809DF80D109DF80C3003EB012340
:102CA000103220F812308AE72D4A91892D4A128875
:102CB000914205D82A4A118C2A4A528891421ED93B
:102CC0009DF8072012F00E0F09D0254BDA899A8162
:102CD0005A8C1A841F4B00221A70012015E0204ADA
:102CE000D91C02EB4101898891810F3332F81330EE
:102CF000138480238DF807309486012005E0154B5E
:102D000000221A70012000E000209DF8073003F037
:102D10008F03802B0AD00F4B1B78F02B02D90D4B61
:102D20000A221A7004B010BD0020EEE70C4A938E00
:102D3000B2F93420002A08DB094A4FF6FF7191816D
:102D4000118403F460439386E5E7C3F30E03044A5A
:102D50009386E0E784080020CDCCCCCC080000208E
:102D60000C0000204C0800204C0B010870B584B00A
:102D7000474B1A6B42F480721A631A6B42F080025E
:102D80001A63444D012401940094002322464FF419
:102D900080712846FEF740FE3F4E019400940023C8
:102DA0001A4680213046FEF737FE00F0CDF80022AB
:102DB0004FF480712846FEF775FE0A20FEF710FEDC
:102DC00022464FF480712846FEF76CFE0A20FEF77B
:102DD00007FE0025019500942B462A4680213046A7
:102DE000FEF71AFE6420FEF7FBFD042202A948F25A
:102DF0004010FFF73DFE8DF80C50284902A8FDF762
:102E0000DFF978B1264902A8FDF7DAF950B1254972
:102E100002A8FDF7D5F928B1234902A8FDF7D0F99A
:102E2000002833D102A9214800F0AAFD1E4902A8BA
:102E3000FDF7C6F910B91E4B0A221A7002238DF84D
:102E40000830012202A948F24000FFF7E9FD0A20FC
:102E5000FEF7C6FD00248DF80840012202A948F2C1
:102E60004000FFF7DDFD134A92F84430124989799A
:102E700001F001010B4382F844301049516063F0C6
:102E80007F0382F84430204604B070BD0120FBE788
:102E90000038024000200240001C024020C200080E
:102EA00024C200082CC2000834C200083CC200083A
:102EB000080000200C0000204C080020C92A00084F
:102EC00008B50220FEF74CFD08BD000038B50E4DD8
:102ED000012208212846FEF7E5FD0C4C0122402185
:102EE0002046FEF7DFFDFFF7EBFF00220821284612
:102EF000FEF7D8FDFFF7E4FF002240212046FEF751
:102F0000D1FDFFF7DDFF38BD00200240001C02406C
:102F100010B50B4C002208212046FEF7C3FDFFF739
:102F2000CFFF012240210748FEF7BCFDFFF7C8FF95
:102F3000012208212046FEF7B5FDFFF7C1FF10BDB5
:102F400000200240001C024010B582B00E4B1A6BEC
:102F500042F080021A631A6B42F480721A630124F1
:102F6000019400942346224640210848FEF754FD70
:102F7000019400942346224608210548FEF74CFDA3
:102F8000FFF7C6FF02B010BD00380240001C02402F
:102F90000020024038B5012208211348FEF782FDC7
:102FA000FFF78EFF012240211048FEF77BFDFFF75F
:102FB00087FF002408210C48FEF780FD054648B134
:102FC0000134E4B2FA2C02D8FFF77AFFF2E7FFF7F8
:102FD0009FFF0125002240210448FEF763FDFFF713
:102FE0006FFF284638BD00BF00200240001C024091
:102FF00038B50F4C002208212046FEF753FDFFF79D
:103000005FFF0C4D012240212846FEF74BFDFFF7E4
:1030100057FF002240212846FEF744FDFFF750FFEE
:10302000012208212046FEF73DFDFFF749FF38BD8C
:1030300000200240001C024010B5012208210A486D
:10304000FEF730FDFFF73CFF084C012240212046EF
:10305000FEF728FDFFF734FF002240212046FEF74F
:1030600021FDFFF72DFF10BD00200240001C024093
:1030700070B50446002517E0E20908210E48FEF766
:1030800011FDFFF71DFF0D4E012240213046FEF7D6
:1030900009FDFFF715FF002240213046FEF702FD33
:1030A0006400E4B20135EDB2072DE5D90122082113
:1030B0000148FEF7F7FC70BD00200240001C0240F2
:1030C00070B506460024254608E00022402111483C
:1030D000FEF7E8FCFFF7F4FE0135EDB2072D11D83D
:1030E0006400E4B2012240210A48FEF7DBFCFFF74E
:1030F000E7FE08210848FEF7E1FC0028E5D001348E
:10310000E4B2E2E71EB9FFF797FF204670BDFFF774
:103110006FFFFAE7001C02400020024070B5044631
:10312000002516E0002208211048FEF7BBFC6400D1
:10313000E4B20F4E002240213046FEF7B3FC0120DE
:10314000FEF70EFC012240213046FEF7ABFC0135B4
:10315000EDB2072D08D814F0800FE3D0012208212A
:103160000248FEF79FFCE2E770BD00BF002002406E
:10317000001C024070B505462A4C00224021204622
:10318000FEF790FC284E002208213046FEF78AFC0C
:1031900000224FF480713046FEF784FC2846FFF78A
:1031A000BDFF0620FEF7DCFB002240212046FEF793
:1031B00079FC0120FEF7D4FB012240212046FEF7D6
:1031C00071FC0120FEF7CCFB002240212046FEF7D7
:1031D00069FC0024254601E00135EDB20F2D18D819
:1031E0006400A4B20F4E002240213046FEF75AFC84
:1031F0000120FEF7B5FB012240213046FEF752FCCC
:1032000008210A48FEF75AFC0028E5D00134A4B290
:10321000E2E7240901224FF480710348FEF742FCE3
:10322000204670BD001C02400020024000180240F1
:1032300030B585B00546002409E02846FFF79AFF1F
:1032400004AB03EB440323F80C0C0134A4B2042CAC
:10325000F3D900201AE001339BB2042B15D804AA3D
:1032600002EB400232F80C2C04A901EB430131F8C7
:103270000C1C8A42EFD904AD05EB400C2CF80C1C59
:1032800005EB430121F80C2CE5E72046032803D881
:10329000441CA4B22346E0E70020012308E004AA6E
:1032A00002EB430232F80C2C104480B201339BB283
:1032B000032BF4D9034BA3FB0030C0F34F0005B040
:1032C00030BD00BFABAAAAAA38B50B4C002584F8C4
:1032D00044500A4B9B7903F0010384F84430FFF714
:1032E00045FD074B636094F8443063F07F0384F836
:1032F0004430284638BD00BF0C0000204C08002098
:10330000C92A000870B505460C460D4B93F84430A9
:1033100013F0010F0AD09020FFF78AFF0646D02055
:10332000FFF786FF03462E80238070BDD020FFF775
:103330007FFF06469020FFF77BFF0346F3E700BFC1
:103340000C00002030B583B005460C4601A90DF1F4
:103350000600FFF7D7FF69460DF10200FFF7D2FF25
:10336000BDF80230BDF80620934203D803F13101C5
:10337000914205DA934220D302F1310199421FDBD9
:10338000BDF80000BDF80410884203D800F1310CEC
:103390008C4506DA884215D33131814201DA0020AA
:1033A0000CE013445B102B80BDF80430BDF8002006
:1033B00013445B102380012000E0002003B030BDE7
:1033C0000020FBE70020F9E710B5044680213648CD
:1033D000FEF774FB002852D19CB13449A1F11400CE
:1033E000FFF7B0FF324BB3F93430002B07DB304B23
:1033F0004FF440429A869A89DA831A8C5A860020C2
:1034000010BD2A49A1F11400FFF79CFF0028E9D064
:10341000274A9389B2F840105B1A1BB2D2ED0E6AAC
:1034200007EE903AF8EEE77A87EEA67A21490B8804
:103430005B0807EE903AF8EEE77A77EE877AFCEED3
:10344000E77A17EE903A9381138CB2F842001B1A78
:103450001BB2D2ED0F6A07EE903AF8EEE77A87EEEC
:10346000A67A4B885B0807EE903AF8EEE77A77EE9B
:10347000877AFCEEE77A17EE903A1384B2E70C4BAA
:103480009A8EB3F93430002B08DB094B0022DA8323
:103490005A864FF6FF729A811A84B0E7C2F30E0281
:1034A000034B9A86ABE700BF001C02402C000020B3
:1034B0000C0000204C0800202DE9F043079F089ED7
:1034C0004FF0000C01E00CF1010CBCF10F0F38D8EB
:1034D0004FF0010E0EFA0CFE3EEA0104F3D1D0F8D3
:1034E00000904FEA4C050324AC406FEA040829EA37
:1034F00004040460046802FA05F944EA090404605B
:10350000541E012CDFD8846808EA040484608468AF
:1035100007FA05F944EA09048460446824EA0E04C1
:103520004460446803FA0CFE44EA0E044460C46834
:1035300008EA0404C460C46806FA05F52C43C460B4
:10354000C1E7BDE8F08310B4CB08083350F823403E
:1035500001F0070189004FF00F0C0CFA01FC24EA7E
:103560000C0440F8234050F823408A40144340F8AC
:1035700023405DF8044B704708B5B420FEF7DAF934
:103580004FF4E130FEF7BCFA4FF4E130FEF702FBF6
:10359000FFF708F9FEF7E6FBFFF7E8FB00F001F89C
:1035A00008BD10B584B001214FF48040FEF730F81B
:1035B00007210846FDF798FF8023029300238DF82A
:1035C0000C3010238DF80D3001248DF80E4002A828
:1035D000FEF798F817238DF804300F238DF8053087
:1035E0008DF806308DF8074001A8FDF74BFF04B0B9
:1035F00010BD000030B585B08020FEF7CBF8F0B1EB
:10360000104B5B68002098470F4B029332250195C1
:1036100064240094FA234FF4B47200210B4800F0A4
:103620001BF80B4B029301950094FA234FF402729E
:103630000121084800F010F88020FEF7B5F805B029
:1036400030BD00BF0C00002048C2000886080020E2
:1036500050C20008850800202DE9F04385B081465E
:10366000884614461D46BDF83060BDF8347003F13D
:103670000B0102F10B000E9B029301230193202307
:103680000093F02289B280B2FEF7D0FC2F4B13F8E2
:103690000830BBB92E4B9B89A34254D32644B34276
:1036A00051DC2B4B1B8CAB424DD32F44BB424ADC2D
:1036B00089F80080254B012203F808204846FDF7D1
:1036C0000DFE40E0224B9B89A34222D3A2199342D4
:1036D0001FDC1F4B1B8CAB421BD3EA19934218DC37
:1036E0001C4B1B68002B2ED1A21992B2EB199BB276
:1036F000013B013A691C601C4FF6E07400949BB2D8
:1037000092B289B280B2FEF745FD124B01221A60D7
:1037100019E000230D4A02F808300E4A1360FF2317
:1037200089F80030A21992B2EB199BB2013B013A21
:10373000691C601C4FF6FF7400949BB292B289B270
:1037400080B2FEF727FD05B0BDE8F0838C080020AD
:103750000C00002088080020002103E00A4B5B5881
:103760004350043109480A4B42189A42F6D3094A99
:1037700002E0002342F8043B074B9A42F9D3FDF7DD
:1037800059FEFDF799FD7047680E01080000002002
:103790002C0700202C070020B00B0020FEE70000C3
:1037A000024A0349034800F0C9B800BF5400002092
:1037B000757C0008680000200C4B4168994210B5E8
:1037C000044601D004F056FAA168094B994202D090
:1037D000204604F04FFAE168064B994204D0204697
:1037E000BDE8104004F046BA10BD00BF98080020A4
:1037F00000090020680900202DE9F843314A324CC5
:103800003249DFF8DC90DFF8DC80314F11600025B1
:1038100004232946082204F15C00C4E903352D4E37
:10382000A560C4E90055C4E90555656600F020F9B6
:1038300004F15800C4E90749C4E90987E66200F0C9
:10384000BDF92946244B6367082204F1C400C4E98A
:103850001A55C4E91E552567C4F8CC50C4F88050E9
:1038600000F006F904F1680304F1C000C4F88430E4
:10387000C4E92298C4E9247600F0A0F9174BC4F8F3
:10388000DC30294604F596700822C4E93455C4E9B1
:103890003855C4F8D850C4F83451C4F8E85000F092
:1038A000E7F804F1D003C4E93D87C4F8F09004F5CB
:1038B0009470C4F8FC60C4F8EC30BDE8F84300F044
:1038C0007DB900BFD009002098080020A13700086A
:1038D0000D3A0008313A0008090001001200020008
:1038E000A9390008CD39000810B504460A4800F08F
:1038F00069F9636B23B9094B094A1B68626323B1F9
:10390000BDE81040044800F05FB9FFF775FFBDE85F
:103910001040014800F058B9E0090020D00900200B
:10392000B9370008014800F04DB900BFE009002098
:10393000014800F049B900BFE00900202DE9F84333
:103940000746884616464FF00009D6E90154013D66
:1039500010D4A389012B08D9B4F90E3001332146C4
:10396000384602D0C04749EA0009013D6B1C04F10A
:103970006804EED13668002EE7D14846BDE8F883EA
:103980000FB400B5074983B004AB086853F8042BA3
:103990008168019302F0E0FA03B05DF804EB04B033
:1039A000704700BF6000002010B50C46B1F90E1042
:1039B00000F0D8F8002803DB236D0344236510BD15
:1039C000A38923F48053A38110BD00BF2DE9F041EA
:1039D0000C46B1F90C101F46CB05054616460BD414
:1039E00021F48051A1813B46B4F90E10324628469D
:1039F000BDE8F04100F0CCB8B4F90E10022300226B
:103A000000F09AF8B4F90C10EAE700BF10B50C46C4
:103A1000B1F90E1000F090F8B4F90C30421C0EBF52
:103A200023F4805343F480532065A38110BD00BF6D
:103A3000B1F90E1000F06EB870B59AB013460A4E88
:103A40000A466FF00041029105910849039104462E
:103A500000253068199569460094049400F0DCFC58
:103A6000009B1D701AB070BD600000200802FFFFAF
:103A7000830730B547D0541E002A3ED0CAB2034651
:103A800001E0013C39D303F8012B9D07F9D1032C48
:103A90002CD9CDB205EB05250F2C05EB054535D905
:103AA000A4F1100222F00F0C03F1100EE6444FEACD
:103AB000121C1A46C2E90055C2E90255103272457D
:103AC000F8D10CF1010214F00C0F03EB021204F018
:103AD0000F0C13D0ACF1040323F00303043313449D
:103AE00042F8045B9342FBD10CF003042CB1C9B241
:103AF0001C4403F8011BA342FBD130BD64461346AE
:103B0000002CF4D1F9E703461446C0E71A46A44650
:103B1000E0E700BF38B5074D0022044608462A609A
:103B200008F022FB431C00D038BD2B68002BFBD0D3
:103B3000236038BDD409002038B50C46084D8446B2
:103B4000114620461A4600232B60644608F034FBD9
:103B5000431C00D038BD2B68002BFBD0236038BD40
:103B6000D409002038B50C46084D8446114620463D
:103B70001A4600232B60644608F026FB431C00D045
:103B800038BD2B68002BFBD0236038BDD409002042
:103B900038B50C46084D8446114620461A46002387
:103BA0002B606446FDF792FF431C00D038BD2B68A4
:103BB000002BFBD0236038BDD4090020704700BF24
:103BC000704700BF704700BF704700BF024B13B182
:103BD000024800F005B87047000000002584000886
:103BE000002301461A46184604F070BC2DE9F8433C
:103BF00006460820894604F029FCDFF8A480054623
:103C0000304600F0FDFBD8F808305F6827F0030766
:103C1000A7F11104A4EB09042C44B4FBF5F4013C16
:103C200005FB04F4A54208DC0021304604F0E8FB63
:103C3000D8F808303B44984205D0304600F0E6FB07
:103C40000020BDE8F8836142304604F0D9FB013022
:103C50000FD0114AD8F808303F1B47F001075F60CA
:103C6000136830461B1B136000F0D0FB0120BDE839
:103C7000F8830021304604F0C3FBD8F80820831AEB
:103C80000F2BDADD43F001035360044B02491B683C
:103C9000C01A0860D1E700BFE8090020AC0100208D
:103CA000B801002000297CD02DE9F0410C46804667
:103CB00000F0A6FB54F8043C754FA4F1080523F06E
:103CC00001016818BE684268864222F0030200F0D3
:103CD0008380DE07426000EB020C33D454F8084CBA
:103CE000DCF804302D1B2144AC6807F1080C644556
:103CF00003F0010364D0D5F80CE0C4F80CE0CEF872
:103D00000840002B00F0818041F001036B600160EE
:103D1000B1F5007F22D27868CB080122490901332E
:103D20008A40024357F833107A6007EBC302083A1F
:103D3000C5E9021247F83350CD604046BDE8F04176
:103D400000F064BBDCF80430DB072BD541F0010345
:103D5000B1F5007F44F8043C0160DCD3B1F5206F7D
:103D60004FEA512353D28B0903F1390003F1380292
:103D7000C300F818FB580838984203D161E09B68EB
:103D8000984204D05A6822F003028A42F7D8D868D1
:103D9000C5E902308560DD604046BDE8F04100F0D5
:103DA00035BB7047114407F1080C836863453FD069
:103DB000C268DA60936041F001036B606950A7E765
:103DC000002B5FD10A44D0E90213CB60996042F026
:103DD00001036B60AA50B0E7DB070A4407D454F82C
:103DE000083CED1A1A44D5E90213CB60996042F001
:103DF00001036B60274BBD601B6893429DD8264B27
:103E000040461968FFF7F2FE97E71144CDE7142BFF
:103E100008D9542B1DD80B0B03F16F0003F16E0270
:103E2000C300A6E703F15C0003F15B02C300A0E757
:103E300041F00103C7E90455C5E902CC6B60695044
:103E40007BE779689210012404FA02F20A437A604F
:103E50009EE7B3F5AA7F06D8CB0B03F1780003F1F8
:103E60007702C30085E740F25452934206D88B0C88
:103E700003F17D0003F17C02C3007AE74FF47E7307
:103E80007E2276E741F001036B60016055E700BFD9
:103E9000B8010020B0010020180A00202DE9F04FE1
:103EA00001F10B05162D83B0064623D8102900F228
:103EB000AF8000F0A5FA102518230220B74F3B442D
:103EC000A3F108025C68944200F01E816368E26816
:103ED000A16823F00303CA602344304691605A6806
:103EE00042F001025A6000F091FA0834204603B013
:103EF000BDE8F08F35F0070500F18A80A94200F295
:103F0000878000F07DFAB5F5FC7FC0F06E816B0A0A
:103F100000F08280042B00F21D81AB0903F139000F
:103F200003F1380EC3009D4F3B44A3F1080C5C68BD
:103F3000A44507D10DE0002AE16880F2DF808C45BE
:103F400007D00C46636823F003035A1B0F2AF2DDE7
:103F50007046DFF860823C69444500F0BC806368CD
:103F600023F0030CACEB05030F2B00F34281002B75
:103F7000C7E9048880F22D81BCF5007FD7F804E002
:103F800080F0C8804FEADC0101314FEA5C1C01235C
:103F900003FA0CF357F83120A2604EEA030E07EB48
:103FA000C103083BE360C7F804E047F83140D46040
:103FB00083104FF0010C0CFA03FCF44532D81CEAD4
:103FC0000E0F08D120F003004FEA4C0C1CEA0E0F34
:103FD00000F10400F8D007EBC00AD6468146DEF8AF
:103FE0000C300BE0596821F003014A1B0F2A1C46D4
:103FF000DB6800F3BB80002A80F2DE809E45F1D1B1
:1040000009F1010919F0030F0EF1080EE7D119E1CA
:104010000C233360002469E74FF4007340204FF015
:104020003F0E80E7BC68636823F00309A94503D30A
:10403000A9EB05030F2B51DC594B1B68082003F13A
:10404000100804EB0903009304F000FA554A1368C2
:104050000133A844834605D008F1FF388044434229
:1040600003EA08084146304604F0CAF9B0F1FF3FC0
:104070004C4A824600F0D880009B834200F2D280F6
:10408000494B186840440BF1FF311860844640F0FA
:10409000FC801AEA010F40F0F880D7F808A0C84465
:1040A00048F00102CAF80420404B1968814238BF29
:1040B00018603F4B1968814238BF1860544622F09F
:1040C0000308A845A8EB050301D30F2B06DC3046F7
:1040D00000F09CF99EE7D7F804E069E7621943F025
:1040E000010345F0010565603046BA60536000F099
:1040F0008DF90834204603B0BDE8F08FA268234450
:10410000D16030468A60EAE6DC68A3427FF4DEAE26
:1041100002301EE7BCF5206F4FEA5C227BD3142AE5
:1041200000F2128102F15C03DB005B32F918FB58EC
:104130000839994203D1ECE09B68994204D05A684F
:1041400022F003026245F7D8D968C4E902318C60D5
:10415000DC602DE7142B6AD9542B00F2FE802B0B68
:1041600003F16F0003F16E0EC300DCE6D4F808C063
:104170003046661945F001056560CCF80C30C3F88F
:1041800008C042F00103C7E90466C6E9028873600B
:10419000625000F03BF90834A8E600BFB8010020E7
:1041A000180A0020AC010020E8090020140A0020B1
:1041B000100A0020C0010020214430464A6842F025
:1041C00001024A6054F8082FD3609A6000F01EF98B
:1041D0008CE6A4443046DCF8043043F00103CCF80C
:1041E000043000F013F9083480E6E80805F108030C
:1041F00064E6621943F0010145F00105656030464F
:10420000C7E90422C2E90288516044F80C3000F08A
:10421000FDF808346AE64FEA9C1202F13903DB002C
:10422000383283E7BC4228D0BC68626847E703F1B4
:104230005C0003F15B0EC30075E65AF8083953457C
:1042400040F0D98010F0030F00F1FF30F5D17B680A
:1042500023EA0C037B604FEA4C0C9C453FF6E2AE30
:10426000BCF1000F04D1DDE64FEA4C0C09F1040962
:104270001CEA030FF8D04846ADE6604B186808EB1F
:10428000000C0BF1FF31C3F800C0106801306ED094
:10429000009AAAEB020262441A601AF00702CDE902
:1042A000002340D0C2F108029244D04408EA010041
:1042B0005A44121A02EA010B5946304604F0A0F89B
:1042C000421C019B6FD0A0EB0A0000EB0B081868A2
:1042D000C7F808A048F001025844BC42CAF80420BC
:1042E00018603FF4E1AEB9F10F0F43D96168A9F14D
:1042F0000C0222F0070201F00101114361604FF04E
:10430000050CA1180F2AC1E901CC54D8DAF8042011
:10431000CAE692104FF0010C0CFA02F24EEA020EBD
:10432000C7F804E011E70AEB08020A40ABEB02020F
:1043300002EA010B5946304604F062F8431C019B27
:10434000C1D1DDF800B0C2E7542A17D84FEA1C32B9
:1043500002F16F03DB006E32E8E6B3F5AA7F17D8EF
:10436000EB0B03F1780003F1770EC300DBE5C2F835
:1043700000A092E70123CAF80430A8E6B2F5AA7FAC
:1043800024D84FEADC3202F17803DB007732CDE645
:1043900040F25452934224D8AB0C03F17D0003F158
:1043A0007C0EC300BFE5009A083A9044A8EB0A08C7
:1043B0004FF0000B8BE7304604F108010093FFF744
:1043C00071FC009BD7F808A018689FE740F254538F
:1043D0009A420CD84FEA9C4202F17D03DB007C320A
:1043E000A4E64FF47E737F204FF07E0E9BE54FF4E2
:1043F0007E737E229AE67B682DE700BFE8090020E5
:104400000148FFF7DFBB00BFD80900200148FFF7D4
:10441000DBBB00BFD80900202DE9F04FD9B00C4616
:10442000099115460B93834603F0E6FF0368169344
:104430001846FCF725F900211490082228A8FFF758
:1044400017FBA389190603D52369002B00F05E87AB
:104450009FED7F7B0023CDE92D33CDE917338DED23
:10446000107B2FAA0E932C92144615931C9319932C
:1044700006932E46B246784BD3F8E45003F0B6FFCD
:1044800028AA0346009224A952465846A847002865
:1044900000F0B180C0F2A780249A252A034601D0FB
:1044A0009A44E8E7BAEB0607054640F0A8800023E7
:1044B00019464FF0FF328DF8873007930AF1010A51
:1044C0009AF80030059204910AF1010AA3F1200242
:1044D0005A2A00F2C380DFE812F0F402C100C100E2
:1044E000ED02C100C100C1006A00C100C1003F026D
:1044F0005102C1004A020603C100FF025B005B00DB
:104500005B005B005B005B005B005B005B00C1006D
:10451000C100C100C100C100C100C1003B01C10018
:10452000BE01D3023B013B013B01C100C100C10000
:10453000C100CC02C100C1008802C100C100C1009D
:10454000E801C1005702C100C100B206C100C100AC
:10455000C100C100C100C100C100C1003B01C100D8
:10456000BE011A023B013B013B01A0021A027F007F
:10457000C100C202C100B302D80622037F00C100FD
:10458000E8017C00AE06C100C100DB06C1007C0072
:10459000A3F1300200211AF8013B01EB810102EB8B
:1045A0004101A3F13002092AF5D907918EE7584657
:1045B00003F022FF436819931846FCF761F81C903A
:1045C0000546584603F018FF83681793002D40F006
:1045D000B7859AF8003077E7049B43F020030493F3
:1045E0009AF8003070E70822002128A8FFF740FA67
:1045F00001239A443FE7BAEB0607054610D02E9BED
:104600003B442E932D9B0133072BC4E900672D9368
:1046100015DC0834069B3B440693002D7FF447AF1E
:104620002E9B002B41F09381099B9B8903F0400353
:10463000002B41F09283069859B0BDE8F08F09999C
:104640002CAA584603F0EAFA0028EDD12FACE1E796
:104650000000000000000000C00500200C93002BAB
:10466000DED000228DF8FC3001238DF887200293E4
:104670000A920893059212920F920D923FAE049BFC
:1046800013F0020302D002990231029104992E9D87
:1046900011F0840805D1079902980F1A002F00F332
:1046A000A1806AB1012262602D9A013201350DF1BB
:1046B0008701072A2E952D92216000F3DB830834B1
:1046C0006BB12D9B22AA013302352260072B4FF0DC
:1046D00002022E952D93626000F3C1830834B8F175
:1046E000800F00F0C482059B089A9F1A002F00F3E8
:1046F000FE82049BDA0500F12482089B63601D445E
:104700002D9B26600133072B2E952D9300F33F83BD
:104710000834049B5A0705D5079B029A9E1A002E5F
:1047200000F3B583DDE9063202998A42ACBF9B18DB
:104730005B180693002D40F00B8300232D930A9BFA
:104740001BB10A995846FFF7ADFA2FAC564691E6D1
:104750000C930B9B073323F00703B3EC027B58EC5D
:10476000177B0B9328F000431B938DED1A7ADDE93C
:104770001A01AF4B4FF0FF328DED107BFCF742FC7E
:10478000002840F00285DDE91A01A94B4FF0FF3205
:10479000FCF71AFC002840F0F88400220023384679
:1047A0004146FCF707FC002841F021809DF8872056
:1047B000049BA04E23F0800304939F4B0C99472940
:1047C000D8BF1E46002303210A9302910891059346
:1047D00012930F930D93002A3FF451AF029B0133C4
:1047E00002934CE795492D9A1391102F25DD214610
:1047F0002846099C914D1D934FF0100904E0103F8D
:10480000102F01F1080115DD01321030072AC1E92E
:104810000059CDE92D20F2DD2CAA2146584603F09F
:10482000FDF9002840F09C82103F102FDDE92D207B
:104830002FA9E9DC1D9B0C46054601321399216026
:104840003D44072ACDE92D25676000F3D4869DF805
:104850008720083425E70B9A0C93432B02F10405BB
:1048600003D0049BDA0640F11785082200212AA80C
:10487000FFF7FEF80B9B3FAE1A6831462AAB58464D
:1048800005F0C6FB03460133089001F06182089BE6
:1048900023EAE373029300220B958DF887200A9296
:1048A000059212920F920D92E9E60B9F0C9357F826
:1048B000046B00238DF88730002E00F016850C9BCA
:1048C000532B00F0BF86049B13F010030D9340F0B0
:1048D000B986059B002BC1F245800D991A463046DA
:1048E000FBF7DEFD0A90002801F066820A9B991B07
:1048F0000D9B0891059321EAE17112930F930A939E
:1049000073239DF887200B9702910C9363E70C9318
:10491000049B9B0640F1BD800B9B073323F00703EC
:104920001A46596852F8083B0B920A460029C0F211
:10493000CA8305990029C0F28382049921F0800579
:1049400053EA020140F07D82059A002A40F07E82FF
:104950000495089258AE60E10B9B53F8042B079224
:10496000002A80F2DA83079A0B9352420792049B43
:1049700043F0040304939AF80030A5E52B238DF847
:1049800087309AF800309FE50C93049B43F01005A4
:1049900015F0200200F072830B9B073323F007030E
:1049A00019465A6851F8083B0B9101210020059ED9
:1049B0008DF88700002EC0F2198125F08000049048
:1049C00053EA020040F01181002E40F024860029B5
:1049D00040F0808315F00103089300F0A383302397
:1049E0008DF85F310DF25F1617E10C93049B43F0D5
:1049F00010030493049B13F0200200F055830B9BDB
:104A0000073323F0070319465A6851F8083B0B9106
:104A1000049921F480650021C8E79AF80030682BDA
:104A200000F04E84049A42F0400204924CE500BF2C
:104A3000FFFFEF7F58C2000854C20008700B010846
:104A4000049B9D0640F190830B9B069A1B681A609D
:104A5000D2175A600B9B04330B9356460AE59AF81B
:104A600000306C2B00F02284049A42F01002049271
:104A70002AE5049B43F0080304939AF8003023E5E9
:104A80000C93049B43F010030493049B9B063FF597
:104A900043AF04990B9ACF0652F8043B00F14B83C5
:104AA00004994E0640F143860B9243F3C0321146FF
:104AB0001BB23BE7049B43F0010304939AF80030D8
:104AC00002E59DF887209AF80030002A7FF4FCACBC
:104AD00020228DF88720F7E4049B43F080030493A1
:104AE0009AF80030F0E4504610F8013B2A2B01F010
:104AF000E581A3F13002092A98BF002101F2E48088
:104B000010F8013B01EB810102EB4101A3F13002FE
:104B1000092AF5D941EAE17205928246D6E40B9A58
:104B2000049B43F0020552F8043B0B9247F6300217
:104B3000ADF8882078209B4A1592022100220C9023
:104B400034E70C9B652B40F33381DDE91001002233
:104B50000023FCF725FA002800F0D2812D9B924A11
:104B60002260013301350122072B2E952D936260BF
:104B700000F35C850834239B0E9A934280F2C8822E
:104B8000149B169A1D44C4E900232D9B2E950133D6
:104B9000072B2D9300F39E8308340E9B5E1E002E80
:104BA0007FF7B7AD102E2D9BDFF8009240F3E58024
:104BB000DDF82480102704E00834103E102E40F366
:104BC000DC8001331035072BC4E90097CDE92D3582
:104BD000F2DD2CAA4146584603F020F8002840F0A8
:104BE000BF80DDE92D352FACE7E7049D012900F0FA
:104BF0002881022958AE1FD1159803F00F011B0917
:104C0000415C06F8011D43EA0273120953EA0201EE
:104C1000F3D158AB9B1B04950893059908989DF810
:104C2000872081424FF00003B8BF01460A930291EA
:104C300012930F930D93CEE503F00701DB0843EACF
:104C40004273D208303153EA0207304606F8011D9C
:104C5000F2D1EF07DDD53029DBD03023023806F85A
:104C6000013C58AB1B1A049508930646D5E7079BF1
:104C7000029A9F1A002F7FF736AD102F2D9BDFF879
:104C80002C9122DD2A464FF010084D46DDF8249085
:104C900004E0103F102F04F1080414DD013310323A
:104CA000072BC4E90058CDE92D32F2DD2CAA494684
:104CB000584602F0B3FF002852D1103F102FDDE913
:104CC0002D322FACEADCA946154601333D44072BB3
:104CD000CDE92D35C4F80090676000F3DB84059BB7
:104CE000089A9F1A002F04F108047FF702AD102FD5
:104CF0002D9BDFF8B8901FDD2A464FF01008099D64
:104D000004E0103F102F04F1080414DD013327499B
:104D10001032072BC4E90018CDE92D32F1DD2CAAA1
:104D20002946584602F07AFFD0B9103F102FDDE92E
:104D30002D322FACEADC154601333D44072BCDE97B
:104D40002D35C4F80090676000F38C810834D0E4FE
:104D500009992CAA584602F061FF00283FF4EDACF7
:104D60000A9B002B3FF460AC0A995846FEF79AFF65
:104D7000099B9B8903F040035AE401333544072B18
:104D8000C4F800906660CDE92D357FF7C1AC099974
:104D90002CAA584602F042FF0028E1D12E9D2FACEC
:104DA000B7E400BF64C2000894C20008600B0108A9
:104DB0000E9B2D9F012B05F1010507F1010704F161
:104DC000080840F30B810123072FCDE92D752660DC
:104DD000636000F38381149B169A01371D44072FEB
:104DE000C8E90023CDE92D7500F3858108F1080895
:104DF0000E9BDDE910015C1E00220023FCF7D0F8B9
:104E0000002840F00481013701362544072FCDE901
:104E10002D75C8F80060C8F8044000F3EB8008F175
:104E20000808189BC8F8043001371D44072F26AB2B
:104E3000CDE92D75C8F80030A9DC08F1080468E454
:104E4000049D0A2B72F1000180F05E8330338DF8EF
:104E50005F310123049508930DF25F16DDE6099991
:104E60002CAA584602F0DAFE00287FF479AF2E9D76
:104E70002FAC34E4099913932CAA584602F0CEFEC5
:104E800000287FF46DAF2E9D139B2FAC18E4B44A1D
:104E90002D9B1392102E1FDDDDF8248010279146E4
:104EA00004E0103E102E04F1080415DD0133103526
:104EB000072BC4E90097CDE92D35F2DD2CAA414638
:104EC000584602F0ABFE00287FF44AAF103E102E89
:104ED000DDE92D352FACE9DC0133139A3544072B7E
:104EE000C4E90026CDE92D357FF71CAC09992CAA21
:104EF000584602F093FE00287FF432AF2E9D11E455
:104F00002399002940F35183DDE90D329342A8BF74
:104F10001346002B98460ADD1D44C4E900632D9B0F
:104F20002E950133072B2D9300F3618608340D9FD6
:104F3000B8F1000FA8BFA7EB0807002F00F3F58119
:104F40000D9B33440593049B5F0500F11582239B61
:104F50000E9A9342C0F2A082049AD00700F19C827C
:104F60000E9AB718D61A059BFF1AB742A8BF374644
:104F7000002F0ADD23602D9B676001333D44072B22
:104F80002E952D9300F365860834002FA8BFF61BDD
:104F9000002E7FF7BEAB102E2D9BDFF8C8917FF758
:104FA000ECAEDDF82480102704E00834103E102E0B
:104FB0007FF7E3AE01331035072BC4E90097CDE945
:104FC0002D35F2DD2CAA4146584602F027FE002876
:104FD0007FF4C6AEDDE92D352FACE7E7049BD9079A
:104FE0003FF5F1AE0123072FCDE92D7526606360F3
:104FF0007FF717AF09992CAA584602F00FFE002838
:105000007FF4AEAEDDE92D750DF1BC0809E70E9B0E
:10501000012B7FF706AF112BDFF8489140F35C833B
:10502000CDF814A01026CA46DDF8249005E008F15A
:105030000808103C102C40F34C8301371035072F23
:10504000C8E900A6CDE92D75F1DD2CAA49465846E0
:1050500002F0E4FD00287FF483AEDDE92D750DF14B
:10506000BC08E6E709992CAA584602F0D7FD0028AB
:105070007FF476AE2E9D2FACFFF73BBB0B9915F05E
:10508000100051F8043B0CD115F0400604D00B91F0
:105090009BB20246012189E415F400721CBFDBB209
:1050A00032460B91012181E404980B9910F0100015
:1050B00051F8043B3DD1049A12F0400534D09BB224
:1050C00002460B91A4E45B42049D62EB42022D2058
:1050D00001216CE4059B089358AE9EE509992CAA22
:1050E000584602F09BFD00287FF43AAEDDE92D75AD
:1050F0000DF1BC086FE609992CAA584602F08EFD06
:1051000000287FF42DAEDDE92D750DF1BC086FE6AA
:10511000049BDB077FF5FDAA32E50B939AF800307C
:10512000FFF7D2B958AE78E5049A12F4007240F055
:1051300009840B916CE40B92DA171146FFF7F6BB6A
:10514000179A9AF80030002A3FF4BEA91278002A74
:105150003FF4BAA9049A42F480620492FFF7B4B90A
:10516000700B0108600B0108049BD80600F1AB82AC
:10517000049B590600F1E083049B9A0540F1A38249
:105180000B9B069A1B681A7064E4DDE91001024665
:105190000B46FBF737FF002840F01E860C9B612B67
:1051A00000F03185412B00F04E85059B013300F066
:1051B00002840C9B23F02003472B00F0E1850A902A
:1051C000DDE91001049A002942F48079C0F2F984E3
:1051D0009DED107B8DED1E7B002313930C9B413BBB
:1051E000252B00F22583DFE813F029042303230392
:1051F0002303EA03B5042303230323032303230325
:10520000230323032303230323032303230323036E
:10521000230323032303230323032303230323035E
:105220002303230323032303230329042303230347
:105230002303EA03B504049D0C93FFF7A9BB0C9369
:10524000AD4B1593049B13F0200200F033810B9BB0
:10525000073323F0070319465A6851F8083B0B91AE
:105260000498C1070BD553EA020108D00C998DF8B8
:10527000891040F00201049130218DF888100499C2
:1052800021F480650221FFF791BB0C93FFF7B2BBBD
:105290000C939A4B1593D5E70B9B1B688DF8FC304C
:1052A0000123029308933FAEFFF7F5BA049B43F046
:1052B000200304930AF1010A9AF80030FFF704B9B9
:1052C000049B43F4007304930AF1010A9AF8003036
:1052D000FFF7FAB809992CAA584602F09FFC00285B
:1052E0007FF43EAD2E9D2FAC57E4059B0A96062B0E
:1052F000314628BF0623059632460293804E0B970F
:10530000089312910F910D91FFF765BA402158460D
:10531000FEF7C4FD099B18601861002800F00386A1
:10532000099A40235361FFF793B8102F2D9BDFF8A4
:10533000D49140F30B8249462A46B146099D4FF06D
:1053400010080E4604E00834103F102F40F3FA8195
:1053500001331032072BC4E90068CDE92D32F2DDAC
:105360002CAA2946584602F059FC00287FF4F8ACD4
:10537000DDE92D322FACE7E70E9BCDF830A006EB30
:1053800003090F9BDDF85CA0DDF848800D96002B2B
:1053900022462946059C099DCDF81490DDF87090B1
:1053A00031DDB8F1000F40F33B8108F1FF382D9853
:1053B000199B013049440728C2E900392E912D90EC
:1053C00000F387800832059B9AF800001F1B874274
:1053D000A8BF0746002F0CDD2D980130394407285F
:1053E000C2E900472E912D9000F360819AF80000E9
:1053F0000832002FACBFC61B0646002E16DC044444
:105400000F9B002BCDDCB8F1000FCEDCDDE90D6386
:105410002046F31898421446024628BF1A46CDF893
:105420005CA00D46DDF830A0059290E5102E2D9879
:10543000344B23DD0894102734461E4604E0103C0C
:10544000102C02F1080216DD01302E4B1031072816
:10545000C2E90037CDE92D01F1DD2CAA29465846D5
:1054600002F0DCFB00287FF47BAC103C102CDDE963
:105470002D012FAAE8DC33462646089C1360013034
:1054800031440728CDE92D01566000F3A2839AF834
:10549000000008320444B3E7149A16991544C4E98D
:1054A00000122D9A2E950132072A2D9200F3BE8309
:1054B000083455E504980B9910F0100051F8043B9E
:1054C00017D1049A12F040050ED09BB202460B9100
:1054D000C6E62CAA2946584602F0A0FB00287FF415
:1054E0003FAC2E992FAA6EE7049A12F4007240F096
:1054F0001F820B91B4E600BF78C2000864C20008A6
:105500008CC20008600B010800210894DFF81C938E
:10551000179CCDF810A005F4806758AE4FF0050831
:1055200002958C4605E00A2B72F1000234D35346F3
:105530002A46991841F10001A9FB010525F0030055
:1055400000EB9500091A581A4FF0CC3562F1000EA5
:1055500005FB00F5A0FB09A009FB0E550AF0010EA2
:105560000544AEFB080E40184FEA5A0A303006F8E0
:10557000010C4AEAC57A0CF1010C013E6D08002FBE
:10558000D1D021788C45CED1BCF1FF0FCBD00A2BE6
:1055900072F1000280F0E7801794DDF810A0029D00
:1055A000089CCDF838C0FFF734BB2D9B9E4A226083
:1055B000013301350122072B2E952D93626000F3F4
:1055C0001B810834002940F09380049B0E9A03F05D
:1055D000010313433FF49DA8149B169A1D44C4E98C
:1055E00000232D9B2E950133072B2D9300F3D6819D
:1055F00004F108028DE0099913932CAA584602F091
:105600000DFB00287FF4ACAB9DF887202E9D139BEB
:105610002FACFFF746B80129049D7FF4EAAA15E4F0
:105620000F9B013B0AF1FF3A0F93C0E609992CAAA0
:10563000584602F0F3FA00287FF492AB2E9D2FAC6F
:10564000FFF799BA0DF1A8080822002140462596D7
:10565000FEF70EFA059B002BC0F292800025029700
:1056600099462F460EE03FA9584604F0D1FC431C52
:10567000384400F08F83484509DC05F1040500F04B
:10568000BD830746259A52594346002AEBD1089715
:10569000029F83E009992CAA584602F0BFFA00281D
:1056A0007FF45EAB2E9D2FACFFF71DB82CAA2946C8
:1056B000584602F0B3FA00287FF452AB9AF8000083
:1056C0002E992FAA95E60B9B069A1B681A60FFF786
:1056D000C1B9D146DDF814A0C8F8009001372544BF
:1056E000072FCDE92D75C8F804407FF798AB81E40A
:1056F000149B169A1D44C4E900232D9B2E9501335B
:10570000072B2D9300F34A8104F108020029C0F20F
:10571000E0820E99166001330D44072BCDE92D353B
:1057200051603FF734AB02F10804FEF7F2BF049971
:105730000B928D054ABF43F3C012DA175BB21146D4
:10574000FFF7F4B8154632464E46914601333D44C4
:10575000072BCDE92D35C4F80090676000F3128166
:105760000834FFF7EDBB1C9B1999F61A1A46304610
:1057700002F008FE637803B101344FF0000CD6E666
:1057800000231946CDF8008025AA584604F066FC8F
:1057900003460133089000F0FD822596089B002BFC
:1057A00036D0632B00F3E48000230A933FAE082237
:1057B00000214046FEF75CF9089DCDF800802B469D
:1057C00025AA3146584604F049FC854240F0A5839D
:1057D00008990B970023735421EAE1719DF8872003
:1057E0000593029112930F930D93FEF7F4BF2D22B0
:1057F0008DF88720FEF7DCBF09992CAA584602F0E5
:105800000DFA00287FF4ACAA23992E9D2FACD9E67F
:10581000089B9DF887200B970293059312930F9393
:105820000D930A93FEF7D7BF94C20008CDCCCCCC21
:105830002AAB019325AB0093022123AB9DED1E0BF8
:10584000059A584602F018FF049BD907064600F156
:10585000FC812A9B1B1A0E93239B0D930D9BDA1C34
:1058600003DB059A9A4280F28B810C9B023B0C93DE
:105870000D9B013B9DF8302023930021002BB8BFE6
:105880000D9B8DF89820BABFC3F101032D222B2266
:10589000092B8DF8992040F365820DF1AF05B34FC8
:1058A0002A461046A7FB0312D20802EB8201A3EBA3
:1058B0004101303100F8011C19466329134600F1FB
:1058C000FF32EEDC303302F8013C831EAB4280F045
:1058D00021830DF1990213F8011B02F8011FAB425D
:1058E000F9D158AB181AA0F1AD0318930E9B189A72
:1058F000012B1A44089240F35882089B149A1344CF
:105900000893049B089A23F4806343F48073049300
:1059100022EAE2720023129302920F930D93139BDB
:10592000002B40F01B819DF887200593FEF753BFA5
:10593000DBB22A460B9193E40B9B069A1B681A80F4
:10594000FFF788B8DBB22A460B91FFF761B8099CD4
:105950002CAA2146584602F061F9A38903F04003BE
:10596000FEF766BE3046FAF78BFE0146FEF7C0BF73
:10597000591C5846FEF792FA0646002800F0DB82D2
:105980000A9014E709992CAA584602F047F9002812
:105990007FF4E6A92E9D2FACFFF7D2BA09992CAA65
:1059A000584602F03BF900287FF4DAA9DDE92D35ED
:1059B00023992FAAAAE606230A90059300E4059BE3
:1059C000022103F101082AAB019325AB00939DED61
:1059D0001E0B23AB4246584602F04EFE0C9B23F0B2
:1059E0002007462F064600EB080518BF452705D1BE
:1059F0003378302B00F03C81239B1D44DDE91E01F0
:105A000000220023FBF7CCFA002840F059812A9BA2
:105A1000AB4206D230215A1C2A9219702A9B9D4211
:105A2000F9D8239A0D929B1B472F0E933FF416AF84
:105A3000462F00F02B810D9B013B1BE723A89DED1A
:105A40001E0B02F011FD00224FF07F5351EC100BA2
:105A5000FBF73EF802460B46CDE902230022002365
:105A6000FBF79EFA08B101232393059B404A0C984B
:105A7000CDF820A0591E3F4B0D96612808BF1A464D
:105A80003746A0460592DDE902458A46164609E0FA
:105A9000002200230AF1FF39FBF782FA002840F0C8
:105AA000BB81CA46344B002220462946FBF710F83A
:105AB0000D460446FBF7BCFA8146FAF79FFF024603
:105AC0000B4620462946FAF74BFE16F80930BAF184
:105AD000FF3F3A46044607F8013B0D46D8D1CDE9D1
:105AE0000245264BDDF820A00D9E4446904600223C
