:020000040800F2
:1000000000000320D54600081947000819470008DA
:1000100019470008194700081947000800000000A8
:100020000000000000000000000000001947000868
:100030001947000800000000194700081947000888
:100040001947000819470008194700081947000810
:100050001947000819470008194700081947000800
:1000600019470008194700081947000819470008F0
:1000700019470008194700081947000819470008E0
:1000800019470008194700081947000819470008D0
:100090001947000819470008194700086545000876
:1000A00019470008194700081947000819470008B0
:1000B00019470008194700081947000819470008A0
:1000C0001947000819470008194700081947000890
:1000D00019470008F92B0008692C00081947000887
:1000E0001947000819470008194700081947000870
:1000F0001947000819470008194700081947000860
:10010000194700081947000819470008194700084F
:10011000194700081947000819470008194700083F
:10012000194700081947000819470008194700082F
:10013000194700081947000819470008194700081F
:10014000194700081947000819470008194700080F
:1001500019470008194700081947000819470008FF
:1001600019470008194700081947000819470008EF
:1001700019470008194700081947000819470008DF
:1001800019470008194700081947000819470008CF
:1001900019470008194700081947000819470008BF
:0C01A0001947000819470008194700081B
:1001C00010B5054C237833B9044B13B10448AFF391
:1001D00000800123237010BD100A002000000000E1
:1001E000F4C3000808B5034B1BB103490348AFF340
:1001F000008008BD00000000140A0020F4C30008BD
:10020000A2EB0300704700BF02780B78012A28BFD9
:100210009A42F5D16DE9044540EA0104CDE902674F
:100220006FF0000C4FEA447212B380EA010414F03C
:10023000070F6AD100F0070420F0070004F003055F
:1002400021F007014FEAC505F0E8042314F0040F7C
:10025000F1E804670CFA05F462EA040266EA0406AF
:100260000AD063EA0403624667EA0407664603E0CD
:10027000F0E80423F1E8046782FA4CF582EA060408
:10028000A4FA8CF46CBB83FA4CF583EA0705A5FA53
:100290008CF595B950E9022351E9026782FA4CF5D1
:1002A00082EA0604A4FA8CF483FA4CF583EA070583
:1002B000A5FA8CF52543DBD09CB92DBAB5FA85F4A7
:1002C00024F0070427FA04F1DDE9026723FA04F3B6
:1002D00003F0FF0001F0FF01FDE80445A0EB010081
:1002E000704724BAB4FA84F424F0070426FA04F11F
:1002F000DDE9026722FA04F202F0FF0001F0FF01DB
:10030000FDE80445A0EB0100704714F0030F3CD159
:1003100010F0030428D150F8082B51F8083B82FA5A
:100320004CF582EA0305A5FA8CF55DB950F8042C6A
:1003300051F8043C82FA4CF582EA0305A5FA8CF5E3
:10034000002DE8D02DBAB5FA85F424F0070423FA7D
:1003500004F122FA04F202F0FF0001F0FF01FDE8CF
:100360000445A0EB010070474FEAC40420F00300ED
:1003700050F8082B21F0030151F8083B0CFA04F463
:1003800062EA040263EA0403C9E710F003041AD026
:10039000A1EB040120F00300E40750F8042B06D081
:1003A0000FD28B785FFAA2F4E41A06D12BB1CB7886
:1003B0005FFAB2F4E41A00D11BB920465DF8104B85
:1003C000704701F1040150F8042BCC0721F0030120
:1003D00051F8043B48D824D222F07F4482FA4CF5ED
:1003E00094EA1325A5FA8CF50AD165B951F8043BB6
:1003F00084EA0204B4EB036F0ED150F8042BEBE750
:100400004FEA132355E035F07F454DD10878FDE8DC
:100410000445C0F1000070474FEA126203F0FF0389
:1004200047E002EA1C4482FA4CF594EA1345A5FA27
:100430008CF50AD165B951F8043B84EA0204B4EBA7
:10044000034F0CD150F8042BEBE74FEA134330E095
:1004500015EA1C4528D10B884FEA124229E04FEAE1
:10046000124203EA1C4324E002F0FF0482FA4CF536
:1004700094EA1365A5FA8CF50AD165B951F8043BE5
:1004800084EA0204B4EB032F09D150F8042BEBE704
:100490004FEA13630DE015F0FF0F05D10B684FEA2B
:1004A000122223F07F4304E04FF00000FDE80445F2
:1004B000704712BA1BBA82FA4CF482EA0304A4FA17
:1004C0008CF5B5FA85F402FA04F203FA04F34FEA64
:1004D0001260FDE80445A0EB1360704700000000C7
:1004E00001F0FF01102A2BDB10F0070F08D010F8E5
:1004F000013B013A8B422DD010F0070F42B3F6D1E9
:10050000F0B441EA012141EA014122F007047FF001
:1005100000070023F0E80256083C85EA010586EA58
:10052000010685FA47F5A3FA87F586FA47F6A5FA94
:1005300087F68EB9EED1F0BC01F0FF0102F00702A0
:1005400032B110F8013B013A83EA010313B1F8D14B
:100550000020704701387047002D06BF354603382C
:10056000073815F0010F07D1013015F4807F02BF65
:10057000013015F4C03F0130F0BC0138704700BFB6
:10058000844641EA000313F003036DD1403A41D39E
:1005900051F8043B40F8043B51F8043B40F8043B5D
:1005A00051F8043B40F8043B51F8043B40F8043B4D
:1005B00051F8043B40F8043B51F8043B40F8043B3D
:1005C00051F8043B40F8043B51F8043B40F8043B2D
:1005D00051F8043B40F8043B51F8043B40F8043B1D
:1005E00051F8043B40F8043B51F8043B40F8043B0D
:1005F00051F8043B40F8043B51F8043B40F8043BFD
:1006000051F8043B40F8043B51F8043B40F8043BEC
:10061000403ABDD2303211D351F8043B40F8043B8C
:1006200051F8043B40F8043B51F8043B40F8043BCC
:1006300051F8043B40F8043B103AEDD20C3205D39C
:1006400051F8043B40F8043B043AF9D2043208D094
:10065000D2071CBF11F8013B00F8013B01D30B8806
:1006600003806046704700BF082A13D38B078DD0E4
:1006700010F003038AD0C3F10403D21ADB071CBFB6
:1006800011F8013B00F8013B80D331F8023B20F820
:10069000023B7BE7043AD9D3013A11F8013B00F859
:1006A000013BF9D20B7803704B7843708B788370E1
:1006B00060467047000000000000000000000000DD
:1006C00090F800F06DE9024520F007016FF0000C92
:1006D00010F0070491F820F040F049804FF000043A
:1006E0006FF00700D1E9002391F840F000F1080015
:1006F00082FA4CF2A4FA8CF283FA4CF3A2FA8CF34D
:100700004BBBD1E9022382FA4CF200F10800A4FAB3
:100710008CF283FA4CF3A2FA8CF3E3B9D1E9042307
:1007200082FA4CF200F10800A4FA8CF283FA4CF33E
:10073000A2FA8CF37BB9D1E9062301F1200182FAF8
:100740004CF200F10800A4FA8CF283FA4CF3A2FAFE
:100750008CF3002BC6D0002A04BF04301A4612BA0C
:10076000B2FA82F2FDE8024500EBD2007047D1E90F
:10077000002304F00305C4F100004FEAC50514F09E
:10078000040F91F840F00CFA05F562EA05021CBF6F
:1007900063EA050362464FF00004A9E781F00041D7
:1007A00002E000BF83F0004330B54FEA41044FEA56
:1007B000430594EA050F08BF90EA020F1FBF54EAF1
:1007C000000C55EA020C7FEA645C7FEA655C00F08D
:1007D000E2804FEA5454D4EB5555B8BF6D420CDD5E
:1007E0002C4480EA020281EA030382EA000083EAE1
:1007F000010180EA020281EA0303362D88BF30BD81
:1008000011F0004F4FEA01314FF4801C4CEA1131D6
:1008100002D0404261EB410113F0004F4FEA033335
:100820004CEA133302D0524263EB430394EA050FC0
:1008300000F0A780A4F10104D5F1200E0DDB02FA2F
:100840000EFC22FA05F2801841F1000103FA0EF2C3
:10085000801843FA05F359410EE0A5F120050EF189
:10086000200E012A03FA0EFC28BF4CF0020C43FABA
:1008700005F3C01851EBE37101F0004507D54FF0C7
:10088000000EDCF1000C7EEB00006EEB0101B1F517
:10089000801F1BD3B1F5001F0CD349085FEA30005D
:1008A0004FEA3C0C04F101044FEA445212F5800F68
:1008B00080F09A80BCF1004F08BF5FEA500C50F105
:1008C000000041EB045141EA050130BD5FEA4C0CE8
:1008D000404141EB0101013C28BFB1F5801FE9D245
:1008E00091F0000F04BF01460020B1FA81F308BF68
:1008F0002033A3F10B03B3F120020CDA0C3208DD34
:1009000002F1140CC2F10C0201FA0CF021FA02F10E
:100910000CE002F11402D8BFC2F1200C01FA02F17E
:1009200020FA0CFCDCBF41EA0C019040E41AA2BFA3
:1009300001EB0451294330BD6FEA04041F3C1CDA6B
:100940000C340EDC04F11404C4F1200220FA04F08B
:1009500001FA02F340EA030021FA04F345EA030135
:1009600030BDC4F10C04C4F1200220FA02F001FAF7
:1009700004F340EA0300294630BD21FA04F0294679
:1009800030BD94F0000F83F4801306BF81F4801112
:100990000134013D4EE77FEA645C18BF7FEA655C85
:1009A00029D094EA050F08BF90EA020F05D054EA57
:1009B000000C04BF1946104630BD91EA030F1EBF5C
:1009C0000021002030BD5FEA545C05D14000494160
:1009D00028BF41F0004130BD14F580043CBF01F553
:1009E000801130BD01F0004545F0FE4141F4700139
:1009F0004FF0000030BD7FEA645C1ABF1946104614
:100A00007FEA655C1CBF0B46024650EA013406BF14
:100A100052EA033591EA030F41F4002130BD00BFD3
:100A200090F0000F04BF0021704730B54FF4806490
:100A300004F132044FF000054FF0000150E700BF11
:100A400090F0000F04BF0021704730B54FF4806470
:100A500004F1320410F0004548BF40424FF000015D
:100A60003EE700BF42004FEAE2014FEA31014FEAA0
:100A700002701FBF12F07F4393F07F4F81F06051EF
:100A8000704732F07F4208BF704793F07F4F04BF3A
:100A900041F40021704730B54FF4607401F0004517
:100AA00021F000411CE700BF50EA010208BF704777
:100AB00030B54FF000050AE050EA010208BF704768
:100AC00030B511F0004502D5404261EB41014FF4D1
:100AD000806404F132045FEA915C3FF4D8AE4FF0D9
:100AE00003025FEADC0C18BF03325FEADC0C18BFBC
:100AF000033202EBDC02C2F1200300FA03FC20FA0D
:100B000002F001FA03FE40EA0E0021FA02F1144459
:100B1000BDE600BF70B54FF0FF0C4CF4E06C1CEA72
:100B200011541DBF1CEA135594EA0C0F95EA0C0FE3
:100B300000F0DEF82C4481EA030621EA4C5123EA56
:100B40004C5350EA013518BF52EA033541F4801185
:100B500043F4801338D0A0FB02CE4FF00005E1FB38
:100B600002E506F00042E0FB03E54FF00006E1FB82
:100B700003569CF0000F18BF4EF0010EA4F1FF04C5
:100B8000B6F5007F64F5407404D25FEA4E0E6D4105
:100B900046EB060642EAC62141EA55514FEAC52016
:100BA00040EA5E504FEACE2EB4F1FD0C88BFBCF592
:100BB000E06F1ED8BEF1004F08BF5FEA500E50F143
:100BC000000041EB045170BD06F0004646EA010109
:100BD00040EA020081EA0301B4EB5C04C2BFD4EB3B
:100BE0000C0541EA045170BD41F480114FF0000E34
:100BF000013C00F3AB8014F1360FDEBF002001F0A2
:100C0000004170BDC4F10004203C35DA0C341BDC1B
:100C100004F11404C4F1200500FA05F320FA04F0ED
:100C200001FA05F240EA020001F0004221F0004121
:100C300010EBD37021FA04F642EB06015EEA430E94
:100C400008BF20EAD37070BDC4F10C04C4F12005C4
:100C500000FA04F320FA05F001FA04F240EA020077
:100C600001F0004110EBD37041F100015EEA430E48
:100C700008BF20EAD37070BDC4F1200500FA05F268
:100C80004EEA020E20FA04F301FA05F243EA0203E7
:100C900021FA04F001F0004121FA04F220EA0200F6
:100CA00000EBD3705EEA430E08BF20EAD37070BD3C
:100CB00094F0000F0FD101F00046400041EB01011C
:100CC00011F4801F08BF013CF7D041EA060195F0FE
:100CD000000F18BF704703F00046520043EB0303B8
:100CE00013F4801F08BF013DF7D043EA06037047A5
:100CF00094EA0C0F0CEA135518BF95EA0C0F0CD0B0
:100D000050EA410618BF52EA4306D1D181EA0301F5
:100D100001F000414FF0000070BD50EA410606BFEF
:100D20001046194652EA430619D094EA0C0F02D134
:100D300050EA013613D195EA0C0F05D152EA033679
:100D40001CBF104619460AD181EA030101F0004197
:100D500041F0FE4141F470014FF0000070BD41F0E0
:100D6000FE4141F4780170BD70B54FF0FF0C4CF4BA
:100D7000E06C1CEA11541DBF1CEA135594EA0C0FD9
:100D800095EA0C0F00F0A7F8A4EB050481EA030E26
:100D900052EA03354FEA013100F088804FEA03330D
:100DA0004FF0805545EA131343EA12634FEA0222DB
:100DB00045EA111545EA10654FEA00260EF000419C
:100DC0009D4208BF964244F1FD0404F5407402D2EE
:100DD0005B084FEA3202B61A65EB03055B084FEA7F
:100DE00032024FF480104FF4002CB6EB020E75EB7C
:100DF000030E22BFB61A754640EA0C005B084FEAA4
:100E00003202B6EB020E75EB030E22BFB61A754620
:100E100040EA5C005B084FEA3202B6EB020E75EB6B
:100E2000030E22BFB61A754640EA9C005B084FEAE3
:100E30003202B6EB020E75EB030E22BFB61A7546F0
:100E400040EADC0055EA060E18D04FEA051545EADF
:100E500016754FEA06164FEAC30343EA52734FEA88
:100E6000C2025FEA1C1CC0D111F4801F0BD141EA01
:100E700000014FF000004FF0004CB6E711F4801F66
:100E800004BF01430020B4F1FD0C88BFBCF5E06F46
:100E90003FF6AFAEB5EB030C04BFB6EB020C5FEA56
:100EA000500C50F1000041EB045170BD0EF0004EAB
:100EB0004EEA113114EB5C04C2BFD4EB0C0541EADD
:100EC000045170BD41F480114FF0000E013C90E6DA
:100ED00045EA060E8DE60CEA135594EA0C0F08BF9E
:100EE00095EA0C0F3FF43BAF94EA0C0F0AD150EA9D
:100EF00001347FF434AF95EA0C0F7FF425AF104630
:100F000019462CE795EA0C0F06D152EA03353FF457
:100F1000FDAE1046194622E750EA410618BF52EAD4
:100F200043067FF4C5AE50EA41047FF40DAF52EAA8
:100F300043057FF4EBAE12E74FF0FF3C06E000BF45
:100F40004FF0010C02E000BF4FF0010C4DF804CD52
:100F50004FEA410C7FEA6C5C4FEA430C18BF7FEA12
:100F60006C5C1BD001B050EA410C0CBF52EA430C40
:100F700091EA030F02BF90EA020F0020704710F1C0
:100F8000000F91EA030F58BF994208BF90422CBF4F
:100F9000D8176FEAE37040F0010070474FEA410C48
:100FA0007FEA6C5C02D150EA013C07D14FEA430C66
:100FB0007FEA6C5CD6D152EA033CD3D05DF8040BD7
:100FC000704700BF8446104662468C461946634609
:100FD00000E000BF01B5FFF7B7FF002848BF10F1E0
:100FE000000F01BD4DF808EDFFF7F4FF0CBF012025
:100FF00000205DF808FB00BF4DF808EDFFF7EAFFA1
:1010000034BF012000205DF808FB00BF4DF808ED5B
:10101000FFF7E0FF94BF012000205DF808FB00BF50
:101020004DF808EDFFF7CEFF94BF012000205DF8DA
:1010300008FB00BF4DF808EDFFF7C4FF34BF0120E7
:1010400000205DF808FB00BF4FEA410C7FEA6C5CB2
:1010500002D150EA013C0AD14FEA430C7FEA6C5CB2
:1010600002D152EA033C02D14FF0000070474FF02A
:10107000010070474FEA410212F5001215D211D556
:101080006FF47873B3EB625212D94FEAC12343F085
:10109000004343EA505311F0004F23FA02F018BF07
:1010A000404270474FF00000704750EA013005D1D0
:1010B00011F0004008BF6FF0004070474FF0000093
:1010C000704700BF53B94AB9002908BF00281CBFA8
:1010D0004FF0FF314FF0FF3001F0DEB8ADF1080CFA
:1010E0006DE904CE00F006F8DDF804E0DDE9022346
:1010F00004B070472DE9F047089D04468E46002B4A
:101100004DD18A42944669D9B2FA82F252B101FABB
:1011100002F3C2F1200120FA01F10CFA02FC41EACB
:10112000030E94404FEA1C48210CBEFBF8F61FFA50
:101130008CF708FB16E341EA034306FB07F19942EB
:101140000AD91CEB030306F1FF3080F01F8199429E
:1011500040F21C81023E63445B1AA4B2B3FBF8F078
:1011600008FB103344EA034400FB07F7A7420AD9FF
:101170001CEB040400F1FF3380F00A81A74240F227
:1011800007816444023840EA0640E41B00261DB192
:10119000D4400023C5E900433146BDE8F0878B42C7
:1011A00009D9002D00F0EF800026C5E90001304686
:1011B0003146BDE8F087B3FA83F6002E4AD18B4260
:1011C00002D3824200F2F980841A61EB030301200A
:1011D0009E46002DE0D0C5E9004EDDE702B9FFDEF6
:1011E000B2FA82F2002A40F09280A1EB0C014FEAA1
:1011F0001C471FFA8CFE0126200CB1FBF7F307FBFE
:10120000131140EA01410EFB03F0884208D91CEBA0
:10121000010103F1FF3802D2884200F2CB8043463D
:10122000091AA4B2B1FBF7F007FB101144EA01441C
:101230000EFB00FEA64508D91CEB040400F1FF31AB
:1012400002D2A64500F2BB800846A4EB0E0440EA99
:1012500003409CE7C6F12007B34022FA07FC4CEAA2
:10126000030C20FA07F401FA06F31C43F9404FEA95
:101270001C4900FA06F3B1FBF9F8200C1FFA8CFEAA
:1012800009FB181140EA014108FB0EF0884202FAFE
:1012900006F20BD91CEB010108F1FF3A80F08880BF
:1012A000884240F28580A8F102086144091AA4B27C
:1012B000B1FBF9F009FB101144EA014100FB0EFEFD
:1012C0008E4508D91CEB010100F1FF346CD28E452C
:1012D0006AD90238614440EA0840A0FB0294A1EBBD
:1012E0000E01A142C846A64656D353D05DB1B3EB1A
:1012F000080261EB0E0101FA07F722FA06F3F1404A
:101300001F43C5E9007100263146BDE8F087C2F1F0
:101310002003D8400CFA02FC21FA03F39140014368
:101320004FEA1C471FFA8CFEB3FBF7F007FB1036A1
:101330000B0C43EA064300FB0EF69E4204FA02F44D
:1013400008D91CEB030300F1FF382FD29E422DD9A0
:10135000023863449B1B89B2B3FBF7F607FB1633D5
:1013600041EA034106FB0EF38B4208D91CEB010155
:1013700006F1FF3816D28B4214D9023E6144C91AD5
:1013800046EA004638E72E46284605E70646E3E6E5
:101390001846F8E64B45A9D2B9EB020864EB0C0EEF
:1013A0000138A3E74646EAE7204694E74046D1E7FE
:1013B000D0467BE7023B614432E7304609E76444AC
:1013C000023842E703685A004CBF43F0004323F061
:1013D00000431844704700BF2DE9F84329B34F1E5E
:1013E000044615463E464FF0000808EB060101EBA7
:1013F000D171491004EBC1094846FFF7E3FF0346EA
:10140000C80008308F42204409D0AB4209D8FFF70A
:10141000D9FF0138A8420AD201F10108E5E7AB4241
:1014200005D9884501D04E1EDFE74FF00009484638
:10143000BDE8F883012807D0022807D0044B002814
:101440000CBF18460020704702487047024870479A
:101450000D1B0008111B0008151B000830B5234B9D
:1014600083B004468D1E3BB301A92846AFF300802C
:10147000E8B101992A46FFF7AFFF0146B8B1FFF77F
:10148000A1FF4B68A064012B2CD0002B01F10400BC
:1014900024DBFFF797FF0023C4E913030368002B45
:1014A00011DBFFF78FFF2061002003B030BD002368
:1014B0000920236103B030BD0D4B0E49C91AC91074
:1014C00018460191D6E7C3F30360FFF7B3FF002886
:1014D000206114BF0020092003B030BD0123C4E9FE
:1014E0001303DBE7002323610520DEE70000000093
:1014F000E00F0108A81001080368DA0710B50446D8
:1015000006D49B0700F1480009D500F05BFC236876
:10151000590709D51A070ED5DB0613D510BD00F003
:1015200049FC23685907F5D404F1D00000F052FCBF
:1015300023681A07F0D404F5A87000F053FC236860
:10154000DB06EBD404F5E870BDE8104000F08EBC7B
:10155000092070470346006800B11844704700BF77
:10156000704700BF70B504460E46316C2046FFF749
:1015700075FF054688B9326C62612369324621469F
:10158000012098470828F0D0072806D12846316C5A
:10159000FFF7E6FF301D00F001FC0AF095FE00BFEA
:1015A0002DE9F0470D1DD0F80C80D0F818900746B3
:1015B00014460FCDADF5727D0DF10C0CACE80F00AB
:1015C0000FCDACE80F000FCDACE80F0095E80F0091
:1015D00002AE4FF0000E8CE80F00C6F800E020E0ED
:1015E000336C7B614FF4F07231467AA8FEF7C8FF86
:1015F0003B697AAA394650469847889B73642146CE
:10160000CDE9006905463B463A460120C0470446FD
:10161000E0B94FF4F0727AA93046FEF7B1FF082D19
:101620001AD1316C3846FFF719FF09345FFA84FA92
:1016300005460028D4D0B36B73643A46CDE90069FF
:101640003B464AF010010120C04700B10925284659
:101650000DF5727DBDE8F087072DF7D12046316C7E
:10166000FFF77EFF03A800F099FB00BF406C7047B6
:10167000F0B5CB6B0B6401F1040C0E460546BCE8DB
:101680000F00F9B001AC0FC4BCE80F000FC4BCE8F8
:101690000F000FC49CE80F004FF0FF3784E80F00E5
:1016A000009706E02B696A462946984708280446B1
:1016B00008D110992846FFF7D1FE0028F2D0092062
:1016C00079B0F0BD6846FFF717FF062CF7D1314619
:1016D0002846FFF747FF00BFC160D96B82611964DC
:1016E000002219465CE700BF70B5C66843690B6409
:1016F000AEB903690A4604460D46014602209847E2
:10170000072805D008280FD129462046FFF72AFFD1
:101710003046296CFFF724FF281D00F03FFB012213
:10172000FFF73EFF0AF0D0FD0AF0CEFDC2681AB105
:10173000CA6B0A64002233E79AE700BF704700BF14
:10174000836801460BB1012018477047012912D068
:1017500009D873B90F2A0CD800EB820218465368D7
:10176000009A136070470339012994BF01200220B9
:101770007047022070470846704700BF00B585B02B
:101780000A46002303A900911946FFF7DFFF0398DB
:1017900005B05DF804FB00BF012912D009D873B968
:1017A0000F2A0CD800EB8200009A1268426018469B
:1017B00070470339012994BF01200220704702209D
:1017C00070470846704700BF10B584B0002303ACD3
:1017D000039200940A461946FFF7DEFF04B010BDDD
:1017E00070B5D36B136402F1040C05460C46BCE8DB
:1017F0000F00ADF50E7D0DF15C0EAEE80F00BCE8FC
:101800000F00AEE80F00BCE80F00AEE80F009CE848
:101810000F004FF0FF368EE80F00169610E0FFF72E
:10182000D3FF214616A8A847034616AA69460820F2
:1018300083B9049B9847052806460CD0092809D08F
:1018400026996846FFF70AFE03466A460C2116A849
:10185000002BE4D0092616A8FFF74EFE30460DF502
:101860000E7D70BD2DE9F04FCC6C89B01E4654F84A
:10187000043B06940D46174600F00308002E79D06D
:101880001A0C1B0405938DF81D200223D2B204EB21
:1018900082048DF81C302B6DB8F1020F08BFAC6BC1
:1018A00013F001030CD005A9384600F079FB18B9F4
:1018B000082009B0BDE8F08F092009B0BDE8F08F1D
:1018C000D4F800A0BAF1000FEDD0019300F00803A6
:1018D0000293022E4AD0B4F800A0B4F80290043467
:1018E000AB6C29F0010B0F2138469B44FFF746FFF4
:1018F000834539D82AF001039B44834594BF0020D7
:1019000001204FEA490303F002030AF0010A43EA07
:101910000A03012B49D0022B32D0002BCCD1B8F1D5
:10192000000F02D0002840F0CD800434D4F800A08D
:10193000BAF1000FCDD105A9384600F031FB0028DF
:10194000BAD1019B002BB3D00F213846FFF716FF09
:101950000E2102463846FFF737FF38466A4A0F2104
:10196000FFF732FF0720A8E70020CAE7D4F8049069
:101970000834B5E71B0205930323ADF81C308AE752
:10198000236823F0004BB8F1000F45D128B1029A2B
:10199000002A5CD0BBF1000F74D0002B00DA0434B5
:1019A0000BF1010B04EB8B04C0E7B8F1000F19D168
:1019B000B0B163682268991C4FEAD2723FF47CAFE1
:1019C00005F158010133049100F09080201DFFF7CC
:1019D000C1FD04AB01462846AFF3008000285BD16F
:1019E0000834A3E70D213846D5F82090FFF7C6FE4E
:1019F0008145F5D1AB6A9C42F2D12046FFF7E2FC6B
:101A00000F2102463846FFF7DFFE38462A460021FE
:101A1000FFF7DAFE072050E70D213846D5F8209071
:101A2000FFF7ACFE814501D02368B6E7AB6A9C4264
:101A3000FAD104230022C5E90B23E318C5F828B026
:101A40006B632368002B59DB01230193A8E705F1A1
:101A50005803CDF80C8004F1040AB04691461E46A6
:101A60000EE050460496FFF775FD0022014604ABD8
:101A7000284609F101090AF1040AAFF30080E0B930
:101A8000D945EED10D213846FFF778FE049BAC62B4
:101A9000C5E90803062010E781460D213846FFF707
:101AA0006DFEB9F1020F286225D12B46049A43F846
:101AB0002C2F6B62AC620620FFE646462368DDF8F9
:101AC0000C806AE72046FFF77DFC04340246AC63D5
:101AD00028461446AFF3008000283FF4EDAE3846A8
:101AE00022460F21FFF770FE0720E6E60D2138465B
:101AF000FFF744FE2862049B6B62DBE70BF10100F9
:101B000004EB80007AE700BF000000000023A9E694
:101B10000123A7E60223A5E62DE9F0430646C3B05C
:101B200015461C46042900F2BF80DFE801F09E57ED
:101B3000BD2D0300002C40F0B780102A00F2B480C5
:101B40000368D80600F1F98020AF384600F098F914
:101B5000B46B394600234FF0010C0CFA03F22A4211
:101B6000204603F1010303D050F8042B0A60044619
:101B7000042B01F10401F0D13846B46300F076F98A
:101B8000002043B0BDE8F083032C40F08D8094B278
:101B900004EB1243102B4FEA124500F285800368D4
:101BA0001F0700F1D28020AF384600F03DF9B26B3C
:101BB00007EBC50154B10B46D01A01EBC401E40098
:101BC0001D5843F8045B8B42FAD122443846B26375
:101BD00000F008F9002043B0BDE8F083012C4FEA83
:101BE000124895B25CD0052C5ED108EB0509B9F11D
:101BF000200F59D8B8F10F0F79D9A946002D40F020
:101C00008A80B36B6DB320AF4FF0000907EBC807B4
:101C1000043F03EBC50553F8041B47F8041FAB4210
:101C2000F9D1B9F1000F0FD06F464146102938BFE6
:101C3000102107EBC101843903EBC90553F8040BEC
:101C400041F8040FAB42F9D1012C00F08680B8F1C5
:101C50000F0FB56347D9B9F1000F02D0684600F005
:101C6000B9F8002043B0BDE8F083ECB9806B23469F
:101C70001FFA82FC0124371D04FA03F212EA0C0F4A
:101C8000014604D051F8042B47F8232008460133BD
:101C9000102BF1D115F40055E3D1B063284604E0D0
:101CA00008EB0503102B03D9022043B0BDE8F083F5
:101CB000B8F10F0FF8D83368DA0706D5304623F0AD
:101CC000030340F8483B00F079F820AF384600F0B5
:101CD00075F8B36B002D97D11D460435B5633846B2
:101CE00000F068F8BDE720A800F06CF8B3E7B9F1A0
:101CF000100F40D9A9F110093368D90708D523F08E
:101D00000103304643F0020340F8483B00F05EF820
:101D1000B9F1000F32D033685A0720D4B8F10F0F51
:101D200025D96F463846C8F1100500F057F8002D48
:101D3000B36B7FF77AAF20AF68E723F0100333600F
:101D400006F5E87000F09CF8FEE623F00803036057
:101D500000F5A87000F068F825E720AFBDE7304631
:101D600023F0040340F8D03B00F038F8D6E720A871
:101D700000F02CF8D5E74FF00009BDE7B8F10F0FE0
:101D80003FF63FAF20AF384600F020F8B36B002D90
:101D90007FF43AAF384600F015F862E700F13401FD
:101DA00091E838009C46A6464CF8045D90E8FF0F89
:101DB000E54600BD90EC210B704700BF80EC210B85
:101DC000704700BF90EC200B704700BF80EC200BE9
:101DD000704700BFD0EC200B704700BFC0EC200B59
:101DE000704700BFF0EC0201F0EC0211F0EC0221B0
:101DF000F0EC0231F0EC0241F0EC0251F0EC026147
:101E0000F0EC0271F0EC0281F0EC0291F0EC02A136
:101E1000F0EC02B1F0EC02C1F0EC02D1F0EC02E126
:101E2000F0EC02F1704700BFE0EC0201E0EC0211BF
:101E3000E0EC0221E0EC0231E0EC0241E0EC025186
:101E4000E0EC0261E0EC0271E0EC0281E0EC029176
:101E5000E0EC02A1E0EC02B1E0EC02C1E0EC02D166
:101E6000E0EC02E1E0EC02F1704700BFB0FC018160
:101E7000B0FC0191B0FC01A1B0FC01B1704700BF02
:101E8000A0FC0181A0FC0191A0FC01A1A0FC01B17A
:101E9000704700BFEC4600B52DE900502DE9FF1F4B
:101EA0004FF000032DE90C0001A9FFF7E1FBDDF87D
:101EB00040E012B0704700BFEC4600B52DE900507D
:101EC0002DE9FF1F4FF000032DE90C0001A9FFF7DA
:101ED0000BFCDDF840E012B0704700BFEC4600B5E7
:101EE0002DE900502DE9FF1F4FF000032DE90C00F4
:101EF00001A9FFF71BFCDDF840E012B0704700BFFE
:101F0000EC4600B52DE900502DE9FF1F4FF000030E
:101F10002DE90C0001ABFFF7DFFBDDF840E012B06C
:101F2000704700BFEC4600B52DE900502DE9FF1FBA
:101F30004FF000032DE90C0001AAFFF751FCDDF87A
:101F400040E012B0704700BF027A03467AB9427A85
:101F5000A2B14168013A10B44272086803220C1D14
:101F60001A7202025C60000E10BC1A6070470068B2
:101F7000013A1A7202021A60000E7047B0207047D0
:101F800000B585B0002303AA009219460C22FFF782
:101F9000DDFB039805B05DF804FB00BFF0E700BF70
:101FA0002DE9F043054685B00E464FF00008304657
:101FB000FFF7CAFFB028044600F0BA80070620D514
:101FC00000F0F003802B4DD0902B36D0A02B60D0AA
:101FD000B02B74D0C02B00F08B8000F0F803D02B16
:101FE0000BD100F007020132052342F40022012147
:101FF0002846FFF791FD0028D9D0092005B0BDE89B
:10200000F0838300DBB21F1D0DF10C09002319467C
:10201000CDF800900D222846FFF798FB039BCDF8E2
:10202000009060064CBFDF1BFF1800230D221946ED
:1020300028460397FFF7B0FBB9E700F00D030D2B1F
:10204000DBD003AF002300F00F02194600972846AB
:10205000FFF77CFB002300970D2219462846FFF767
:102060009BFBA4E73046FFF76FFF24022043B0F547
:10207000004FC2D004010023A2B219462846FFF740
:102080004BFD0028B9D114F4004F18BF4FF00108E0
:102090008DE7C24302F007034FF47F621A41010744
:1020A00002F47F624FF0000348BF42F480421946B9
:1020B0002846FFF731FD00283FF479AF9DE7B128AE
:1020C0003BD0B22800F09380B32841D000F0FC034D
:1020D000B42B92D000F007020132012342F4002217
:1020E00019462846FFF718FD00283FF460AF84E743
:1020F000C6284AD0C72854D000F0F803C02B63D0BC
:10210000C82868D0C9287FF478AF3046FFF71CFF95
:10211000020300F00F0002F470220130024301219B
:1021200005232846FFF7F8FC00283FF440AF64E79A
:10213000B8F1000F18D0002060E73046FFF704FF29
:10214000024600283FF459AF10F0F003C8D054E71E
:102150003046FFF7F9FE020300F00F03013302F4EB
:1021600070221A430123BBE703AC43460E224146CB
:1021700000942846FFF7EAFA009443460F224146AE
:102180002846FFF709FB404638E73046FFF7DCFEFC
:10219000020300F00F03013302F470221A430323F9
:1021A0009EE73046FFF7D0FE024600283FF425AFF9
:1021B00010F0F0037FF421AF04212846FFF7ACFCB8
:1021C00000283FF4F4AE18E700F00F0201320323B9
:1021D00042F4202284E73046FFF7B6FE00F0F0021A
:1021E00000F00F031032013343EA023297E7002375
:1021F0000DF10C090D221946CDF800902846FFF785
:10220000A5FA3046FFF7A0FE02064FF002040CD5F7
:10221000039B00F07F00A040184403903046FFF776
:1022200093FE030604F10704F2D4039BCDF800905B
:1022300000F07F02A24003F501731A4400230392C9
:1022400019460D222846FFF7A7FAB0E610B5C26C72
:10225000536884B04FF0030C08321C0208461B0E72
:1022600001A9019402928DF80CC08DF80D30FFF792
:1022700097FE04B010BD00BF08B5FFF78FFE806C5D
:1022800008BD00BF08B5FFF789FEC06CC3790233F3
:1022900000EB830008BD00BF704700BF08B502F027
:1022A00024F9FEE710B584B003781BB1012B15D0DB
:1022B00004B010BD134C2368023323600393124B08
:1022C00002930020019020230093F022402100F08F
:1022D00063FE21680D4802F073FAE9E7094C2368B0
:1022E000013B23600393084B0293002001902023BD
:1022F0000093F022402100F04FFE2168034802F0D5
:102300005FFAD5E72C0A002010C4000818C40008A2
:1023100082B0002301930093344A136843F480335E
:102320001360324B1B6803F400330093019B0133AD
:102330000193009B1BB9019BB3F5A04FF1D12B4B2F
:102340001B6813F4003F06D001230093009B012B70
:1023500004D002B0704700230093F7E7234B1A6CB8
:1023600042F080521A6422490A6842F440420A60EC
:102370009A689A609A6842F400429A609A6842F4B5
:10238000A0529A601B4A5A601A6842F080721A6022
:10239000164B1B6813F0007FFAD0154A136843F4FC
:1023A00080331360124B5B6813F4803FFAD0104AFD
:1023B000136843F4003313600D4B5B6813F4003F64
:1023C000FAD00D4B40F205721A60A3F580639A684B
:1023D00022F003029A609A6842F002029A60034B6C
:1023E0009B6803F00C03082BF9D1B2E700380240D8
:1023F00000700040195A4007003C024010B5104CD4
:10240000D4F8883043F47003C4F888300D4B1A6850
:1024100042F001021A60002199601A6822F0847269
:1024200022F480321A60084A5A601A6822F4802224
:102430001A60D960FFF76CFF4FF00063A36010BD16
:1024400000ED00E00038024010300024C378FBB1FA
:10245000154BDB68DB43C3F30222C2F10401C9B2AE
:102460000F23134142788A40D2B281780B40134344
:102470001B01DBB202780D490A4482F8003303786D
:1024800003F01F005B090122824041F823207047BE
:10249000037803F01F015B0901228A4020330349BE
:1024A00041F82320704700BF00ED00E000E100E0AC
:1024B0008379002B36D010B4204B1A68016822EAC9
:1024C00001021A605A68016822EA01025A60027920
:1024D00002F1804202F59E321168046821431160C6
:1024E0009A68016822EA01029A60DA68016822EAC1
:1024F0000102DA604379102B0AD003F1804303F51F
:102500009E331A6801680A431A605DF8044B7047ED
:102510000A4B9A6801680A439A60DA6801680A43BC
:10252000DA60F2E7037903F1804303F59E331A681A
:10253000016822EA01021A60704700BF003C0140B6
:10254000034B5B69034201D00120704700207047B4
:10255000003C0140014B5861704700BF003C014006
:1025600000230F2B4ED830B516E0C2681FFA83FE49
:102570004FEA4E044FF0030E0EFA04FE22EA0E025A
:10258000C260C26891F807E00EFA0CFC42EA0C0245
:10259000C26001330F2B34D801229A400C68A24349
:1025A000F7D104684FEA430C032202FA0CF26FEAF7
:1025B000020E24EA0202026002680C7904FA0CF4AA
:1025C000224302600A79013AD2B2012ACDD8826848
:1025D0000EEA0202826082684C7904FA0CF422430B
:1025E000826044689DB24FF0010E0EFA05FE24EAA7
:1025F0000E04446044688A79AA4092B22243426041
:10260000B3E730BD704700B501F007039B0002FA45
:1026100003FCC908083150F821204FF00F0E0EFAC4
:1026200003F322EA030340F8213050F8212042EA64
:102630000C0240F821205DF804FB000010B4294B87
:102640009B6803F00C03042B23D0082B24D013B178
:10265000254B036001E0244B0360224CA368C3F3C5
:1026600003132249CB5CDAB20368D3404360A2680B
:10267000C2F382228A5CD2B223FA02F28260A2689A
:10268000C2F342328A5CD2B2D340C3605DF8044BDD
:102690007047174B0360E0E7124B59685A6802F025
:1026A0003F0211F4800F12D0114BB3FBF2F30D4A2D
:1026B0005268C2F3881202FB03F30A4A5268C2F35B
:1026C000014201325200B3FBF2F30360C5E7064B4F
:1026D000B3FBF2F3034A5268C2F3881202FB03F31E
:1026E000EBE700BF003802400024F40000000020A7
:1026F00040787D0121B1054A136B18431063704780
:10270000024A136B23EA000010637047003802404E
:1027100021B1054A136C184310647047024A136CC8
:1027200023EA0000106470470038024021B1054AD6
:10273000536C184350647047024A536C23EA0000FC
:10274000506470470038024010B401F00302920058
:102750000F2404FA02FC8908084B023153F8214087
:1027600024EA0C0443F8214053F8214090400443EC
:1027700043F821405DF8044B704700BF003801402A
:1027800030B585B004460D46038A9BB223F440530E
:10279000CA881343038283899BB223F4B05323F086
:1027A0000C03898828896A8901430A431343A3815A
:1027B000A38A9BB223F44073AA891343A382684679
:1027C000FFF73CFF1F4B9C4205D003F580639C4202
:1027D00001D0029B00E0039BA28912F4004F1FD19D
:1027E00003EB830303EB83032A689200B3FBF2F34A
:1027F000154AA2FB031252091101642002FB103397
:10280000A28912F4004F14D11B0132330E4AA2FBED
:102810000323C3F343130B439BB2238105B030BDA5
:1028200003EB830303EB83032A685200B3FBF2F349
:10283000DEE7DB003233044AA2FB0323C3F3421377
:102840000B43E9E7001001401F85EB5129B1838953
:102850009BB243F400538381704783899BB223F476
:1028600000539BB2838170478088C0F30800704793
:10287000C1F3421C01F01F01012303FA01F19C4541
:1028800008D0BCF1020F07D014303AB103681943E5
:10289000016070470C30F8E71030F6E7036823EA70
:1028A000010101607047C1F3421201F01F0C0123C6
:1028B00003FA0CF3012A0FD0022A11D0828A92B2B5
:1028C0001340090A012202FA01F1028892B20A4079
:1028D00053B15AB900207047828992B21340F0E791
:1028E000028A92B21340ECE7002070470120704743
:1028F000090A01238B409BB2DB439BB203807047E4
:102900004FF0E022136923F004031361C008054B64
:102910001870C0EB401300EB8300C000024B18801E
:10292000704700BF320A0020300A00200E4B1B788F
:1029300003FB00F04FF0E023586100229A611A690E
:1029400042F001021A614FF0E0231B6903F001130A
:10295000012BF8D04FF0E0231A6922F001021A612E
:1029600000229A61704700BF320A00200E4B1B887C
:1029700003FB00F04FF0E023586100229A611A69CE
:1029800042F001021A614FF0E0231B6903F00113CA
:10299000012BF8D04FF0E0231A6922F001021A61EE
:1029A00000229A61704700BF300A002038B50C4CF5
:1029B000A4FB0034650A2C464FF4077303FB150093
:1029C00085B205E04FF40770FFF7D0FF013CE4B299
:1029D000002CF7D105B938BD2846FFF7C7FFFAE745
:1029E00049D6B9F22DE9F043DDF81C80089F4FF07D
:1029F000000C0AE0C5682E40C660C56807FA04FEF0
:102A000045EA0E05C5600CF1010CBCF10F0F2DD885
:102A10004FF0010E0EFA0CFE3EEA0104F3D1D0F89D
:102A200000904FEA4C040325A540EE4329EA050532
:102A30000560056802FA04F945EA09050560551EB6
:102A4000012DD7D8856835408560856808FA04F976
:102A500045EA09058560456825EA0E054560456833
:102A600003FA0CFE45EA0E054560C3E7BDE8F083B6
:102A700012F0010F03D083691943816170478369A4
:102A800043EA0141816170470369194201D0012085
:102A9000704700207047000010464FF0000C94452E
:102AA00010DA00B5084B1B8813F0400FFAD011F86C
:102AB0000CE0054BA3F804E00CF1010C8445F1DBBC
:102AC0005DF804FB704700BF00100140F0B587B00F
:102AD000064601210846FFF70DFE01211020FFF7F1
:102AE00025FE1E4F072209213846FFF78CFD0722DD
:102AF0000A213846FFF787FD4FF4C0630493022391
:102B00008DF814308DF8153000248DF8164001250D
:102B10008DF8175004A93846FFF722FD0096ADF84E
:102B20000440ADF80640ADF80840ADF80C400C2369
:102B3000ADF80A3004F1804404F588346946204633
:102B4000FFF71EFE2A4640F225512046FFF790FE71
:102B500029462046FFF77AFE07B0F0BD000002408C
:102B60002DE9F04186B0064601210846FFF7C2FD77
:102B700001214FF40030FFF7CBFD1D4F072202214A
:102B80003846FFF740FD072203213846FFF73BFD9B
:102B90004FF00C08CDF8108002238DF814308DF81A
:102BA000153000248DF8164001258DF8175004A922
:102BB0003846FFF7D5FC0096ADF80440ADF8064066
:102BC000ADF80840ADF80C40ADF80A80094C6946F4
:102BD0002046FFF7D5FD2A4640F225512046FFF753
:102BE00047FE29462046FFF731FE06B0BDE8F081DA
:102BF0000000024000440040184B1B8813F0200FD7
:102C000026D0164B9B88DBB215490A88B1F9001013
:102C100000291DDB12F4804F0CD00A2B03D0104B7F
:102C200000221A8070476FEA42426FEA52420C4B10
:102C30001A8070470D2B0CD0C2F30D010948435484
:102C4000013292B2064B1A80C72A01D900221A809B
:102C5000704742F48042024B1A80704700100140D6
:102C6000FC0A0020340A002010B540F22551154816
:102C7000FFF719FE012800D010BD124C40F225517B
:102C80002046FFF735FE2046FFF7EEFD01460128FE
:102C900010D00D4B1B68002BEED002290ED00B4A32
:102CA0001378581C10700A4A22F81310094801F0D2
:102CB00087FDE1E7044B01221A60EAE7024B00229C
:102CC0001A60D9E7004400402C0B0020280B00209C
:102CD000000B002018C4000808B5044B1B6803B99A
:102CE00008BD034B1A6800F0E5F9F9E7400B002036
:102CF0001400002008B5074B9871074B1B6803B9F7
:102D000008BD00F0C3F9044AD18A024B1980128B26
:102D10005A80F5E7300B0020400B002008B5034B2C
:102D20001B6803B908BD00F04BFAFBE7400B00201D
:102D300008B500F047FB1A4B988070BB184B9B8876
:102D400049F2413293420BD045F21032934207D000
:102D500045F21052934203D041F66312934210D1D0
:102D6000104B5A6822F00F025A605A6822F47062BF
:102D70005A605A6842F004025A605A6842F480620B
:102D80005A600120FFF7B6FF074B0122C3F89422D7
:102D90004FF6FF70FFF7C2FF08BD00F061FBCDE703
:102DA000300B0020000100A0008040422DE9F04FD0
:102DB00083B08046A2EB000A8946A3EB010BBAF16F
:102DC000000F0DDD01220092BBF1000F14DD012385
:102DD0000193DA451CDD564600252F462C461BE0A4
:102DE000BAF1000F05D0A0EB020A4FF0FF320092BB
:102DF000EAE7CDF800A0E7E7BBF1000F05D0A1EBB3
:102E0000030B4FF0FF330193E3E7CDF804B0E0E7A5
:102E10005E46E1E70134A4B2731C9C4212DC1FFA47
:102E200089F11FFA88F0FFF757FF57445D44BE420F
:102E300002DABF1B009B9844AE42EBDAAD1B019B4C
:102E40009944E7E703B0BDE8F08FF8B506460F46B2
:102E50001C46024495B20B462A46FFF7A7FF3C44A6
:102E6000A4B22346324639463046FFF79FFF234639
:102E70002A4639462846FFF799FF23462A46214627
:102E80003046FFF793FFF8BD2DE9F04F83B082463F
:102E900088461F469DF830B013F0070318BF012382
:102EA00003EBD703790811FB03F3DBB20093203A5D
:102EB000D3B2019344464FF0000949E0019B03EB74
:102EC00043032E4A02EB830313F80950002623E044
:102ED0002B4B019A03EB021313F80950F6E7019B01
:102EE00003EBC303274A02EB830313F80950EDE712
:102EF000254B1A682146504600F0DCF86D00EDB213
:102F00000134A4B2214B5B88A34233D9A4EB08035C
:102F1000BB4210D00136F6B2072E15D815F0800F3F
:102F2000E6D1BBF1000FE9D1194B1A682146504692
:102F300000F0C0F8E2E70AF1010A1FFA8AFA134B1F
:102F40001B88534516D9444609F101095FFA89F9EE
:102F5000009B99450ED20C2FB0D0102FB8D0182F4F
:102F6000BDD0202F06D10B4B019A03EBC21313F8EF
:102F70000950ABE703B0BDE8F08F00BF20C40008E4
:102F800094C8000884CE000814000020300B0020F4
:102F900010000020E0DB00082DE9F04FC5B08246AC
:102FA0000D46914698469DF838719DF83CB151AA5E
:102FB0000392509904A803F021FAD1441FFA89F929
:102FC000A8441FFA88F8544604AE0CE0454517D2D1
:102FD000CDF800B03B4629462046FFF755FF04EBED
:102FE0005704A4B201363278A2F12003DBB25E2B83
:102FF00006D84C45EAD35FFA8AF43D44ADB2E5E722
:1030000045B0BDE8F08F0000012806D020B9064A7F
:10301000936923F0010393617047034A936943F076
:1030200001039361704700BF00680140012909D086
:1030300081B9D8B9104AD2F8843023F00103C2F81C
:10304000843007E060B90C4AD2F8843043F00103C1
:10305000C2F88430084A536A43F001035362704750
:10306000064A536843F001035360F3E7034A536889
:1030700023F001035360EDE700680140006901405F
:10308000014B1875704700BF400B0020084B587566
:1030900020B95A68DA821A681A837047012800D06A
:1030A0007047034B1A68DA825A681A83F8E700BF40
:1030B000400B002070B4104B5B7D6BB10E4C257D36
:1030C0000E4B53F82550E369246804FB010003FB11
:1030D00000F02A5270BC7047074B1D7D074C54F816
:1030E0002550DC691E685B68181A013800FB061160
:1030F00004FB01F16A52EDE7400B0020600B002059
:1031000070B5044694461A46294B5B7D002B43D08C
:1031100086461046264D2B68AEEB0C0213FA82F25F
:1031200092B2013A92B22E7D224C54F82640ED69BB
:1031300001FB03E303FB05441F4D2B6B43F400032A
:103140002B631E4B1D6825F001051D604FF44035B3
:103150001D6002255D631A64DC63421A0132ACEB28
:103160000E0C0CF1010C42EA0C425A64049A9A6368
:103170001A6842F001021A600023104A526812F0E5
:10318000020F03D10133B3F5001FF6D30B4A936846
:1031900043F00203936070BD8E46054B5868A0EB68
:1031A0000C0C0CF1FF319446001B0138B2E700BF54
:1031B000400B0020600B00200038024000B00240AD
:1031C00000B583B0074BDA8A1B8B013B013A0090B4
:1031D0009BB292B200210846FFF792FF03B05DF860
:1031E00004FB00BF400B002010B4224C236823F0E6
:1031F0008053236000231F4C246814F0005F06D026
:1032000041F6FE74A34202D801339BB2F3E741F6C4
:10321000FF74A34229D0090741EA80111548C0F87C
:103220008810D0F88C1021F44031C0F88C10D0F800
:103230008C1041EA0242C0F88C20026842F08052B1
:1032400002600C4A126812F0005F06D141F6FE726D
:10325000934202D801339BB2F3E741F6FF729342E7
:1032600005D000205DF8044B70470120FAE70220EA
:10327000F8E700BF00380240F8B5BDF81840002854
:103280003CD1CF18384DEE68C6F30B463744EE6894
:10329000C6F30B4C6144013141EA0741C5F888107F
:1032A0001619E968C1F30A010E44E968C1F30A017D
:1032B0000A44013242EA0642C5F88C20D5F894202F
:1032C00012F0070209D0012A16D0053AD2B2012A1B
:1032D00001D9022202E0012200E0042202FB03F3F2
:1032E000DA1C42EA0343204AC2F8B030C2F8B440C4
:1032F0000121FFF79BFEF8BD0322EFE7CE181A4D20
:10330000EF68C7F30B473E44EF68C7F30B473944F8
:10331000013141EA0641154EB1601119EF68C7F35A
:103320000A0C6144ED68C5F30A052A44013242EAF9
:103330000142F260726912F0070209D0012A11D02D
:10334000053AD2B2012A01D9022202E0012200E0AC
:10335000042202FB03F3DA1C42EA0343034A136329
:103360005463C5E70322F4E70068014000690140A7
:1033700010B59DF808E09DF80C409DF810C080B98C
:103380000E48C0F8AC10C0F89420C0F89830059BE7
:1033900043EA0E62C0F89C204CEA0424C0F8A04026
:1033A00010BD0748C16242618361059B43EA0E621A
:1033B000C2614CEA04240462F2E700BF00680140E5
:1033C0000069014030B583B0204A136B43F4A07309
:1033D00013630125019500240094234622464021D1
:1033E0001B4801F021F801950094234622468421D0
:1033F000184801F019F8184BD3F81832DBB2174A05
:10340000D2F8081243EA4103DBB2D2F81C2243EAA5
:10341000820313F0FF030DD0AB420ED0022B0FD06E
:10342000032B10D0042B02D0002003B030BD48F293
:103430001600FAE744F24230F7E747F28400F4E777
:1034400047F21600F1E747F21800EEE700380240B5
:1034500000180240002002400000434200004442A5
:103460002DE9F04784B08F4B5A6C42F080625A6469
:103470001A6B42F002021A631A6B42F4F0721A637A
:10348000012501950227009700232A46202186481E
:1034900000F0CAFFDFF834A201954FF00308CDF821
:1034A000008000233A464FF48061504600F0BCFF94
:1034B000DFF81C920195CDF8008000233A464FF4C6
:1034C0000C61484600F0B0FF784E0195CDF80080C1
:1034D00000233A464FF47E41304600F0A5FF744C7D
:1034E0000195CDF8008000233A4640F2F76120466E
:1034F00000F09AFF0E220A21504600F0DCFF0E2257
:103500000621484600F0D7FF0E220721484600F06A
:10351000D2FF0E220B21484600F0CDFF0E220921DA
:10352000304600F0C8FF0E220A21304600F0C3FFEB
:103530000E220B21304600F0BEFF0E220C21304639
:1035400000F0B9FF0E220D21304600F0B4FF0E222C
:103550001146304600F0AFFF0E220F21304600F03A
:10356000AAFF0E220021204600F0A5FF0E222946C8
:10357000204600F0A0FF0E223946204600F09BFFB7
:103580000E220421204600F096FF0E22052120463F
:1035900000F091FF0E220621204600F08CFF0E2243
:1035A0000721204600F087FF0E220921204600F067
:1035B00082FF0E220A21204600F07DFF3D4C4FF491
:1035C000806323604FF41673636014232381A4F88F
:1035D0000A808C22A281E381A02323820C236382B0
:1035E0002A4639464FF4B470FFF7FEFD32480026F4
:1035F00086616389013B2289013A43EA0243836081
:103600006389E189194401392289B4F80CC09444D2
:103610000CF1FF3C41EA0C41C160E1890B44616857
:103620000B44591EB4F80CC094442268624402F161
:10363000FF3C41EA0C410161618A0B44013B218A54
:103640000A44013A43EA02424261C6622846FFF751
:10365000DBFC1A491A4B1960E761039607230293B2
:10366000062301930096FF233A463046FFF780FE7B
:10367000A38800932388324631463046FFF7FCFD8D
:103680002268104B1A8062685A803046FFF7F8FCB7
:103690000D4BC3F894524FF0FF30FFF791FD04B08B
:1036A000BDE8F0870038024000040240001C0240E0
:1036B00000200240400B002000680140000000C0D4
:1036C000600B0020300B00200080404200140240BC
:1036D00000180240C0F1040C012000FA0CF0014374
:1036E00041EA421141EA4321074B19650023064A8A
:1036F000926D12F0200F05D00133B3F5001FF6D301
:103700000120704700207047000100A02DE9F0471C
:1037100082B0954B9A6B42F001029A631A6B42F0A9
:103720007C021A63DFF854A2012601960327009752
:10373000002302220D21504600F076FEDFF8409271
:1037400001960097002302224CF20371484600F0D4
:103750006BFE864D01960097002302224FF683717F
:10376000284600F061FE824C019600970023022259
:103770004FF63F01204600F057FEDFF80882019621
:1037800000970023022248F23711404600F04CFE19
:103790000C220021504600F08EFE0C2202215046E1
:1037A00000F089FE0C223946504600F084FE0C22BF
:1037B0000021484600F07FFE0C223146484600F0CA
:1037C0007AFE0C220821484600F075FE0C220921E1
:1037D000484600F070FE0C220A21484600F06BFEBD
:1037E0000C220E21484600F066FE0C220F214846AE
:1037F00000F061FE0C220021284600F05CFE0C2245
:103800003146284600F057FE0C220721284600F0DA
:1038100052FE0C220821284600F04DFE0C22092100
:10382000284600F048FE0C220A21284600F043FEFC
:103830000C220B21284600F03EFE0C2211462846A1
:1038400000F039FE0C220D21284600F034FE0C2237
:103850000E21284600F02FFE0C220F21284600F0F2
:103860002AFE0C220021204600F025FE0C223146C3
:10387000204600F020FE0C220221204600F01BFE14
:103880000C223946204600F016FE0C220421204668
:1038900000F011FE0C220521204600F00CFE0C2247
:1038A0000B21204600F007FE0C221146204600F0B6
:1038B00002FE0C220D21204600F0FDFD0C220E21FF
:1038C000204600F0F8FD0C220F21204600F0F3FD09
:1038D0000C220021404600F0EEFD0C22314640460D
:1038E00000F0E9FD0C220221404600F0E4FD0C222C
:1038F0000421404600F0DFFD0C220521404600F087
:10390000DAFD0C220821404600F0D5FD0C220F21E3
:10391000404600F0D0FD174C41F6D9132364164BF6
:10392000A36400231A4631461846FFF7D3FE4FF42E
:10393000FA70FEF7FBFF00231A4602211846FFF734
:10394000C9FE0023082239461846FFF7C3FE40F29D
:103950003323002204211046FFF7BCFE40F2B4538B
:10396000636502B0BDE8F0870038024000100240F5
:1039700000140240000100A061551101000802403E
:10398000000C02400018024008B50220FEF7CEFFEE
:1039900008BD000038B50E4D012208212846FFF76A
:1039A00067F80C4C012240212046FFF761F8FFF731
:1039B000EBFF002208212846FFF75AF8FFF7E4FF43
:1039C000002240212046FFF753F8FFF7DDFF38BD06
:1039D00000200240001C024010B50B4C00220821C0
:1039E0002046FFF745F8FFF7CFFF012240210748A7
:1039F000FFF73EF8FFF7C8FF012208212046FFF736
:103A000037F8FFF7C1FF10BD00200240001C024044
:103A100010B582B00E4B1A6B42F080021A631A6B1B
:103A200042F480721A6301240194009423462246D2
:103A300040210848FEF7D6FF019400942346224611
:103A400008210548FEF7CEFFFFF7C6FF02B010BD04
:103A500000380240001C02400020024038B501221C
:103A600008211348FFF704F8FFF78EFF01224021D9
:103A70001048FEF7FDFFFFF787FF002408210C48E0
:103A8000FFF702F8054648B10134E4B2FA2C02D837
:103A9000FFF77AFFF2E7FFF79FFF012500224021A1
:103AA0000448FEF7E5FFFFF76FFF284638BD00BF6B
:103AB00000200240001C024038B50F4C00220821B3
:103AC0002046FEF7D5FFFFF75FFF0C4D0122402196
:103AD0002846FEF7CDFFFFF757FF0022402128467A
:103AE000FEF7C6FFFFF750FF012208212046FEF730
:103AF000BFFFFFF749FF38BD00200240001C024015
:103B000010B5012208210A48FEF7B2FFFFF73CFF7B
:103B1000084C012240212046FEF7AAFFFFF734FFA0
:103B2000002240212046FEF7A3FFFFF72DFF10BD26
:103B300000200240001C024070B50446002517E03A
:103B4000E20908210E48FEF793FFFFF71DFF0D4E17
:103B5000012240213046FEF78BFFFFF715FF0022C0
:103B600040213046FEF784FF6400E4B20135EDB237
:103B7000072DE5D9012208210148FEF779FF70BD24
:103B800000200240001C024070B506460024254675
:103B900008E0002240211148FEF76AFFFFF7F4FE1B
:103BA0000135EDB2072D11D86400E4B201224021A5
:103BB0000A48FEF75DFFFFF7E7FE08210848FEF719
:103BC00063FF0028E5D00134E4B2E2E71EB9FFF755
:103BD00097FF204670BDFFF76FFFFAE7001C024019
:103BE00000200240F8B504460F461546FFF7D2FE06
:103BF0002820FFF7A1FFFFF731FF200AFFF79CFF06
:103C0000FFF72CFFE0B2FFF797FFFFF727FF002633
:103C1000344601E00134E4B2AC4207D2385DFFF72C
:103C20008BFFFFF71BFF06460028F3D0FFF7D4FEFB
:103C30003046F8BD70B504460E461546FFF7AAFE9D
:103C40002820FFF779FFFFF709FF200AFFF774FF2D
:103C5000FFF704FFE0B2FFF76FFFFFF7FFFEFFF78C
:103C600099FE2920FFF768FFFFF7F8FE002408E01F
:103C7000681E201A18BF0120FFF786FF3055013457
:103C8000E4B2AC42F4D3FFF7A7FE70BD10B584B028
:103C90008DF8070000238DF80B30A04B1A78013205
:103CA000D2B21A709E4BA3FB0213DB0803EB830313
:103CB000A2EB430313F0FF0F02D0092A00F20781A1
:103CC00001220DF1070148F24E10FFF7B3FF9DF8F6
:103CD00007309DF90720002A23DB9DF8070000F03C
:103CE0000F00002800F0F4808E4B1A78904200F20A
:103CF000FE804FF6FF7383408B498C8EDB436FEA67
:103D000083436FEA93438B868889D31C01EB43037B
:103D100098800B8C0F3221F8123000238DF80B3075
:103D200035E0804A127803F00F039A42D5D300237E
:103D30008DF80B3001220DF10B0148F24E10FFF708
:103D400051FFCAE7784B93F8443013F0010F5CD071
:103D5000764B19889DF80F209DF80E3003EB022357
:103D60009BB29DF80B20CB1A6F48111D00EB41014F
:103D70008B809DF80D109DF80C3003EB0123103261
:103D800020F812309DF80B3001338DF80B309DF880
:103D90000B00644B1B78984269D2634B9B8E0341A6
:103DA00013F0010FEED0042203A9614B33F8100089
:103DB000FFF740FF5D4B9B8845F210529342C1D004
:103DC00049F606029342BDD047F296729342B9D0AB
:103DD000554B93F8443013F0010F2DD09DF80D2072
:103DE0009DF80C109DF80B3001EB02214E481A1D76
:103DF00000EB420291809DF80F109DF80E2002EB1F
:103E00000122103320F81320BCE79DF80D209DF807
:103E10000C109DF80B3001EB022143481A1D00EBFA
:103E2000420291809DF80F109DF80E2002EB0122B6
:103E3000103320F81320A5E73C4B19889DF80F207C
:103E40009DF80E3003EB02239BB29DF80B20CB1A9A
:103E50003548111D00EB41018B809DF80D109DF838
:103E60000C3003EB0123103220F812308AE72E4A7F
:103E700091892E4A1288914205D82B4A118C2B4ADF
:103E8000528891421ED99DF8072012F00E0F09D0DA
:103E9000254BDA899A815A8C1A84204B00221A7099
:103EA000012015E0204AD91C02EB4101898891814B
:103EB0000F3332F81330138480238DF80730948643
:103EC000012005E0154B00221A70012000E00020BF
:103ED0009DF8073003F08F03802B0AD00F4B1B781F
:103EE000F02B02D90D4B0A221A7004B010BD00202D
:103EF000EEE70D4A938EB2F93420002A08DB0A4A15
:103F00004FF6FF719181118403F460439386E5E7D6
:103F1000C3F30E03044A9386E0E700BF680B00205A
:103F2000CDCCCCCC180000201C000020300B002091
:103F3000880B010870B584B0484B1A6B42F480724C
:103F40001A631A6B42F080021A63454D01240194F2
:103F50000094002322464FF480712846FEF742FD6C
:103F6000404E0194009400231A4680213046FEF70B
:103F700039FDFFF74DFD00224FF480712846FEF712
:103F800077FD0A20FEF712FD22464FF48071284685
:103F9000FEF76EFD0A20FEF709FD0025019500944D
:103FA0002B462A4680213046FEF71CFD6420FEF792
:103FB000FDFC042202A948F24010FFF73BFE8DF8F9
:103FC0000C50294902A8FCF71FF978B1274902A82B
:103FD000FCF71AF950B1264902A8FCF715F928B1E7
:103FE000244902A8FCF710F9002834D102A922487C
:103FF00000F0E6FB1F4902A8FCF706F910B91F4BB9
:104000000A221A7002238DF80830012202A948F210
:104010004000FFF7E7FD0A20FEF7C8FC00248DF8FA
:104020000840012202A948F24000FFF7DBFD144BD3
:1040300093F9063003F00103124A92F844100B433F
:1040400082F844301049516063F07F0382F84430B5
:10405000204604B070BD0120FBE700BF00380240DD
:1040600000200240001C0240600B0108640B0108A4
:104070006C0B0108740B01087C0B01081800002070
:10408000300B00201C0000208D3C000870B5044659
:10409000002516E0002208211048FEF7E9FC640024
:1040A000E4B20F4E002240213046FEF7E1FC012031
:1040B000FEF73CFC012240213046FEF7D9FC0135D9
:1040C000EDB2072D08D814F0800FE3D001220821AB
:1040D0000248FEF7CDFCE2E770BD00BF00200240C1
:1040E000001C024070B505462A4C002240212046A3
:1040F000FEF7BEFC284E002208213046FEF7B8FC31
:1041000000224FF480713046FEF7B2FC2846FFF7DC
:10411000BDFF0620FEF70AFC002240212046FEF7E4
:10412000A7FC0120FEF702FC012240212046FEF7F9
:104130009FFC0120FEF7FAFB002240212046FEF7FB
:1041400097FC0024254601E00135EDB20F2D18D86B
:104150006400A4B20F4E002240213046FEF788FCD6
:104160000120FEF7E3FB012240213046FEF780FCF0
:1041700008210A48FEF788FC0028E5D00134A4B2E3
:10418000E2E7240901224FF480710348FEF770FC36
:10419000204670BD001C0240002002400018024072
:1041A00030B585B00546002409E02846FFF79AFFA0
:1041B00004AB03EB440323F80C0C0134A4B2042C2D
:1041C000F3D900201AE001339BB2042B15D804AABE
:1041D00002EB400232F80C2C04A901EB430131F848
:1041E0000C1C8A42EFD904AD05EB400C2CF80C1CDA
:1041F00005EB430121F80C2CE5E72046032803D802
:10420000441CA4B22346E0E70020012308E004AAEE
:1042100002EB430232F80C2C104480B201339BB203
:10422000032BF4D9034BA3FB0030C0F34F0005B0C0
:1042300030BD00BFABAAAAAA38B50B4C002584F844
:1042400044500A4B93F9063003F0010384F84430DC
:10425000FFF770FE064B636094F8443063F07F0311
:1042600084F84430284638BD1C000020300B002064
:104270008D3C000870B505460C460D4B93F8443054
:1042800013F0010F0AD09020FFF78AFF0646D020D6
:10429000FFF786FF03462E80238070BDD020FFF7F6
:1042A0007FFF06469020FFF77BFF0346F3E700BF42
:1042B0001C00002030B583B005460C4601A90DF165
:1042C0000600FFF7D7FF69460DF10200FFF7D2FFA6
:1042D000BDF80230BDF80620934203D803F1310146
:1042E000914205DA934220D302F1310199421FDB5A
:1042F000BDF80000BDF80410884203D800F1310C6D
:104300008C4506DA884215D33131814201DA00202A
:104310000CE013445B102B80BDF80430BDF8002086
:1043200013445B102380012000E0002003B030BD67
:104330000020FBE70020F9E710B50446802137484C
:10434000FEF7A2FB002854D1A4B1354800F12001AA
:104350000C30FFF7AFFF324BB3F93430002B07DBE3
:104360002F4B4FF440429A869A89DA831A8C5A86E8
:10437000002010BD2A4800F120010C30FFF79AFF01
:104380000028E8D0264A9389B2F840105B1A1BB285
:10439000D2ED0E7A07EE103AB8EEC77AC7EE276A6A
:1043A00020490B885B0807EE903AF8EEE77A77EE43
:1043B000A67AFCEEE77A17EE903A9381138CB2F866
:1043C00042001B1A1BB2D2ED0F7A07EE103AB8EE7C
:1043D000C77AC7EE276A4B885B0807EE903AF8EE7B
:1043E000E77A77EEA67AFCEEE77A17EE903A138436
:1043F000B1E70B4B9A8EB3F93430002B08DB084B36
:104400000022DA835A864FF6FF729A811A84AFE748
:10441000C2F30E02024B9A86AAE700BF001C0240BC
:104420001C000020300B00202DE9F043079F089E60
:104430004FF0000C01E00CF1010CBCF10F0F38D86B
:104440004FF0010E0EFA0CFE3EEA0104F3D1D0F853
:1044500000904FEA4C050324AC406FEA040829EAB7
:1044600004040460046802FA05F944EA09040460DB
:10447000541E012CDFD8846808EA04048460846830
:1044800007FA05F944EA09048460446824EA0E0442
:104490004460446803FA0CFE44EA0E044460C468B5
:1044A00008EA0404C460C46806FA05F52543C5603B
:1044B000C1E7BDE8F08310B4CB08083350F82340BF
:1044C00001F0070189004FF00F0C0CFA01FC24EAFF
:1044D0000C0440F8234050F8234002FA01F10C4349
:1044E00040F823405DF8044B704708B5B420FEF750
:1044F00007FA4FF4E130FEF7E9FA4FF4E130FEF746
:104500002FFBFFF703F9FEF713FCFFF713FD00F095
:1045100001F808BD10B584B001214FF48040FEF7CA
:1045200005F907210846FEF70FF9802302930023BF
:104530008DF80C3010238DF80D3001248DF80E40CD
:1045400002A8FDF7B5FF17238DF804300F238DF86F
:1045500005308DF806308DF8074001A8FDF776FF8D
:1045600004B010BD30B585B08020FDF7E9FFF0B193
:10457000104B5B68002098470F4B02933225019542
:1045800064240094FA234FF4B47200210B4800F025
:104590001BF80B4B029301950094FA234FF402721F
:1045A0000121084800F010F88020FDF7D3FF05B086
:1045B00030BD00BF1C0000209C0B0108690B0020CF
:1045C000A40B01086A0B00202DE9F04385B0814659
:1045D000884614461D46BDF83060BDF834703B4631
:1045E000324629462046FEF730FC05F10B0104F166
:1045F0000B000E9B02930123019320230093F022D2
:1046000089B280B2FEF7C8FC2F4B13F80830BBB953
:104610002E4B9B89A34254D33444A34251DC2B4BF1
:104620001B8CAB424DD33D44AB424ADC89F8008041
:10463000254B012203F808204846FDF733FE40E0F1
:10464000224B9B89A34222D3A21993421FDC1F4B0A
:104650001B8CAB421BD3EA19934218DC1C4B1B6822
:10466000002B2ED1A21992B2EB199BB2013B013A59
:10467000691C601C4FF6E07400949BB292B289B240
:1046800080B2FEF73DFD124B01221A6019E00023B3
:104690000D4A02F808300E4A1360FF2389F80030F3
:1046A000A21992B2EB199BB2013B013A691C601C42
:1046B0004FF6FF7400949BB292B289B280B2FEF7BB
:1046C0001FFD05B0BDE8F083700B00201C0000202A
:1046D0006C0B0020002103E00A4B5B58435004316F
:1046E00009480A4B42189A42F6D3094A02E00023CD
:1046F00042F8043B074B9A42F9D3FDF77FFEFDF7E2
:10470000CDFD7047B410010800000020100A002001
:10471000100A0020C80B0020FEE70000830730B518
:1047200048D0541E002A3FD0CAB2034601E0013CE3
:104730003AD303F8012B9D07F9D1032C2DD9CDB223
:1047400045EA05250F2C45EA054536D9A4F11002A6
:1047500022F00F0C03F1200EE6444FEA121C03F185
:10476000100242E9045542E9025510327245F8D16F
:104770000CF1010214F00C0F03EB021204F00F0C09
:1047800013D0ACF1040323F003030433134442F8C1
:10479000045B9342FBD10CF003042CB1CAB21C445D
:1047A00003F8012B9C42FBD130BD64461346002C1C
:1047B000F4D1F9E703461446BFE71A46A446E0E7FA
:1047C0000FB400B5074983B004AB086853F8042B55
:1047D0008168019300F008F803B05DF804EB04B0C1
:1047E000704700BF640000202DE9F04F2DED0A8BCB
:1047F000CFB01C460AEE101A91460AEE900A054602
:1048000003F0B4F90368139318460994FBF758FFB3
:1048100012901DB1AB6B002B00F048821AEE102AEB
:10482000536EDB0740F14781B2F90C309AB296041F
:1048300009D41AEE101A43F400538B819AB24B6ECE
:1048400023F400534B66150740F1CC801AEE103A62
:104850001B69002B00F0C68002F01A030A2B00F03F
:10486000D2804D469FED9C7B2B78002425AACDE974
:104870002344CDE91544CDE917448DED107B1AEEA4
:10488000909A0E942292904614940694002B00F075
:10489000B081AB4604E01BF8013F002B00F0CD8057
:1048A000252BF8D1BBEB050640F0CB809BF8003000
:1048B000002B00F09E8100234FF0FF329BF8017027
:1048C0008DF86B3005930BF1010B04929A462B2463
:1048D00020210BF1010BA7F120035A2B00F20081DC
:1048E000DFE813F00B03FE00FE000603FE00FE00EF
:1048F000FE006A00FE00FE0077029F02FE008202B8
:10490000A902FE00A4025B005B005B005B005B0091
:104910005B005B005B005B00FE00FE00FE00FE0033
:10492000FE00FE00FE008E01FE001602ED018E016B
:104930008E018E01FE00FE00FE00FE000103FE005F
:10494000FE004502FE00FE00FE002002FE00C30243
:10495000FE00FE009D07FE00FE00FE00FE00FE00C1
:10496000FE00FE00FE008E01FE001602EF018E0129
:104970008E018E01E702EF01E801FE00F402FE0065
:1049800087024702D502E801FE0020027D00790778
:10499000FE00FE007D07FE007D00A7F1300300222F
:1049A0001BF8017B02EB820203EB4202A7F130030A
:1049B000092BF5D905928EE7484603F0D7F84368EE
:1049C00017931846FBF77CFE18900646484603F0FE
:1049D000CDF8836815932021002E40F0ED869BF8DA
:1049E000007076E71AEE101A1AEE900A1AEE105AB4
:1049F00001F020FD002841F02983AA8902F01A0362
:104A00000A2B7FF42EAF1AEE101AB1F90E30002BDC
:104A1000FFF627AF4B6ED90702D4920541F15C81B6
:104A20001AEE101A1AEE900A23464A464FB0BDEC11
:104A30000A8BBDE8F04F01F0A1BCBBEB050600F00E
:104A4000D880249B33442493239B0133072BC8E94C
:104A50000056239305DC08F10808069B33440693AF
:104A600024E71AEE101A22AA484605F0D7FD90B99D
:104A70000DF19408F1E71AEE101A22AA484605F043
:104A8000CDFD002800F0A680089B23B11AEE900A05
:104A9000194602F041FF1AEE102A536ED80740F172
:104AA000FA8093895A0601F1DA8206984FB0BDEC7C
:104AB0000A8BBDE8F08FB2F90C309F059AB23FF532
:104AC000B6AE1AEE105AA86D03F058F8B5F90C30CE
:104AD0009AB2ACE6AFF300800000000000000000D6
:104AE000002F00F0868000238DF8D4708DF86B3095
:104AF0000122CDE90723039204930C930F930D93A6
:104B000035AD1AF002020A9202D0039A02320392E1
:104B10001AF084020B9205D1059A0399561A002EB9
:104B200000F36A83249C8BB1239B0DF16B0201334C
:104B30000134C8F80020072B4FF00102249423937E
:104B4000C8F8042000F3A18308F108080A9B83B188
:104B5000239B1BAA01330234C8F80020072B4FF017
:104B6000020224942393C8F8042000F39B8308F1E5
:104B700008080B9B802B00F06C82049B079A9E1AFE
:104B8000002E00F3AD821AF4807F40F00882079B6C
:104B9000C8F804301C44239BC8F800500133072B8D
:104BA0002494239300F31B8308F108081AF0040FE0
:104BB00005D0059B039A9D1A002D00F38783DDE93C
:104BC000052303998A42ACBF9B185B180693002CFF
:104BD0007FF451AF00232393089B1BB108994846EB
:104BE00002F09AFE0DF194085D462B78002B7FF4BD
:104BF00050AE249B002B41F01D82002323934AE7F3
:104C0000099B073323F00703B3EC027B8DED107B88
:104C1000DDE91012099322F000430BEE101A0BEE9F
:104C2000903A4FF0FF32B0EE4B9AF0EE6B9AB84BE1
:104C300051EC190BFCF708FA002840F0EC84B44B57
:104C400051EC190B4FF0FF32FCF7E0F9002840F06F
:104C5000E284DDE9100100220023FCF7CDF90028F1
:104C600040F069879DF86B30AA4DAB4A2AF0800A64
:104C70000321472FC8BF15460022089203910791D0
:104C800004920C920F920D92002B3FF43AAF039ACC
:104C90000132039235E7938999053FF503AF1AEE88
:104CA000104A906D02F06CFFA389FBE6284602F0E3
:104CB0003BFDB3E59BF800704AF0200A09E64AF094
:104CC000100A1AF0200F099B00F04484073323F0E8
:104CD00007031A465B6852F8084B09921E46002BE0
:104CE000C0F24784049B013300F0BE822AF08003A7
:104CF000039354EA060340F0B982049B002B40F072
:104D0000BA82DDF80CA00023049307934EAD21E195
:104D1000099A002352F8041B8DF86B308DF8D410DB
:104D20000992E5E6099C049A54F8045B00268DF884
:104D30006B60002D00F092851346013300F052861F
:104D400031462846FBF7CCFB0890002801F0318162
:104D5000089B0496591B079121EAE1719DF86B307D
:104D60000994039108960C960F960D968CE74AF0DD
:104D7000100A1AF0200600F0CD83099B073323F0B8
:104D800007035E6853F8084B09932AF48063039382
:104D9000002300228DF86B20049A1146013100F0A7
:104DA000C180039921F0800A54EA060140F0B880DE
:104DB000002A40F00886002BA5D1039B13F00103C5
:104DC000079300F0178430238DF837310DF2371533
:104DD000C0E0099B53F8042B0592002A80F2D88387
:104DE000059A0993524205929BF800704AF0040A12
:104DF0006FE51AF0200F40F0D4841AF0100F40F045
:104E0000E8851AF0400F40F0AA861AF4007F00F0FF
:104E1000E085099B069953F8042B099311705D46B0
:104E2000E3E69BF800708DF86B4052E59BF800704C
:104E30004AF0800A4DE55A4612F8017B2A2F01F00C
:104E40007082A7F13003092B934698BF002201F22C
:104E5000ED801BF8017B02EB820203EB4202A7F11B
:104E60003003092BF5D9049235E54AF0100303937A
:104E7000039B13F0200600F05C83099B073323F0AB
:104E800007035E6853F8084B0993012381E7099BE8
:104E900053F8044B099330234AF0020278278DF827
:104EA0006C301E4B149303928DF86D700026022314
:104EB0006FE79BF80070682F03BF9BF801704AF4FE
:104EC000007A0BF1010B4AF0400A02E59BF80070F2
:104ED0006C2F03BF9BF801704AF0200A0BF1010B05
:104EE0004AF0100AF5E49BF800704AF0080AF0E472
:104EF0009BF800704AF0010AEBE49DF86B30002B40
:104F00007FF46DAD9BF800708DF86B10E1E400BF8D
:104F1000FFFFEF7FAC0B0108B00B0108BC0B0108D1
:104F2000CDF80CA0012B00F0A181022B4EAD20D1B9
:104F3000149A04F00F032409D35C05F8013D44EAF8
:104F40000674360954EA0603F3D14EAB5B1BDDF859
:104F50000CA00793049907989DF86B3081424FF09D
:104F60000002B8BF0146089203910C920F920D9275
:104F70008AE604F00703E40844EA4674F60830338E
:104F800054EA06012A4605F8013DF2D10399CC07FF
:104F900000F177824EAB5B1B8A460793DAE7652FF9
:104FA00040F3D780DDE9100100220023FCF71AF856
:104FB000002800F0C681239BC14AC8F800200133B5
:104FC00001340122072B24942393C8F8042000F312
:104FD000DE8408F108081C9B0E9A934280F2D3826B
:104FE000129B139A1C44C8E90023239B2494013389
:104FF000072B239300F3248408F108080E9B5D1E01
:10500000002D7FF7D3AD102D239B41F36981AD4F68
:105010000A97224610261AEE104A05E008F1080801
:10502000103D102D40F3C18401331032072BC8E925
:105030000076CDE92332F1DD22AA2146484605F06B
:10504000EDFA00287FF420ADDDE923320DF194085C
:10505000E6E7059B039A9E1A002E7FF78EAD102E71
:10506000239B41F33F8097490B9522461AEE105A35
:105070000A910C4604E0103E102E08F1080819DDD4
:10508000013310321021072BCDE92332C8F800403C
:10509000C8F80410EFDD22AA294648460DF194080D
:1050A00005F0BCFA00287FF4EFAC103E102EDDE9CD
:1050B0002332E5DC0B9D144601330A9AC8F8002020
:1050C0003444072BCDE92334C8F8046000F3AA83E5
:1050D000049B079A9E1A002E08F108087FF753AD2B
:1050E000102E239B40F30F8576480A9021464246B6
:1050F00004461AEE108A04E0103E102E02F1080257
:1051000016DD013310311020072BCDE92331146057
:105110005060F1DD22AA4146484605F07FFA00289A
:105120007FF4B2AC103E102EDDE9233125AAE8DC75
:105130000C46904601330A9AC8F800203444072BE5
:10514000CDE92334C8F8046000F3D68108F10808DB
:1051500019E50E9B012B40F37581239EC8F8005082
:10516000013601340123072E24942396C8F8043015
:1051700000F3968308F10808129B139A01361C4429
:10518000072EC8E90023CDE9236400F3978308F1D3
:105190000808DDE9100100220023FBF723FF0028A7
:1051A00040F07D810E9B0136013B01351C44072EEA
:1051B000C8F800502396C8F80430249400F35381B3
:1051C00008F10808169BC8F8043001361C44072E65
:1051D0001EABCDE92364C8F800307FF7E5AC1AEECA
:1051E000101A22AA484605F019FA00287FF44CACA0
:1051F000249C0DF19408D9E4102EDDE9233222DD40
:10520000199510241AEE105A04E0103E102E08F1E1
:10521000080817DD01332C491032072BC8E90014A8
:10522000CDE92332F1DD22AA294648460DF1940842
:1052300005F0F4F900287FF427AC103E102EDDE9CC
:105240002332E7DC199DC8F804600133B418072B3A
:105250001D4AC8F80020CDE9233400F37D839DF872
:105260006B3008F108085EE4CDF80CA00A2C76F14A
:10527000000380F0318330340123DDF80CA08DF879
:10528000374107930DF2371564E61AEE101A22AA79
:10529000484605F0C3F900287FF4F6AB249C0DF1D5
:1052A000940853E41AEE101A22AA484605F0B6F9FB
:1052B00000287FF4E9AB249C0DF1940859E400BF69
:1052C000EC0B0108000C0108F00B0108102D239BCA
:1052D00020DD1AEE107A102604E0103D102D08F1A2
:1052E000080817DD0133AD4A1034072BC8E9002642
:1052F000CDE92334F1DD22AA394648460DF1940860
:1053000005F08CF900287FF4BFAB103D102DDDE9CE
:105310002334E7DC0133A14AC8F804502C44072B9E
:10532000CDE92334C8F800207FF749AC1AEE101AF3
:1053300022AA484605F072F900287FF4A5AB249C08
:105340003DE41C9A002A40F32D81DDE90D329342A1
:10535000A8BF1346002B1F460BDD1C44C8E90053B1
:10536000239B24940133072B239300F3D48508F166
:1053700008080D9B002FA8BFDB1B002B1E4600F367
:1053800042830D9B1AF4806F2B44079340F0E18415
:105390001C9B0E9A934203DB1AF0010F00F0D0839E
:1053A000129A13991444C8E90012239A24940132E2
:1053B000072A239200F3BD8508F108080E9A079981
:1053C000AE18761AD51AAE42A8BF2E46002E0DDDB5
:1053D000239BC8F8001001333444072BC8F804603D
:1053E0002494239300F3078608F10808002EA8BF31
:1053F000AD1B002D7FF7DAAB102D239B40F3708798
:10540000674F0A97224610261AEE104A05E008F167
:105410000808103D102D40F3C88201331032072BCD
:10542000C8E90076CDE92332F1DD22AA21464846BB
:1054300005F0F4F800287FF427ABDDE923320DF105
:105440009408E6E71AF0010F7FF487AE239EC8F8B0
:105450000050013601340123072E24942396C8F806
:1054600004307FF7ADAE1AEE101A22AA484605F0B6
:10547000D5F800287FF408ABDDE923640DF194082A
:10548000A0E6302B3FF461AD3023023A05F8013C31
:105490004EAB9B1ADDF80CA0079315465AE50E9B00
:1054A0005D1E002D7FF78EAE102D40F31F873C4A06
:1054B000CDF810A023461AEE10AA0A92102714461F
:1054C00005E008F10808103D102D40F3E182013697
:1054D0001033072EC8E90047CDE92363F1DD22AA86
:1054E0005146484605F09AF800287FF4CDAADDE938
:1054F00023630DF19408E6E71AEE101A22AA484633
:1055000005F08CF800287FF4BFAA249C0DF19408C4
:10551000FFF739BB1AF0100340F03D811AF040024A
:1055200000F0C682099A52F8044B09921E46A4B2B2
:105530002BE4039B13F0100366D1039A12F0400290
:1055400000F0C482099A52F8044B09921E46A4B294
:1055500001231EE453F8044B09931AF0100F4FD1A6
:105560001AF0400F48D044F3C036334624B2FFF758
:10557000B6BB2D2364428DF86B3066EB4606CDF842
:105580000CA0012308E41AF0010F3FF40FAB27E54C
:105590009BF800700993FFF79CB900BFF00B01085E
:1055A000000C0108239BB549C8F8001001330134F1
:1055B0000121072B24942393C8F8041000F382845C
:1055C00008F10808002A40F044820E9A0AF001030C
:1055D00013433FF4EBAA129B139A1C44C8E900231F
:1055E000239B24940133072B239300F3668308F154
:1055F00008083FE24EADADE41AF4007F40F0A98206
:10560000E6173346FFF76BBB099B53F8044B09932E
:105610000123FFF7BEBBDDE9100102460B46FBF795
:1056200013FD002840F02C86612F00F07D85412F6E
:1056300000F09E82049B013327F02003039300F0C7
:10564000BE85472B00F0A985DDE910014AF4807280
:10565000002907924FF00003C0F2438441EC180B7D
:105660000A930893039B462B00F07284452B00F0AD
:105670002385B0EE480AF0EE680A20AB01931DAB1B
:105680000093049A1CAB0221484600F0E1FF039B03
:10569000472B054640F05C861AF0010F5646DDF8B0
:1056A0001CA040F0E184209B5B1B0E93039B472BC7
:1056B00000F01983039B462B00F087841C9B0D93FD
:1056C0000D9B039A013B412A1C9300F0E785FAB237
:1056D0000021002BB8BF0D9B8DF87820BABFC3F115
:1056E00001032D222B22092B8DF8792040F36B85A5
:1056F0000DF18704DFF894C1224610468CFB03218C
:10570000DA17C2EBA10202EB8201A3EB41013031B7
:1057100000F8011C19466329134600F1FF32ECDC46
:105720003033D9B2831E9C4202F8011C40F20C8631
:1057300013460DF17A0201E013F8011B02F8011B78
:105740009C42F9D10DF189030DF17A021B1A134421
:105750001EAA9B1A16930E9B169A012B1A440792A7
:1057600040F3B085079B129A13440793079A0023CE
:1057700026F4806622EAE27246F4807A0C93039261
:105780000F930D930A9B002B40F0DC8204939DF84D
:105790006B30FFF779BA099B53F8044B0993FFF775
:1057A000F4BA099B069853F8041B0993C217C1E980
:1057B00000025D46FFF719BA159B002B3FF40FA9B5
:1057C000159B1B78002B3FF40AA99BF800704AF444
:1057D000806AFFF77EB8CDF80CA0FFF749BB284BD5
:1057E00014931AF0200653D0099B073323F00703C4
:1057F0005E6853F8084B09931AF0010F09D054EA78
:10580000060306D030238DF86D704AF0020A8DF839
:105810006C302AF4806303930223FFF7BABA194B62
:105820001493DEE71AEE101A22AA484604F0F6FE98
:1058300000287FF429A9249C0DF19408FFF79DB955
:105840001AEE101A22AA484604F0E8FE00287FF457
:105850001BA9249C0DF19408FFF7D0BB062A29460A
:1058600028BF0622049508952B460392064D0994FD
:1058700007920C910F910D91FFF706BAEC0B0108FE
:10588000BC0B0108D00B0108E40B010867666666D3
:105890001AF0100370D0099B53F8044B0993ABE73F
:1058A0001AEE101A22AA484604F0B8FE00287FF427
:1058B000EBA8DDE923640DF194085DE41AEE101AFB
:1058C00022AA484604F0AAFE00287FF4DDA8DDE9FC
:1058D00023640DF194085CE4039B002203F48063CD
:1058E000CDE9077809EE109A0DF59C7ADDF8549011
:1058F000174698460CE00023204631460A22FBF763
:10590000E1FB0A2C76F100031CD304460E46AA469E
:1059100020460A2200233146FBF7D4FB30320AF13D
:10592000FF3501370AF8012CB8F1000FE3D099F8E0
:1059300000309F42DFD1FF2FDDD00A2C76F100032B
:1059400080F0E580CDF854900E97DDF82080079F19
:1059500019EE109AFFF7F9BA1AEE101A22AA484661
:1059600004F05CFE00287FF48FA89DF86B30249C27
:105970000DF19408FFF7D7B81AF0400200F0B68096
:10598000099A52F8044B09921E46A4B234E71AEE63
:10599000101A22AA484604F041FE00287FF474A899
:1059A000249C0DF19408FFF716BB144601330A9AA4
:1059B000C8F800202C44072BC8F80450CDE9233444
:1059C0007FF7F2A80BE4012BCDF80CA07FF4ADAA71
:1059D00051E4099B069953F8042B5D461160099325
:1059E000FFF703B9284604960994FAF769FE20EAFE
:1059F000E0719DF86B300790039108960C960F9616
:105A00000D96FFF741B9102E239B40F39684BC48B6
:105A10000A902146424610271AEE108A044604E0F6
:105A20000832103E102E40F33B8201331031072B19
:105A3000C2E90047CDE92331F2DD22AA41464846BA
:105A400004F0ECFD00287FF41FA8DDE9233125AA2E
:105A5000E7E7129B13991C44C8E90013239B249485
:105A60000133072B239300F3288108F10808002A4B
:105A7000C0F2FD820E9AC8F8005001331444072B7F
:105A8000CDE92334C8F804207FF78EA8FFF7A7BB21
:105A9000DDF810A01C4601360A9BC8F800302C44E3
:105AA000072ECDE92364C8F804507FF789ABDAE408
:105AB000099B1AF4007614BF53F8044B53F8044BB7
:105AC00009931CBF1646E4B2FFF75FB9039B13F4BA
:105AD0000076099B14BF53F8044B53F8044B099309
:105AE0001CBF1646E4B20123FFF753B9099B1AF411
