:020000040800F2
:10000000000003200D320008E9130008EB1300087C
:10001000ED130008EF130008F113000800000000C2
:10002000000000000000000000000000F3130008C2
:10003000F513000800000000F71300085D32000807
:100040005D3200085D3200085D3200085D32000854
:100050005D3200085D3200085D3200085D32000844
:100060005D3200085D3200085D3200085D32000834
:100070005D3200085D3200085D3200085D32000824
:100080005D3200085D3200085D3200085D32000814
:100090005D3200085D3200085D3200085D32000804
:1000A0005D3200085D3200085D3200085D320008F4
:1000B0005D3200085D3200085D3200085D320008E4
:1000C0005D3200085D3200085D3200085D320008D4
:1000D0005D320008711700085D3200085D320008CB
:1000E0005D3200085D3200085D3200085D320008B4
:1000F0005D3200085D3200085D3200085D320008A4
:100100005D3200085D3200085D3200085D32000893
:100110005D3200085D3200085D3200085D32000883
:100120005D3200085D3200085D3200085D32000873
:100130005D3200085D3200085D3200085D32000863
:100140005D3200085D3200085D3200085D32000853
:100150005D3200085D3200085D3200085D32000843
:100160005D3200085D3200085D3200085D32000833
:100170005D3200085D3200085D32000800000000BA
:100180005D3200085D3200085D3200085D32000813
:100190005D3200085D3200085D3200085D32000803
:0C01A0005D3200085D3200085D3200088E
:1001C00002780B78012A28BF9A4240F0D8806DE966
:1001D000044540EA0104CDE902676FF0000C4FEAE4
:1001E00044721AB380EA010414F0070F6BD100F0D7
:1001F000070420F0070004F0030521F007014FEA8F
:10020000C505F0E8042314F0040FF1E804670CFAC4
:1002100005F462EA040266EA04060BD063EA04030A
:10022000624667EA0407664604E000BFF0E804237C
:10023000F1E8046782FA4CF582EA0604A4FA8CF429
:100240006CBB83FA4CF583EA0705A5FA8CF595B9E2
:1002500050E9022351E9026782FA4CF582EA06046A
:10026000A4FA8CF483FA4CF583EA0705A5FA8CF519
:100270002543DBD09CB92DBAB5FA85F424F00704E8
:1002800027FA04F1DDE9026723FA04F303F0FF0023
:1002900001F0FF01FDE80445A0EB0100704724BA1E
:1002A000B4FA84F424F0070426FA04F1DDE90267C5
:1002B00022FA04F202F0FF0001F0FF01FDE804451C
:1002C000A0EB0100704714F0030F3CD110F00304C1
:1002D00028D150F8082B51F8083B82FA4CF582EAF5
:1002E0000305A5FA8CF55DB950F8042C51F8043CCF
:1002F00082FA4CF582EA0305A5FA8CF5002DE8D0C8
:100300002DBAB5FA85F424F0070423FA04F122FA91
:1003100004F202F0FF0001F0FF01FDE80445A0EB4C
:10032000010070474FEAC40420F0030050F8082B86
:1003300021F0030151F8083B0CFA04F462EA0402CC
:1003400063EA0403C9E710F003041DD0A1EB040124
:1003500020F00300E40750F8042B06D012D28B786B
:100360005FFAA2F4E41A06D12BB1CB785FFAB2F4AB
:10037000E41A00D133B920465DF8104B7047A2EB68
:100380000300704701F1040150F8042BCC0721F061
:10039000030151F8043B48D824D222F07F4482FA6A
:1003A0004CF594EA1325A5FA8CF50AD165B951F8F4
:1003B000043B84EA0204B4EB036F0ED150F8042B23
:1003C000EBE74FEA132355E035F07F454DD1087830
:1003D000FDE80445C0F1000070474FEA126203F0E7
:1003E000FF0347E002EA1C4482FA4CF594EA134505
:1003F000A5FA8CF50AD165B951F8043B84EA0204E8
:10040000B4EB034F0CD150F8042BEBE74FEA134346
:1004100030E015EA1C4528D10B884FEA124229E04A
:100420004FEA124203EA1C4324E002F0FF0482FA7E
:100430004CF594EA1365A5FA8CF50AD165B951F823
:10044000043B84EA0204B4EB032F09D150F8042BD7
:10045000EBE74FEA13630DE015F0FF0F05D10B68D2
:100460004FEA122223F07F4304E04FF00000FDE842
:100470000445704712BA1BBA82FA4CF482EA0304AC
:10048000A4FA8CF5B5FA85F402FA04F203FA04F33F
:100490004FEA1260FDE80445A0EB1360704700BF0F
:1004A00001F0FF01102A2BDB10F0070F08D010F825
:1004B000013B013A8B422DD010F0070F42B3F6D129
:1004C000F0B441EA012141EA014122F007047FF042
:1004D00000070023F0E80256083C85EA010586EA99
:1004E000010685FA47F5A3FA87F586FA47F6A5FAD5
:1004F00087F68EB9EED1F0BC01F0FF0102F00702E1
:1005000032B110F8013B013A83EA010313B1F8D18B
:100510000020704701387047002D06BF354603386C
:10052000073815F0010F07D1013015F4807F02BFA5
:10053000013015F4C03F0130F0BC0138704700BFF6
:1005400030B490F800F020F007016FF0000C10F0CC
:10055000070491F820F040F048804FF000046FF05D
:100560000700D1E9002391F840F000F1080082FA79
:100570004CF2A4FA8CF283FA4CF3A2FA8CF34BBB44
:10058000D1E9022382FA4CF200F10800A4FA8CF2BD
:1005900083FA4CF3A2FA8CF3E3B9D1E9042382FA8B
:1005A0004CF200F10800A4FA8CF283FA4CF3A2FAA0
:1005B0008CF37BB9D1E9062301F1200182FA4CF2D8
:1005C00000F10800A4FA8CF283FA4CF3A2FA8CF33F
:1005D000002BC6D0002A04BF04301A4612BAB2FA61
:1005E00082F200EBD20030BC7047D1E9002304F066
:1005F0000305C4F100004FEAC50514F0040F91F89B
:1006000040F00CFA05F562EA05021CBF63EA050337
:1006100062464FF00004AAE7844641EA000313F063
:1006200003036DD1403A41D351F8043B40F8043BF9
:1006300051F8043B40F8043B51F8043B40F8043BBC
:1006400051F8043B40F8043B51F8043B40F8043BAC
:1006500051F8043B40F8043B51F8043B40F8043B9C
:1006600051F8043B40F8043B51F8043B40F8043B8C
:1006700051F8043B40F8043B51F8043B40F8043B7C
:1006800051F8043B40F8043B51F8043B40F8043B6C
:1006900051F8043B40F8043B51F8043B40F8043B5C
:1006A00051F8043B40F8043B403ABDD2303211D3FC
:1006B00051F8043B40F8043B51F8043B40F8043B3C
:1006C00051F8043B40F8043B51F8043B40F8043B2C
:1006D000103AEDD20C3205D351F8043B40F8043BFC
:1006E000043AF9D2043208D0D2071CBF11F8013BFA
:1006F00000F8013B01D30B8803806046704700BFC0
:10070000082A13D38B078DD010F003038AD0C3F1CE
:100710000403D21ADB071CBF11F8013B00F8013BB0
:1007200080D331F8023B20F8023B7BE7043AD9D36F
:10073000013A11F8013B00F8013BF9D20B78037044
:100740004B7843708B7883706046704781F000412E
:1007500002E000BF83F0004330B54FEA41044FEAA6
:10076000430594EA050F08BF90EA020F1FBF54EA41
:10077000000C55EA020C7FEA645C7FEA655C00F0DD
:10078000E2804FEA5454D4EB5555B8BF6D420CDDAE
:100790002C4480EA020281EA030382EA000083EA31
:1007A000010180EA020281EA0303362D88BF30BDD1
:1007B00011F0004F4FEA01314FF4801C4CEA113127
:1007C00002D0404261EB410113F0004F4FEA033386
:1007D0004CEA133302D0524263EB430394EA050F11
:1007E00000F0A780A4F10104D5F1200E0DDB02FA80
:1007F0000EFC22FA05F2801841F1000103FA0EF214
:10080000801843FA05F359410EE0A5F120050EF1D9
:10081000200E012A03FA0EFC28BF4CF0020C43FA0A
:1008200005F3C01851EBE37101F0004507D54FF017
:10083000000EDCF1000C7EEB00006EEB0101B1F567
:10084000801F1BD3B1F5001F0CD349085FEA3000AD
:100850004FEA3C0C04F101044FEA445212F5800FB8
:1008600080F09A80BCF1004F08BF5FEA500C50F155
:10087000000041EB045141EA050130BD5FEA4C0C38
:10088000404141EB0101013C28BFB1F5801FE9D295
:1008900091F0000F04BF01460020B1FA81F308BFB8
:1008A0002033A3F10B03B3F120020CDA0C3208DD84
:1008B00002F1140CC2F10C0201FA0CF021FA02F15F
:1008C0000CE002F11402D8BFC2F1200C01FA02F1CF
:1008D00020FA0CFCDCBF41EA0C019040E41AA2BFF4
:1008E00001EB0451294330BD6FEA04041F3C1CDABC
:1008F0000C340EDC04F11404C4F1200220FA04F0DC
:1009000001FA02F340EA030021FA04F345EA030185
:1009100030BDC4F10C04C4F1200220FA02F001FA47
:1009200004F340EA0300294630BD21FA04F02946C9
:1009300030BD94F0000F83F4801306BF81F4801162
:100940000134013D4EE77FEA645C18BF7FEA655CD5
:1009500029D094EA050F08BF90EA020F05D054EAA7
:10096000000C04BF1946104630BD91EA030F1EBFAC
:100970000021002030BD5FEA545C05D140004941B0
:1009800028BF41F0004130BD14F580043CBF01F5A3
:10099000801130BD01F0004545F0FE4141F4700189
:1009A0004FF0000030BD7FEA645C1ABF1946104664
:1009B0007FEA655C1CBF0B46024650EA013406BF65
:1009C00052EA033591EA030F41F4002130BD00BF24
:1009D00090F0000F04BF0021704730B54FF48064E1
:1009E00004F132044FF000054FF0000150E700BF62
:1009F00090F0000F04BF0021704730B54FF48064C1
:100A000004F1320410F0004548BF40424FF00001AD
:100A10003EE700BF42004FEAE2014FEA31014FEAF0
:100A200002701FBF12F07F4393F07F4F81F060513F
:100A3000704732F07F4208BF704793F07F4F04BF8A
:100A400041F40021704730B54FF4607401F0004567
:100A500021F000411CE700BF50EA010208BF7047C7
:100A600030B54FF000050AE050EA010208BF7047B8
:100A700030B511F0004502D5404261EB41014FF421
:100A8000806404F132045FEA915C3FF4D8AE4FF029
:100A900003025FEADC0C18BF03325FEADC0C18BF0C
:100AA000033202EBDC02C2F1200300FA03FC20FA5D
:100AB00002F001FA03FE40EA0E0021FA02F11444AA
:100AC000BDE600BF70B54FF0FF0C4CF4E06C1CEAC3
:100AD00011541DBF1CEA135594EA0C0F95EA0C0F34
:100AE00000F0DEF82C4481EA030621EA4C5123EAA7
:100AF0004C5350EA013518BF52EA033541F48011D6
:100B000043F4801338D0A0FB02CE4FF00005E1FB88
:100B100002E506F00042E0FB03E54FF00006E1FBD2
:100B200003569CF0000F18BF4EF0010EA4F1FF0415
:100B3000B6F5007F64F5407404D25FEA4E0E6D4155
:100B400046EB060642EAC62141EA55514FEAC52066
:100B500040EA5E504FEACE2EB4F1FD0C88BFBCF5E2
:100B6000E06F1ED8BEF1004F08BF5FEA500E50F193
:100B7000000041EB045170BD06F0004646EA010159
:100B800040EA020081EA0301B4EB5C04C2BFD4EB8B
:100B90000C0541EA045170BD41F480114FF0000E84
:100BA000013C00F3AB8014F1360FDEBF002001F0F2
:100BB000004170BDC4F10004203C35DA0C341BDC6C
:100BC00004F11404C4F1200500FA05F320FA04F03E
:100BD00001FA05F240EA020001F0004221F0004172
:100BE00010EBD37021FA04F642EB06015EEA430EE5
:100BF00008BF20EAD37070BDC4F10C04C4F1200515
:100C000000FA04F320FA05F001FA04F240EA0200C7
:100C100001F0004110EBD37041F100015EEA430E98
:100C200008BF20EAD37070BDC4F1200500FA05F2B8
:100C30004EEA020E20FA04F301FA05F243EA020337
:100C400021FA04F001F0004121FA04F220EA020046
:100C500000EBD3705EEA430E08BF20EAD37070BD8C
:100C600094F0000F0FD101F00046400041EB01016C
:100C700011F4801F08BF013CF7D041EA060195F04E
:100C8000000F18BF704703F00046520043EB030308
:100C900013F4801F08BF013DF7D043EA06037047F5
:100CA00094EA0C0F0CEA135518BF95EA0C0F0CD000
:100CB00050EA410618BF52EA4306D1D181EA030146
:100CC00001F000414FF0000070BD50EA410606BF40
:100CD0001046194652EA430619D094EA0C0F02D185
:100CE00050EA013613D195EA0C0F05D152EA0336CA
:100CF0001CBF104619460AD181EA030101F00041E8
:100D000041F0FE4141F470014FF0000070BD41F030
:100D1000FE4141F4780170BD70B54FF0FF0C4CF40A
:100D2000E06C1CEA11541DBF1CEA135594EA0C0F29
:100D300095EA0C0F00F0A7F8A4EB050481EA030E76
:100D400052EA03354FEA013100F088804FEA03335D
:100D50004FF0805545EA131343EA12634FEA02222B
:100D600045EA111545EA10654FEA00260EF00041EC
:100D70009D4208BF964244F1FD0404F5407402D23E
:100D80005B084FEA3202B61A65EB03055B084FEACF
:100D900032024FF480104FF4002CB6EB020E75EBCC
:100DA000030E22BFB61A754640EA0C005B084FEAF4
:100DB0003202B6EB020E75EB030E22BFB61A754671
:100DC00040EA5C005B084FEA3202B6EB020E75EBBC
:100DD000030E22BFB61A754640EA9C005B084FEA34
:100DE0003202B6EB020E75EB030E22BFB61A754641
:100DF00040EADC0055EA060E18D04FEA051545EA30
:100E000016754FEA06164FEAC30343EA52734FEAD8
:100E1000C2025FEA1C1CC0D111F4801F0BD141EA51
:100E200000014FF000004FF0004CB6E711F4801FB6
:100E300004BF01430020B4F1FD0C88BFBCF5E06F96
:100E40003FF6AFAEB5EB030C04BFB6EB020C5FEAA6
:100E5000500C50F1000041EB045170BD0EF0004EFB
:100E60004EEA113114EB5C04C2BFD4EB0C0541EA2D
:100E7000045170BD41F480114FF0000E013C90E62A
:100E800045EA060E8DE60CEA135594EA0C0F08BFEE
:100E900095EA0C0F3FF43BAF94EA0C0F0AD150EAED
:100EA00001347FF434AF95EA0C0F7FF425AF104680
:100EB00019462CE795EA0C0F06D152EA03353FF4A8
:100EC000FDAE1046194622E750EA410618BF52EA25
:100ED00043067FF4C5AE50EA41047FF40DAF52EAF9
:100EE00043057FF4EBAE12E74FF0FF3C06E000BF96
:100EF0004FF0010C02E000BF4FF0010C4DF804CDA3
:100F00004FEA410C7FEA6C5C4FEA430C18BF7FEA62
:100F10006C5C1BD001B050EA410C0CBF52EA430C90
:100F200091EA030F02BF90EA020F0020704710F110
:100F3000000F91EA030F58BF994208BF90422CBF9F
:100F4000D8176FEAE37040F0010070474FEA410C98
:100F50007FEA6C5C02D150EA013C07D14FEA430CB6
:100F60007FEA6C5CD6D152EA033CD3D05DF8040B27
:100F7000704700BF8446104662468C461946634659
:100F800000E000BF01B5FFF7B7FF002848BF10F130
:100F9000000F01BD4DF808EDFFF7F4FF0CBF012075
:100FA00000205DF808FB00BF4DF808EDFFF7EAFFF1
:100FB00034BF012000205DF808FB00BF4DF808EDAC
:100FC000FFF7E0FF94BF012000205DF808FB00BFA1
:100FD0004DF808EDFFF7CEFF94BF012000205DF82B
:100FE00008FB00BF4DF808EDFFF7C4FF34BF012038
:100FF00000205DF808FB00BF4FEA410C7FEA6C5C03
:1010000002D150EA013C0AD14FEA430C7FEA6C5C02
:1010100002D152EA033C02D14FF0000070474FF07A
:10102000010070474FEA410212F5001215D211D5A6
:101030006FF47873B3EB625212D94FEAC12343F0D5
:10104000004343EA505311F0004F23FA02F018BF57
:10105000404270474FF00000704750EA013005D120
:1010600011F0004008BF6FF0004070474FF00000E3
:10107000704700BF00F1340191E838009C46A64655
:101080004CF8045D90E8FF0FE54600BD90EC210BA5
:10109000704700BF80EC210B704700BF90EC200B25
:1010A000704700BF80EC200B704700BFD0EC200BD6
:1010B000704700BFC0EC200B704700BFF0EC02018E
:1010C000F0EC0211F0EC0221F0EC0231F0EC024104
:1010D000F0EC0251F0EC0261F0EC0271F0EC0281F4
:1010E000F0EC0291F0EC02A1F0EC02B1F0EC02C1E4
:1010F000F0EC02D1F0EC02E1F0EC02F1704700BF3D
:10110000E0EC0201E0EC0211E0EC0221E0EC023143
:10111000E0EC0241E0EC0251E0EC0261E0EC027133
:10112000E0EC0281E0EC0291E0EC02A1E0EC02B123
:10113000E0EC02C1E0EC02D1E0EC02E1E0EC02F113
:10114000704700BFB0FC0181B0FC0191B0FC01A16F
:10115000B0FC01B1704700BFA0FC0181A0FC01916F
:10116000A0FC01A1A0FC01B1704700BFEC4600B596
:101170002DE900502DE9FF1F4FF000032DE90C0071
:1011800001A908F0ABF9DDF840E012B0704700BFEC
:10119000EC4600B52DE900502DE9FF1F4FF000038C
:1011A0002DE90C0001A908F0D5F9DDF840E012B0F6
:1011B000704700BFEC4600B52DE900502DE9FF1F38
:1011C0004FF000032DE90C0001A908F0E5F9DDF866
:1011D00040E012B0704700BFEC4600B52DE900506A
:1011E0002DE9FF1F4FF000032DE90C0001AB08F0C3
:1011F000A9F9DDF840E012B0704700BFEC4600B539
:101200002DE900502DE9FF1F4FF000032DE90C00E0
:1012100001AA08F019FADDF840E012B0704700BFEB
:101220000348044B834202D0034B03B11847704775
:101230002C0700202C070020000000000548064B6A
:101240001B1AD90F01EBA301491002D0034B03B1C4
:10125000184770472C0700202C07002000000000D2
:1012600010B5064C237843B9FFF7DAFF044B13B1EE
:101270000448AFF300800123237010BD2C07002029
:10128000000000004CA0000808B5054B1BB1054943
:101290000548AFF30080BDE80840FFF7CFBF00BFAF
:1012A00000000000300700204CA0000882B000239E
:1012B00001930093344A136843F480331360324B34
:1012C0001B6803F400330093019B01330193009BDF
:1012D0001BB9019BB3F5A04FF1D12B4B1B6813F445
:1012E000003F06D001230093009B012B04D002B0E5
:1012F000704700230093F7E7234B1A6C42F08052AB
:101300001A6422490A6842F440420A609A689A6064
:101310009A6842F400429A609A6842F4A0529A6035
:101320001B4A5A601A6842F080721A60164B1B689A
:1013300013F0007FFAD0154A136843F4803313602A
:10134000124B5B6813F4803FFAD0104A136843F4E1
:10135000003313600D4B5B6813F4003FFAD00D4B64
:1013600040F205721A60A3F580639A6822F00302C6
:101370009A609A6842F002029A60034B9B6803F0FD
:101380000C03082BF9D1B2E700380240007000408E
:10139000195A4007003C024010B5104CD4F8883070
:1013A00043F47003C4F888300D4B1A6842F0010210
:1013B0001A60002199601A6822F0847222F4803247
:1013C0001A60084A5A601A6822F480221A60D960AA
:1013D000FFF76CFF4FF00063A36010BD00ED00E06D
:1013E00000380240103000247047FEE7FEE7FEE7B9
:1013F000FEE770477047704700B589B0B42000F031
:101400007BF84FF4E1315A2000F042F900F0F4FF8C
:1014100000F0D2FA01F0D4FA32236422FA214FF418
:10142000B47000F056FB32236422FA214FF40270AC
:1014300000F04FFB164C636800209847154B029351
:101440003226019664250095FA234FF4B4720021E8
:101450000DF11F0001F05AFE0F4B0293019600950B
:10146000FA234FF4027201210DF11E0001F04EFE2D
:10147000A389228C04920393084B029300200190CD
:1014800020230093F022014600F0FAFBD2E700BFD0
:101490000C00002068A0000870A0000874A00008DC
:1014A00000B585B003788BB1012B1ED1104A1368AB
:1014B000013B136003930F4B029300200190202106
:1014C00000910B46F02200F0DBFB0EE0084A1368A7
:1014D000013313600393074B0293002001902021F6
:1014E00000910B46F02200F0CBFB05B05DF804FB49
:1014F0004807002080A000084FF0E022136923F085
:1015000004031361C008054B1870C0EB401300EBD7
:101510008300C000024B1880704700BF4E070020B8
:101520004C0700200E4B1B7803FB00F04FF0E0232C
:10153000586100229A611A6942F001021A614FF063
:10154000E0231B6903F00113012BF8D04FF0E023D7
:101550001A6922F001021A6100229A61704700BFE5
:101560004E0700200E4B1B8803FB00F04FF0E023DA
:10157000586100229A611A6942F001021A614FF023
:10158000E0231B6903F00113012BF8D04FF0E02397
:101590001A6922F001021A6100229A61704700BFA5
:1015A0004C07002038B50C4CA4FB0034630A1C46E1
:1015B0004FF4077202FB130085B205E04FF4077089
:1015C000FFF7D0FF013CE4B2002CF7D105B938BDDC
:1015D0002846FFF7C7FFFAE749D6B9F22DE9F043ED
:1015E000DDF81C80089F4FF0000C0AE0C5682E4013
:1015F000C660C56807FA04FE45EA0E05C5600CF131
:10160000010CBCF10F0F2DD84FF0010E0EFA0CFE9D
:101610003EEA0104F3D1D0F800904FEA4C040325D0
:10162000A540EE4329EA05050560056802FA04F9BC
:1016300045EA09050560551E012DD7D88568354056
:101640008560856808FA04F945EA090585604568FA
:1016500025EA0E054560456803FA0CFE45EA0E05CD
:101660004560C3E7BDE8F08312F0010F03D0836942
:10167000194381617047836943EA0143836170477D
:101680000369194201D00120704700207047000013
:1016900070B582B0334B03FB00F007EE900AF8EE12
:1016A000676A090107EE901AB8EE677AC6EE877A84
:1016B000BCEEE77A17EE103A9BB207EE103AB8EE9E
:1016C000C77A77EEC77AB3EE007A67EE877AFCEED8
:1016D000E77A17EE904A1B019BB213FA84F4A4B286
:1016E000214B1A6B42F001021A635A6C42F010024D
:1016F0005A641E4D012301930226009600233246B0
:101700004FF4C061284600F0A3F8072209212846BB
:1017100000F0E5F807220A21284600F0E0F8A5F5D8
:1017200070452C81AB89C3F30E03AB81AB899BB2AF
:1017300043F00803AB81AB899BB243F00403AB8158
:10174000AB899BB243F02003AB81334625220321B2
:10175000084600F0DDF8AB899BB243F40053AB813F
:1017600002B070BD40420F0000380240000002404D
:10177000184B1B8813F0200F26D0164B9B88DBB22A
:1017800015490A88B1F9001000291DDB12F4804FB9
:101790000CD00A2B03D0104B00221A8070476FEA3E
:1017A00042426FEA52420C4B1A8070470D2B0CD00C
:1017B000C2F30D0109484354013292B2064B1A801C
:1017C000C72A01D900221A80704742F48042024B96
:1017D0001A80704700100140500700205407002075
:1017E000034B9880024B1B8813F0400FFAD07047D0
:1017F000001001400FB410B5C2B044AA52F8041B47
:10180000019202A801F064FE002403E0FFF7E8FF64
:101810000134E4B202AB185D0028F7D142B0BDE854
:10182000104004B070470000C3431B0203F4E063A0
:101830000649CA6822F4E0621204120C42F0BF6248
:1018400042F400321343CB60704700BF00ED00E06C
:101850002DE9F043079F089E4FF0000C01E00CF1CA
:10186000010CBCF10F0F38D84FF0010E0EFA0CFE30
:101870003EEA0104F3D1D0F800904FEA4C0503246E
:10188000AC406FEA040829EA04040460046802FA20
:1018900005F944EA09040460541E012CDFD8846869
:1018A00008EA04048460846807FA05F944EA090434
:1018B0008460446824EA0E044460446803FA0CFE21
:1018C00044EA0E044460C46808EA0404C460C468BE
:1018D00006FA05F52C43C460C1E7BDE8F08310B4F7
:1018E000CB08083350F8234001F0070189004FF07E
:1018F0000F0C0CFA01FC24EA0C0440F8234050F8C9
:1019000023408A40144340F823405DF8044B70475D
:10191000F8B507460C4616461D461846FFF784FFE5
:10192000C5F1040307FA03F10F232B4104EA030571
:1019300070090A4C54F8203006F01F070122BA4003
:10194000134344F82030344494F80033294301F021
:101950000F0143EA011384F80033F8BD00E100E011
:1019600008B5044B1B6803B908BD034B1A6800F0A7
:1019700015FAF9E72C0800200400002008B5074BF1
:101980009871074B1B6803B908BD00F0F3F9044ACE
:10199000D18A024B1980128B5A80F5E71C0800206F
:1019A0002C08002008B5034B1B6803B908BD00F0E4
:1019B00077FAFBE72C08002008B500F079FB1A4BFA
:1019C000988070BB184B9B8849F2413293420BD0F0
:1019D00045F21032934207D045F21052934203D0A1
:1019E00041F66312934210D1104B5A6822F00F0255
:1019F0005A605A6822F470625A605A6842F00402CF
:101A00005A605A6842F480625A600120FFF7B6FFBC
:101A1000074B0122C3F894224FF6FF70FFF7C2FF75
:101A200008BD00F091FBCDE71C080020000100A0DC
:101A3000008040422DE9F04F83B08046A2EB000ABF
:101A40008946A3EB010BBAF1000F0DDD01220092D4
:101A5000BBF1000F14DD01230193DA451CDD56466E
:101A600000252F462C461BE0BAF1000F05D0A0EB55
:101A7000020A4FF0FF320092EAE7CDF800A0E7E754
:101A8000BBF1000F05D0A1EB030B4FF0FF33019327
:101A9000E3E7CDF804B0E0E75E46E1E70134A4B245
:101AA000731C9C4212DC1FFA89F11FFA88F0FFF7C1
:101AB00057FF57445D44BE4202DABF1B009B984467
:101AC000AE42EBDAAD1B019B9944E7E703B0BDE8FA
:101AD000F08FF8B506460F461C46024495B20B46F9
:101AE0002A46FFF7A7FF3C44A4B2234632463946B4
:101AF0003046FFF79FFF23462A4639462846FFF720
:101B000099FF23462A4621463046FFF793FFF8BD4A
:101B10002DE9F04F83B0814688461F469DF830A0DE
:101B200013F0070318BF012303EBD7034FEA570B4A
:101B30001BFB03FB5FFA8BF30193203AD1B24446BF
:101B40004FF0000B56E001EB4100464B03EB8003E6
:101B500013F80B500026CDF800B08B4627E0424B1F
:101B600003EB011313F80B50F4E701EBC1003F4BFB
:101B700003EB800313F80B50ECE73D4B03EBC11371
:101B800013F80B50E6E73B4B1A682146484600F035
:101B900005F96D00EDB20134A4B2374B5B88A34266
:101BA0005CD9A4EB0803BB4210D00136F6B2072E75
:101BB00019D815F0800FE6D1BAF1000FE9D12F4BFB
:101BC0001A682146484600F0E9F8E2E75946DDF890
:101BD00000B009F101091FFA89F9274B1B884B4511
:101BE0003CD9444602E05946DDF800B00BF1010251
:101BF0005FFA82FB019B9B4530D2A7F10C03142BAB
:101C00002CD801A050F823F0471B00085D1C0008E9
:101C10005D1C00085D1C00085F1B00085D1C0008BF
:101C20005D1C00085D1C00085D1C00085D1C0008B0
:101C30005D1C00085D1C00086B1B00085D1C000893
:101C40005D1C00085D1C00085D1C00085D1C000890
:101C50005D1C00085D1C00087B1B000803B0BDE88C
:101C6000F08F00BF24E5000834DF0008D8D1000859
:101C700058A20008040000201C08002000000020DA
:101C80002DE9F04FC5B082460D46914698469DF825
:101C900038719DF83CB151AA0392509904A801F003
:101CA00017FCD1441FFA89F9A8441FFA88F8544652
:101CB00004AE0CE0454517D2CDF800B03B462946AE
:101CC0002046FFF725FF04EB5704A4B20136327813
:101CD000A2F12003DBB25E2B06D84C45EAD35FFAB3
:101CE0008AF43D44ADB2E5E745B0BDE8F08F0000B1
:101CF000012806D020B9064A936923F001039361B5
:101D00007047034A936943F001039361704700BF32
:101D100000680140012909D081B9D8B9104AD2F828
:101D2000843023F00103C2F8843007E060B90C4A24
:101D3000D2F8843043F00103C2F88430084A536A71
:101D400043F0010353627047064A536843F00103AE
:101D50005360F3E7034A536823F001035360EDE750
:101D60000068014000690140014B1875704700BFD1
:101D70002C080020084B587520B95A68DA821A6876
:101D80001A837047012800D07047034B1A68DA8223
:101D90005A681A83F8E700BF2C08002070B4104B73
:101DA0005B7D6BB10E4C257D0E4B53F82550E369DE
:101DB000246804FB010101FB03F3EA5270BC704785
:101DC000074B1D7D074C54F82550DC691E685B6885
:101DD0001B1A013B03FB061101FB04F3EA52EDE77A
:101DE0002C0800204C08002070B5294C647D002C84
:101DF00043D086469C46264D2868AEEB020310FA77
:101E000083F39BB2013B9BB22E7D224C54F82640BB
:101E1000ED6901FB00E000FB05441F4D286B40F419
:101E2000000028631D48056825F0010505604FF492
:101E300040350560022545630364C463ACEB0103D0
:101E40000133A2EB0E02013243EA02434364049BD6
:101E50008363036843F00103036000230F4A526861
:101E600012F0020F03D10133B3F5001FF6D30B4A72
:101E7000936843F00203936070BD8E4604494C683A
:101E8000A21A511E1A46241A04F1FF3CB3E700BF00
:101E90002C0800204C0800200038024000B002400E
:101EA00000B583B0074BDA8A1B8B013B013A0090E7
:101EB0009BB292B200210846FFF796FF03B05DF88F
:101EC00004FB00BF2C08002010B4224C236823F030
:101ED0008053236000231F4C246814F0005F06D059
:101EE00041F6FE74A34202D801339BB2F3E741F6F8
:101EF000FF74A34229D0090741EA80101549C1F8AF
:101F00008800D1F88C0020F44030C1F88C00D1F862
:101F10008C0040EA0242C1F88C200A6842F08052EC
:101F20000A600C4A126812F0005F06D141F6FE7298
:101F3000934202D801339BB2F3E741F6FF7293421A
:101F400005D000205DF8044B70470120FAE702201D
:101F5000F8E700BF00380240F8B5BDF81840002887
:101F60003FD1CF183B4DEE68C6F30B463744EE68C1
:101F7000C6F30B4C6144013141EA0741C5F88810B2
:101F80001619E968C1F30A010E44E968C1F30A01B0
:101F90000A44013242EA0642C5F88C20D5F8942062
:101FA00002F00702012A18D00FD8C2B9042202FB9E
:101FB00003F3DA1C42EA0343264AC2F8B030C2F8FF
:101FC000B4400121FFF7A6FEF8BD053AD2B2012ABE
:101FD00001D80122EBE70222E9E70322E7E7022228
:101FE000E5E7CE181B4DEF68C7F30B473E44EF689B
:101FF000C7F30B473944013141EA0641164EB1603F
:102000001119EF68C7F30A0C6144ED68C5F30A05BE
:102010002A44013242EA0142F260726902F0070288
:10202000012A13D00AD89AB9042202FB03F3DA1C5E
:1020300042EA0343084A13635463C2E7053AD2B243
:10204000012A01D80122F0E70222EEE70322ECE7A1
:102050000222EAE7006801400069014010B59DF8DE
:1020600008E09DF80C409DF810C080B90E48C0F8FB
:10207000AC10C0F89420C0F89830059B43EA0E637A
:10208000C0F89C304CEA0424C0F8A04010BD0748BA
:10209000C16242618361059B43EA0E63C3614CEAFE
:1020A00004240462F2E700BF0068014000690140B7
:1020B00030B583B01F4A136B43F4A073136301253B
:1020C0000195002400942346224640211A48FFF738
:1020D000BFFB019500942346224684211748FFF751
:1020E000B7FB174BD3F81832DBB2164AD2F80812F6
:1020F00043EA4103DBB2D2F81C2243EA8203DBB29B
:10210000042B11D8DFE803F00312070A0D0044F294
:10211000423003B030BD47F21600FAE747F218002C
:10212000F7E748F21600F4E70020F2E747F28400F0
:10213000EFE700BF003802400018024000200240D4
:1021400000004342000044422DE9F04784B0904B28
:102150005A6C42F080625A641A6B42F002021A63AF
:102160001A6B42F4F0721A63012501950227009759
:1021700000232A4620218748FFF76AFBDFF838A2B0
:1021800001954FF00308CDF8008000233A464FF444
:1021900080615046FFF75CFBDFF820920195CDF897
:1021A000008000233A464FF40C614846FFF750FB8D
:1021B000794E0195CDF8008000233A464FF47E41D8
:1021C0003046FFF745FB754C0195CDF800800023A4
:1021D0003A4640F2F7612046FFF73AFB0E220A2109
:1021E0005046FFF77CFB0E2206214846FFF777FB9F
:1021F0000E2207214846FFF772FB0E220B214846AC
:10220000FFF76DFB0E2209213046FFF768FB0E2217
:102210000A213046FFF763FB0E220B213046FFF701
:102220005EFB0E220C213046FFF759FB0E220D21DA
:102230003046FFF754FB0E2211463046FFF74FFBA6
:102240000E220F213046FFF74AFB0E2200212046C6
:10225000FFF745FB0E2229462046FFF740FB0E22E2
:1022600039462046FFF73BFB0E2204212046FFF7AC
:1022700036FB0E2205212046FFF731FB0E220621F8
:102280002046FFF72CFB0E2207212046FFF727FBF5
:102290000E2209212046FFF722FB0E220A212046AA
:1022A000FFF71DFB3E4C4FF4806323604FF4167321
:1022B000636014232381A4F80A808C22A281E38125
:1022C000A02323820C2363822A4639464FF4B4703C
:1022D000FFF7FAFD3348002686616389013B2289B6
:1022E000013A43EA024383606389E1891944013971
:1022F0002289B4F80CC094440CF1FF3C41EA0C4133
:10230000C160E1890B4461680B4403F1FF3EB4F8FE
:102310000CC0624421680A4402F1FF3C4EEA0C41C1
:102320000161618A0B44013B218A0A44013A43EA74
:1023300002434361C6622846FFF7DAFC1A491B4B89
:102340001960E76103960723029306230193009621
:10235000FF233A463046FFF781FEA3880093238887
:10236000324631463046FFF7F7FD2268104B1A809F
:1023700062685A803046FFF7F7FC0E4BC3F8945260
:102380004FF0FF30FFF78CFD04B0BDE8F08700BFD1
:102390000038024000040240001C024000200240BD
:1023A0002C08002000680140000000C04C080020FC
:1023B0001C08002000804042001402400018024027
:1023C000C0F1040C012000FA0CF0014341EA421173
:1023D00041EA4321074B19650023064A926D12F02A
:1023E000200F05D00133B3F5001FF6D3012070474D
:1023F00000207047000100A02DE9F04782B0954B06
:102400009A6B42F001029A631A6B42F07C021A63E3
:10241000DFF854A201260196032700970023022229
:102420000D215046FFF714FADFF84092019600970D
:10243000002302224CF203714846FFF709FA864D49
:1024400001960097002302224FF683712846FFF77A
:10245000FFF9824C01960097002302224FF63F01BC
:102460002046FFF7F5F9DFF8088201960097002370
:10247000022248F237114046FFF7EAF90C22002108
:102480005046FFF72CFA0C2202215046FFF727FA9C
:102490000C2239465046FFF722FA0C22002148460A
:1024A000FFF71DFA0C2231464846FFF718FA0C22B6
:1024B00008214846FFF713FA0C2209214846FFF786
:1024C0000EFA0C220A214846FFF709FA0C220E21C7
:1024D0004846FFF704FA0C220F214846FFF7FFF9A0
:1024E0000C2200212846FFF7FAF90C223146284633
:1024F000FFF7F5F90C2207212846FFF7F0F90C2227
:1025000008212846FFF7EBF90C2209212846FFF79E
:10251000E6F90C220A212846FFF7E1F90C220B21EB
:102520002846FFF7DCF90C2211462846FFF7D7F9B9
:102530000C220D212846FFF7D2F90C220E21284645
:10254000FFF7CDF90C220F212846FFF7C8F90C221E
:1025500000212046FFF7C3F90C2231462046FFF741
:10256000BEF90C2202212046FFF7B9F90C223946A8
:102570002046FFF7B4F90C2204212046FFF7AFF9FB
:102580000C2205212046FFF7AAF90C220B21204638
:10259000FFF7A5F90C2211462046FFF7A0F90C22FF
:1025A0000D212046FFF79BF90C220E212046FFF754
:1025B00096F90C220F212046FFF791F90C220021F9
:1025C0004046FFF78CF90C2231464046FFF787F969
:1025D0000C2202214046FFF782F90C2204214046DA
:1025E000FFF77DF90C2205214046FFF778F90C2210
:1025F00008214046FFF773F90C220F214046FFF7F0
:102600006EF9174C41F6D9132364164BA3640023CB
:102610001A4631461846FFF7D3FE4FF4FA70FEF71C
:1026200081FF00231A4602211846FFF7C9FE002346
:10263000082239461846FFF7C3FE40F23323002232
:1026400004211046FFF7BCFE40F2B453636502B0AC
:10265000BDE8F0870038024000100240001402403C
:10266000000100A06155110100080240000C024069
:1026700000180240F8B504460F46154600F050FA1F
:10268000282000F01FFB00F0AFFA200A00F01AFB30
:1026900000F0AAFAE0B200F015FB00F0A5FA00265F
:1026A000344601E00134E4B2AC4207D2385D00F0B8
:1026B00009FB00F099FA06460028F3D000F052FA20
:1026C0003046F8BD70B504460E46154600F028FAAF
:1026D000282000F0F7FA00F087FA200A00F0F2FA5A
:1026E00000F082FAE0B200F0EDFA00F07DFA00F0BE
:1026F00017FA292000F0E6FA00F076FA002408E044
:10270000681E201A18BF012000F004FB3055013468
:10271000E4B2AC42F4D300F025FA70BD10B584B039
:102720008DF8070000238DF80B309F4B1A7801328B
:10273000D2B21A709D4BA3FB0213DB0803EB830399
:10274000A2EB430313F0FF0F02D0092A00F2068127
:1027500001220DF1070148F24E10FFF7B3FF9DF87B
:1027600007309DF90720002A22DB9DF8070010F0B2
:102770000F0000F0F4808E4B1A78904200F2FE8039
:102780004FF6FF7383408B498C8EDB436FEA8343A4
:102790006FEA93438B868889D31C01EB43039880AF
:1027A0000B8C0F3221F8123000238DF80B3035E0FE
:1027B0007F4A127803F00F039A42D6D300238DF894
:1027C0000B3001220DF10B0148F24E10FFF752FFC2
:1027D000CBE7784B93F8443013F0010F5CD0764B85
:1027E00019889DF80F209DF80E3003EB02239BB251
:1027F0009DF80B20C91A6F48131D00EB4303998005
:102800009DF80D109DF80C3003EB0123103220F8D9
:1028100012309DF80B3001338DF80B309DF80B0012
:10282000634B1B78984269D2624B9B8E034113F035
:10283000010FEED0042203A9604B33F81000FFF71C
:1028400041FF5D4B9B8845F210529342C1D049F63F
:1028500006029342BDD047F296729342B9D0554BCF
:1028600093F8443013F0010F2DD09DF80D209DF802
:102870000C109DF80B3001EB02214E481A1D00EBA5
:10288000420291809DF80F109DF80E2002EB01226C
:10289000103320F81320BCE79DF80D209DF80C1094
:1028A0009DF80B3001EB022142481A1D00EB420259
:1028B00091809DF80F109DF80E2002EB012210333D
:1028C00020F81320A5E73C4B19889DF80F209DF8B0
:1028D0000E3003EB02239BB29DF80B20C91A35483A
:1028E000131D00EB430399809DF80D109DF80C30EB
:1028F00003EB0123103220F812308AE72D4A918928
:102900002D4A1288914205D82A4A118C2A4A5288A7
:1029100091421ED99DF8072012F00E0F09D0254BC9
:10292000DA899A815A8C1A841F4B00221A7001206E
:1029300015E0204AD91C02EB4101898891810F33AF
:1029400032F81330138480238DF8073094860120E9
:1029500005E0154B00221A70012000E000209DF8D0
:10296000073003F08F03802B0AD00F4B1B78F02B1E
:1029700002D90D4B0A221A7004B010BD0020EEE7F8
:102980000C4A938EB2F93420002A08DB094A4FF62C
:10299000FF719181118403F460439386E5E7C3F3EB
:1029A0000E03044A9386E0E754080020CDCCCCCC3B
:1029B000080000200C0000201C08002098E90008F6
:1029C00070B584B0474B1A6B42F480721A631A6B6D
:1029D00042F080021A63444D0124019400940023C4
:1029E00022464FF480712846FEF7F8FD3F4E0194D1
:1029F000009400231A4680213046FEF7EFFD00F0D8
:102A0000CDF800224FF480712846FEF72DFE0A20F3
:102A1000FEF7C8FD22464FF480712846FEF724FEDB
:102A20000A20FEF7BFFD0025019500942B462A469B
:102A300080213046FEF7D2FD6420FEF7B3FD04226C
:102A400002A948F24010FFF73DFE8DF80C502849CE
:102A500002A8FDF7B5FB78B1264902A8FDF7B0FB47
:102A600050B1254902A8FDF7ABFB28B1234902A8C4
:102A7000FDF7A6FB002833D102A92148FEF7BAFED4
:102A80001E4902A8FDF79CFB10B91E4B0A221A70C2
:102A900002238DF80830012202A948F24000FFF716
:102AA000E9FD0A20FEF77EFD00248DF80840012292
:102AB00002A948F24000FFF7DDFD134A92F84430C6
:102AC0001249897901F001010B4382F84430104921
:102AD000516063F07F0382F84430204604B070BD3B
:102AE0000120FBE70038024000200240001C0240A9
:102AF00088A000088CA0000894A000089CA00008F2
:102B0000A4A00008080000200C0000201C080020E1
:102B10001D27000808B50220FEF704FD08BD0000CF
:102B200038B50E4D012208212846FEF79DFD0C4CBC
:102B3000012240212046FEF797FDFFF7EBFF002220
:102B400008212846FEF790FDFFF7E4FF0022402110
:102B50002046FEF789FDFFF7DDFF38BD002002406B
:102B6000001C024010B50B4C002208212046FEF745
:102B70007BFDFFF7CFFF012240210748FEF774FDE0
:102B8000FFF7C8FF012208212046FEF76DFDFFF781
:102B9000C1FF10BD00200240001C024010B582B0F1
:102BA0000E4B1A6B42F080021A631A6B42F4807269
:102BB0001A630124019400942346224640210848C8
:102BC000FEF70CFD01940094234622460821054897
:102BD000FEF704FDFFF7C6FF02B010BD003802404B
:102BE000001C02400020024038B501220821134891
:102BF000FEF73AFDFFF78EFF012240211048FEF755
:102C000033FDFFF787FF002408210C48FEF738FD4D
:102C1000054648B10134E4B2FA2C02D8FFF77AFF36
:102C2000F2E7FFF79FFF0125002240210448FEF74D
:102C30001BFDFFF76FFF284638BD00BF0020024094
:102C4000001C024038B50F4C002208212046FEF738
:102C50000BFDFFF75FFF0C4D012240212846FEF7D8
:102C600003FDFFF757FF002240212846FEF7FCFC3A
:102C7000FFF750FF012208212046FEF7F5FCFFF781
:102C800049FF38BD00200240001C024010B501225F
:102C900008210A48FEF7E8FCFFF73CFF084C012238
:102CA00040212046FEF7E0FCFFF734FF00224021E0
:102CB0002046FEF7D9FCFFF72DFF10BD0020024093
:102CC000001C024070B50446002517E0E209082107
:102CD0000E48FEF7C9FCFFF71DFF0D4E01224021F3
:102CE0003046FEF7C1FCFFF715FF002240213046B9
:102CF000FEF7BAFC6400E4B20135EDB2072DE5D968
:102D0000012208210148FEF7AFFC70BD00200240FF
:102D1000001C024070B506460024254608E000224B
:102D200040211148FEF7A0FCFFF7F4FE0135EDB29B
:102D3000072D11D86400E4B2012240210A48FEF7B1
:102D400093FCFFF7E7FE08210848FEF799FC0028EE
:102D5000E5D00134E4B2E2E71EB9FFF797FF204661
:102D600070BDFFF76FFFFAE7001C02400020024031
:102D700070B50446002516E0002208211048FEF731
:102D800073FC6400E4B20F4E002240213046FEF78F
:102D90006BFC0120FEF7C6FB012240213046FEF706
:102DA00063FC0135EDB2072D08D814F0800FE3D095
:102DB000012208210248FEF757FCE2E770BD00BF80
:102DC00000200240001C024070B505462A4C00223B
:102DD00040212046FEF748FC284E002208213046BC
:102DE000FEF742FC00224FF480713046FEF73CFCB7
:102DF0002846FFF7BDFF0620FEF794FB0022402186
:102E00002046FEF731FC0120FEF78CFB0122402119
:102E10002046FEF729FC0120FEF784FB002240211A
:102E20002046FEF721FC0024254601E00135EDB2E5
:102E30000F2D18D86400A4B20F4E00224021304656
:102E4000FEF712FC0120FEF76DFB01224021304607
:102E5000FEF70AFC08210A48FEF712FC0028E5D01C
:102E60000134A4B2E2E7240901224FF4807103483F
:102E7000FEF7FAFB204670BD001C02400020024015
:102E80000018024030B585B00546002409E0284608
:102E9000FFF79AFF04AB03EB440323F80C0C013457
:102EA000A4B2042CF3D900201AE001339BB2042B06
:102EB00015D804AA02EB400232F80C2C04A901EB4D
:102EC000430131F80C1C8A42EFD904AD05EB400CEC
:102ED0002CF80C1C05EB430121F80C2CE5E72046EF
:102EE000032803D8441CA4B22346E0E700200123B2
:102EF00008E004AA02EB430232F80C2C104480B222
:102F000001339BB2032BF4D9034BA3FB0030C0F376
:102F10004F0005B030BD00BFABAAAAAA38B50B4C14
:102F2000002584F844500A4B9B7903F0010384F890
:102F30004430FFF745FD074B636094F8443063F07D
:102F40007F0384F84430284638BD00BF0C000020C1
:102F50001C0800201D27000870B505460C460D4BC7
:102F600093F8443013F0010F0AD09020FFF78AFF46
:102F70000646D020FFF786FF03462E80238070BDD3
:102F8000D020FFF77FFF06469020FFF77BFF034628
:102F9000F3E700BF0C00002030B583B005460C46B7
:102FA00001A90DF10600FFF7D7FF69460DF10200F8
:102FB000FFF7D2FFBDF80230BDF80620934203D8D8
:102FC00003F13101914205DA934220D302F131013C
:102FD00099421FDBBDF80000BDF80410884203D8F9
:102FE00000F1310C8C4506DA884215D3313181422B
:102FF00001DA00200CE013445B102B80BDF8043094
:10300000BDF8002013445B102380012000E0002065
:1030100003B030BD0020FBE70020F9E710B50446FF
:1030200080213648FEF72CFB002852D19CB1344950
:10303000A1F11400FFF7B0FF324BB3F93430002B8D
:1030400007DB304B4FF440429A869A89DA831A8C18
:103050005A86002010BD2A49A1F11400FFF79CFFF9
:103060000028E9D0274A9389B2F840105B1A1BB2B6
:10307000D2ED0E6A07EE903AF8EEE77A87EEA67A7E
:1030800021490B885B0807EE903AF8EEE77A77EE75
:10309000877AFCEEE77A17EE903A9381138CB2F8B8
:1030A00042001B1A1BB2D2ED0F6A07EE903AF8EEFF
:1030B000E77A87EEA67A4B885B0807EE903AF8EE3F
:1030C000E77A77EE877AFCEEE77A17EE903A138488
:1030D000B2E70C4B9A8EB3F93430002B08DB094B66
:1030E0000022DA835A864FF6FF729A811A84B0E77B
:1030F000C2F30E02034B9A86ABE700BF001C0240EE
:103100002C0000200C0000201C0800202DE9F043BA
:1031100085B08146884614461D46BDF83060BDF82E
:10312000347003F10B0102F10B000E9B029301239B
:10313000019320230093F02289B280B2FEF7A0FD14
:103140002F4B13F80830BBB92E4B9B89A34254D3A5
:103150002644B34251DC2B4B1B8CAB424DD32F4446
:10316000BB424ADC89F80080254B012203F8082085
:103170004846FEF795F940E0224B9B89A34222D3B3
:10318000A21993421FDC1F4B1B8CAB421BD3EA19C5
:10319000934218DC1C4B1B68002B2ED1A21992B253
:1031A000EB199BB2013B013A691C601C4FF6E074BD
:1031B00000949BB292B289B280B2FEF715FE124B18
:1031C00001221A6019E000230D4A02F808300E4A65
:1031D0001360FF2389F80030A21992B2EB199BB259
:1031E000013B013A691C601C4FF6FF7400949BB2CE
:1031F00092B289B280B2FEF7F7FD05B0BDE8F08368
:103200005C0800200C00002058080020DFF834D0B3
:10321000FEF7C2F80C480D490D4A002302E0D458CD
:10322000C4500433C4188C42F9D30A4A0A4C002310
:1032300001E013600432A242FBD300F00BFAFEF768
:10324000DBF8704700000320000000202C0700205E
:1032500090EC00082C070020800B0020FEE7000007
:10326000024A0349034800F0C9B800BF54000020D7
:10327000955A0008680000200C4B4168994210B52F
:10328000044601D002F006FCA168094B994202D025
:10329000204602F0FFFBE168064B994204D020462D
:1032A000BDE8104002F0F6BB10BD00BF680800206A
:1032B000D0080020380900202DE9F843314A324C6B
:1032C0003249DFF8DC90DFF8DC80314F11600025F7
:1032D00004232946082204F15C00C4E903352D4E7D
:1032E000A560C4E90055C4E90555656600F00CF910
:1032F00004F15800C4E90749C4E90987E66200F00F
:10330000D1F92946244B6367082204F1C400C4E9BB
:103310001A55C4E91E552567C4F8CC50C4F880502E
:1033200000F0F2F804F1680304F1C000C4F884303E
:10333000C4E92298C4E9247600F0B4F9174BC4F824
:10334000DC30294604F596700822C4E93455C4E9F6
:103350003855C4F8D850C4F83451C4F8E85000F0D7
:10336000D3F804F1D003C4E93D87C4F8F09004F524
:103370009470C4F8FC60C4F8EC30BDE8F84300F089
:1033800091B900BFA0090020680800206132000840
:10339000A5340008C9340008090001001200020029
:1033A000413400086534000810B504460A4800F0AE
:1033B0007DF9636B23B9094B094A1B68626323B12A
:1033C000BDE81040044800F073B9FFF775FFBDE891
:1033D0001040014800F06CB9B0090020A00900209D
:1033E00079320008014800F061B900BFB00900203F
:1033F000014800F05DB900BFB00900202DE9F84395
:103400000746884616464FF00009D6E90154013DAB
:1034100010D4A389012B08D9B4F90E300133214609
:10342000384602D0C04749EA0009013D6B1C04F14F
:103430006804EED13668002EE7D14846BDE8F8832F
:1034400010B50C46B1F90E1000F0D8F8002803DBD7
:10345000236D0344236510BDA38923F48053A38106
:1034600010BD00BF2DE9F0410C46B1F90C101F460C
:10347000CB05054616460BD421F48051A1813B466D
:10348000B4F90E1032462846BDE8F04100F0CCB841
:10349000B4F90E100223002200F09AF8B4F90C10CF
:1034A000EAE700BF10B50C46B1F90E1000F090F835
:1034B000B4F90C30421C0EBF23F4805343F4805304
:1034C0002065A38110BD00BFB1F90E1000F06EB8E9
:1034D00070B59AB013460A4E0A466FF00041029149
:1034E00005910849039104460025306819956946FD
:1034F0000094049400F004FD009B1D701AB070BD90
:10350000600000200802FFFF830730B547D0541E3B
:10351000002A3ED0CAB2034601E0013C39D303F889
:10352000012B9D07F9D1032C2CD9CDB205EB052534
:103530000F2C05EB054535D9A4F1100222F00F0C34
:1035400003F1100EE6444FEA121C1A46C2E9005578
:10355000C2E9025510327245F8D10CF1010214F0A3
:103560000C0F03EB021204F00F0C13D0ACF10403A8
:1035700023F003030433134442F8045B9342FBD16A
:103580000CF003042CB1C9B21C4403F8011BA34284
:10359000FBD130BD64461346002CF4D1F9E7034655
:1035A0001446C0E71A46A446E0E700BF38B5074D09
:1035B0000022044608462A6006F0F8FC431C00D0AE
:1035C00038BD2B68002BFBD0236038BDA409002038
:1035D00038B50C46084D8446114620461A4600234D
:1035E0002B60644606F00AFD431C00D038BD2B68F2
:1035F000002BFBD0236038BDA409002038B50C4651
:10360000084D8446114620461A4600232B60644626
:1036100006F0FCFC431C00D038BD2B68002BFBD00F
:10362000236038BDA409002038B50C46084D8446F7
:10363000114620461A4600232B60644606F0FCFC27
:10364000431C00D038BD2B68002BFBD0236038BD55
:10365000A409002070B50F4B0F4DAB42A3EB05063C
:1036600007D0B610002455F8043B01349847A64211
:10367000F9D806F0EBFC094D094B5E1BAB424FEA53
:10368000A60606D0002455F8043B01349847A6420C
:10369000F9D870BD84EC000884EC000884EC0008C4
:1036A0008CEC0008704700BF704700BF704700BF38
:1036B000704700BF024B13B1024800F005B87047D5
:1036C00000000000815D0008002301461A461846EC
:1036D00002F0AABB2DE9F84306460820894602F00D
:1036E00063FBDFF8A4800546304600F0FDFBD8F808
:1036F00008305F6827F00307A7F11104A4EB090461
:103700002C44B4FBF5F4013C05FB04F4A54208DCB1
:103710000021304602F022FBD8F808303B449842A2
:1037200005D0304600F0E6FB0020BDE8F88361429A
:10373000304602F013FB01300FD0114AD8F80830A0
:103740003F1B47F001075F60136830461B1B136087
:1037500000F0D0FB0120BDE8F8830021304602F0E4
:10376000FDFAD8F80820831A0F2BDADD43F00103A5
:103770005360044B02491B68C01A0860D1E700BFC0
:10378000B8090020AC010020B801002000297CD03D
:103790002DE9F0410C46804600F0A6FB54F8043CAD
:1037A000754FA4F1080523F001016818BE6842684E
:1037B000864222F0030200F08380DE07426000EBC5
:1037C000020C33D454F8084CDCF804302D1B21448F
:1037D000AC6807F1080C644503F0010364D0D5F828
:1037E0000CE0C4F80CE0CEF80840002B00F081801B
:1037F00041F001036B600160B1F5007F22D278686F
:10380000CB080122490901338A40024357F833109B
:103810007A6007EBC302083AC5E9021247F8335051
:10382000CD604046BDE8F04100F064BBDCF80430F8
:10383000DB072BD541F00103B1F5007F44F8043CD0
:103840000160DCD3B1F5206F4FEA512353D28B09CD
:1038500003F1390003F13802C300F818FB580838A7
:10386000984203D161E09B68984204D05A6822F0E4
:1038700003028A42F7D8D868C5E902308560DD6066
:103880004046BDE8F04100F035BB7047114407F1F8
:10389000080C836863453FD0C268DA60936041F0EA
:1038A00001036B606950A7E7002B5FD10A44D0E9A0
:1038B0000213CB60996042F001036B60AA50B0E73D
:1038C000DB070A4407D454F8083CED1A1A44D5E93A
:1038D0000213CB60996042F001036B60274BBD601F
:1038E0001B6893429DD8264B40461968FFF7F2FEAD
:1038F00097E71144CDE7142B08D9542B1DD80B0B97
:1039000003F16F0003F16E02C300A6E703F15C0050
:1039100003F15B02C300A0E741F00103C7E90455CE
:10392000C5E902CC6B6069507BE77968921001248D
:1039300004FA02F20A437A609EE7B3F5AA7F06D83A
:10394000CB0B03F1780003F17702C30085E740F267
:103950005452934206D88B0C03F17D0003F17C0294
:10396000C3007AE74FF47E737E2276E741F00103CD
:103970006B60016055E700BFB8010020B001002076
:10398000E80900202DE9F04F01F10B05162D83B059
:10399000064623D8102900F2AF8000F0A5FA1025C2
:1039A00018230220B74F3B44A3F108025C689442FD
:1039B00000F01E816368E268A16823F00303CA6017
:1039C0002344304691605A6842F001025A6000F088
:1039D00091FA0834204603B0BDE8F08F35F00705B2
:1039E00000F18A80A94200F2878000F07DFAB5F5E7
:1039F000FC7FC0F06E816B0A00F08280042B00F225
:103A00001D81AB0903F1390003F1380EC3009D4F4E
:103A10003B44A3F1080C5C68A44507D10DE0002AE3
:103A2000E16880F2DF808C4507D00C46636823F0A4
:103A300003035A1B0F2AF2DD7046DFF860823C69EF
:103A4000444500F0BC80636823F0030CACEB050335
:103A50000F2B00F34281002BC7E9048880F22D81EF
:103A6000BCF5007FD7F804E080F0C8804FEADC01A5
:103A700001314FEA5C1C012303FA0CF357F83120A3
:103A8000A2604EEA030E07EBC103083BE360C7F8F0
:103A900004E047F83140D46083104FF0010C0CFA79
:103AA00003FCF44532D81CEA0E0F08D120F00300C5
:103AB0004FEA4C0C1CEA0E0F00F10400F8D007EBA3
:103AC000C00AD6468146DEF80C300BE0596821F07A
:103AD00003014A1B0F2A1C46DB6800F3BB80002A47
:103AE00080F2DE809E45F1D109F1010919F0030F42
:103AF0000EF1080EE7D119E10C233360002469E7C9
:103B00004FF4007340204FF03F0E80E7BC686368BD
:103B100023F00309A94503D3A9EB05030F2B51DCBF
:103B2000594B1B68082003F1100804EB09030093AC
:103B300002F03AF9554A13680133A844834605D088
:103B400008F1FF388044434203EA08084146304602
:103B500002F004F9B0F1FF3F4C4A824600F0D880F1
:103B6000009B834200F2D280494B186840440BF11D
:103B7000FF311860844640F0FC801AEA010F40F0E3
:103B8000F880D7F808A0C84448F00102CAF8042019
:103B9000404B1968814238BF18603F4B1968814219
:103BA00038BF1860544622F00308A845A8EB050367
:103BB00001D30F2B06DC304600F09CF99EE7D7F8C6
:103BC00004E069E7621943F0010345F0010565600F
:103BD0003046BA60536000F08DF90834204603B0D7
:103BE000BDE8F08FA2682344D16030468A60EAE6DF
:103BF000DC68A3427FF4DEAE02301EE7BCF5206F26
:103C00004FEA5C227BD3142A00F2128102F15C039A
:103C1000DB005B32F918FB580839994203D1ECE01C
:103C20009B68994204D05A6822F003026245F7D893
:103C3000D968C4E902318C60DC602DE7142B6AD9A5
:103C4000542B00F2FE802B0B03F16F0003F16E0E7C
:103C5000C300DCE6D4F808C03046661945F001051B
:103C60006560CCF80C30C3F808C042F00103C7E926
:103C70000466C6E902887360625000F03BF90834BC
:103C8000A8E600BFB8010020E8090020AC01002030
:103C9000B8090020E4090020E0090020C00100204C
:103CA000214430464A6842F001024A6054F8082F25
:103CB000D3609A6000F01EF98CE6A4443046DCF82C
:103CC000043043F00103CCF8043000F013F9083459
:103CD00080E6E80805F1080364E6621943F0010193
:103CE00045F0010565603046C7E90422C2E9028853
:103CF000516044F80C3000F0FDF808346AE64FEAF1
:103D00009C1202F13903DB00383283E7BC4228D031
:103D1000BC68626847E703F15C0003F15B0EC30017
:103D200075E65AF80839534540F0D98010F0030F72
:103D300000F1FF30F5D17B6823EA0C037B604FEA8A
:103D40004C0C9C453FF6E2AEBCF1000F04D1DDE621
:103D50004FEA4C0C09F104091CEA030FF8D048465D
:103D6000ADE6604B186808EB000C0BF1FF31C3F8AF
:103D700000C0106801306ED0009AAAEB02026244C3
:103D80001A601AF00702CDE9002340D0C2F1080200
:103D90009244D04408EA01005A44121A02EA010B84
:103DA0005946304601F0DAFF421C019B6FD0A0EB70
:103DB0000A0000EB0B081868C7F808A048F00102D9
:103DC0005844BC42CAF8042018603FF4E1AEB9F18F
:103DD0000F0F43D96168A9F10C0222F0070201F02C
:103DE0000101114361604FF0050CA1180F2AC1E9D0
:103DF00001CC54D8DAF80420CAE692104FF0010C36
:103E00000CFA02F24EEA020EC7F804E011E70AEBE0
:103E100008020A40ABEB020202EA010B59463046A7
:103E200001F09CFF431C019BC1D1DDF800B0C2E74B
:103E3000542A17D84FEA1C3202F16F03DB006E32AE
:103E4000E8E6B3F5AA7F17D8EB0B03F1780003F18E
:103E5000770EC300DBE5C2F800A092E70123CAF8A1
:103E60000430A8E6B2F5AA7F24D84FEADC3202F18A
:103E70007803DB007732CDE640F25452934224D8E7
:103E8000AB0C03F17D0003F17C0EC300BFE5009A8B
:103E9000083A9044A8EB0A084FF0000B8BE7304635
:103EA00004F108010093FFF771FC009BD7F808A00C
:103EB00018689FE740F254539A420CD84FEA9C424C
:103EC00002F17D03DB007C32A4E64FF47E737F2099
:103ED0004FF07E0E9BE54FF47E737E229AE67B6860
:103EE0002DE700BFB80900200148FFF7DFBB00BF86
:103EF000A80900200148FFF7DBBB00BFA80900208C
:103F00002DE9F04FD9B00C46099115460B93834625
:103F100001F020FF036816931846FCF711FB0021FF
:103F20001490082228A8FFF7EFFAA389190603D5F1
:103F30002369002B00F05E879FED7F7B0023CDE996
:103F40002D33CDE917338DED107B2FAA0E932C92D4
:103F5000144615931C93199306932E46B246784B3C
:103F6000D3F8E45001F0F0FE28AA0346009224A9F9
:103F700052465846A847002800F0B180C0F2A780FA
:103F8000249A252A034601D09A44E8E7BAEB0607AB
:103F9000054640F0A880002319464FF0FF328DF807
:103FA000873007930AF1010A9AF8003005920491CC
:103FB0000AF1010AA3F120025A2A00F2C380DFE8C5
:103FC00012F0F402C100C100ED02C100C100C10045
:103FD0006A00C100C1003F025102C1004A0206034B
:103FE000C100FF025B005B005B005B005B005B00ED
:103FF0005B005B005B00C100C100C100C100C100EB
:10400000C100C1003B01C100BE01D3023B013B0125
:104010003B01C100C100C100C100CC02C100C10010
:104020008802C100C100C100E801C1005702C100FF
:10403000C100B206C100C100C100C100C100C10081
:10404000C100C1003B01C100BE011A023B013B019E
:104050003B01A0021A027F00C100C202C100B302EC
:10406000D80622037F00C100E8017C00AE06C10033
:10407000C100DB06C1007C00A3F1300200211AF868
:10408000013B01EB810102EB4101A3F13002092A5E
:10409000F5D907918EE7584601F05CFE4368199305
:1040A0001846FCF74DFA1C900546584601F052FEA2
:1040B00083681793002D40F0B7859AF8003077E7B2
:1040C000049B43F0200304939AF8003070E7082221
:1040D000002128A8FFF718FA01239A443FE7BAEB1A
:1040E0000607054610D02E9B3B442E932D9B013393
:1040F000072BC4E900672D9315DC0834069B3B446D
:104100000693002D7FF447AF2E9B002B41F0938147
:10411000099B9B8903F04003002B41F09283069892
:1041200059B0BDE8F08F09992CAA584601F086FCD9
:104130000028EDD12FACE1E70000000000000000F6
:10414000C00500200C93002BDED000228DF8FC303F
:1041500001238DF8872002930A9208930592129208
:104160000F920D923FAE049B13F0020302D002990E
:104170000231029104992E9D11F0840805D107990E
:1041800002980F1A002F00F3A1806AB10122626029
:104190002D9A013201350DF18701072A2E952D92B6
:1041A000216000F3DB8308346BB12D9B22AA01331D
:1041B00002352260072B4FF002022E952D9362608C
:1041C00000F3C1830834B8F1800F00F0C482059B6E
:1041D000089A9F1A002F00F3FE82049BDA0500F173
:1041E0002482089B63601D442D9B26600133072BAE
:1041F0002E952D9300F33F830834049B5A0705D571
:10420000079B029A9E1A002E00F3B583DDE9063261
:1042100002998A42ACBF9B185B180693002D40F0B0
:104220000B8300232D930A9B1BB10A995846FFF775
:10423000ADFA2FAC564691E60C930B9B073323F057
:104240000703B3EC027B58EC177B0B9328F0004379
:104250001B938DED1A7ADDE91A01AF4B4FF0FF3257
:104260008DED107BFCF7C8FE002840F00285DDE9EB
:104270001A01A94B4FF0FF32FCF7A0FE002840F0D6
:10428000F8840022002338464146FCF78DFE0028C2
:1042900041F021809DF88720049BA04E23F08003ED
:1042A00004939F4B0C994729D8BF1E460023032136
:1042B0000A9302910891059312930F930D93002A8C
:1042C0003FF451AF029B013302934CE795492D9A7D
:1042D0001391102F25DD21462846099C914D1D93F1
:1042E0004FF0100904E0103F102F01F1080115DD17
:1042F00001321030072AC1E90059CDE92D20F2DD45
:104300002CAA2146584601F099FB002840F09C82D7
:10431000103F102FDDE92D202FA9E9DC1D9B0C4655
:1043200005460132139921603D44072ACDE92D2528
:10433000676000F3D4869DF88720083425E70B9A40
:104340000C93432B02F1040503D0049BDA0640F1E1
:104350001785082200212AA8FFF7D6F80B9B3FAE4D
:104360001A6831462AAB584603F060F90346013318
:10437000089001F06182089B23EAE3730293002214
:104380000B958DF887200A92059212920F920D924A
:10439000E9E60B9F0C9357F8046B00238DF88730E8
:1043A000002E00F016850C9B532B00F0BF86049B5B
:1043B00013F010030D9340F0B986059B002BC1F25A
:1043C00045800D991A463046FCF76AF80A90002895
:1043D00001F066820A9B991B0D9B0891059321EAC7
:1043E000E17112930F930A9373239DF887200B9723
:1043F00002910C9363E70C93049B9B0640F1BD80F4
:104400000B9B073323F007031A46596852F8083B01
:104410000B920A460029C0F2CA8305990029C0F20E
:104420008382049921F0800553EA020140F07D82E5
:10443000059A002A40F07E820495089258AE60E109
:104440000B9B53F8042B0792002A80F2DA83079A19
:104450000B9352420792049B43F0040304939AF88F
:104460000030A5E52B238DF887309AF800309FE5C2
:104470000C93049B43F0100515F0200200F07283AA
:104480000B9B073323F0070319465A6851F8083B82
:104490000B9101210020059E8DF88700002EC0F2AF
:1044A000198125F08000049053EA020040F0118148
:1044B000002E40F02486002940F0808315F001038F
:1044C000089300F0A38330238DF85F310DF25F165F
:1044D00017E10C93049B43F010030493049B13F027
:1044E000200200F055830B9B073323F00703194686
:1044F0005A6851F8083B0B91049921F4806500211A
:10450000C8E79AF80030682B00F04E84049A42F015
:10451000400204924CE500BFFFFFEF7FB4A000080B
:10452000B0A00008BCE90008049B9D0640F1908300
:104530000B9B069A1B681A60D2175A600B9B0433B8
:104540000B9356460AE59AF800306C2B00F0228453
:10455000049A42F0100204922AE5049B43F00803F7
:1045600004939AF8003023E50C93049B43F0100366
:104570000493049B9B063FF543AF04990B9ACF0627
:1045800052F8043B00F14B8304994E0640F14386F8
:104590000B9243F3C03211461BB23BE7049B43F03E
:1045A000010304939AF8003002E59DF887209AF8F9
:1045B0000030002A7FF4FCAC20228DF88720F7E43D
:1045C000049B43F0800304939AF80030F0E45046D3
:1045D00010F8013B2A2B01F0E581A3F13002092AF2
:1045E00098BF002101F2E48010F8013B01EB81014A
:1045F00002EB4101A3F13002092AF5D941EAE17247
:1046000005928246D6E40B9A049B43F0020552F8C9
:10461000043B0B9247F63002ADF8882078209B4A85
:104620001592022100220C9034E70C9B652B40F37D
:104630003381DDE9100100220023FCF7ABFC0028E8
:1046400000F0D2812D9B924A226001330135012274
:10465000072B2E952D93626000F35C850834239B15
:104660000E9A934280F2C882149B169A1D44C4E9A4
:1046700000232D9B2E950133072B2D9300F39E8352
:1046800008340E9B5E1E002E7FF7B7AD102E2D9BBB
:10469000DFF8009240F3E580DDF82480102704E085
:1046A0000834103E102E40F3DC8001331035072B08
:1046B000C4E90097CDE92D35F2DD2CAA41465846D4
:1046C00001F0BCF9002840F0BF80DDE92D352FACAA
:1046D000E7E7049D012900F02881022958AE1FD187
:1046E000159803F00F011B09415C06F8011D43EA10
:1046F0000273120953EA0201F3D158AB9B1B0495D4
:104700000893059908989DF8872081424FF000038F
:10471000B8BF01460A93029112930F930D93CEE511
:1047200003F00701DB0843EA4273D208303153EA51
:104730000207304606F8011DF2D1EF07DDD530291A
:10474000DBD03023023806F8013C58AB1B1A049525
:1047500008930646D5E7079B029A9F1A002F7FF71A
:1047600036AD102F2D9BDFF82C9122DD2A464FF01D
:1047700010084D46DDF8249004E0103F102F04F19E
:10478000080414DD01331032072BC4E90058CDE9C9
:104790002D32F2DD2CAA4946584601F04FF9002887
:1047A00052D1103F102FDDE92D322FACEADCA946A3
:1047B000154601333D44072BCDE92D35C4F8009053
:1047C000676000F3DB84059B089A9F1A002F04F1B1
:1047D00008047FF702AD102F2D9BDFF8B8901FDD86
:1047E0002A464FF01008099D04E0103F102F04F1F5
:1047F000080414DD013327491032072BC4E90018DF
:10480000CDE92D32F1DD2CAA2946584601F016F9E2
:10481000D0B9103F102FDDE92D322FACEADC154660
:1048200001333D44072BCDE92D35C4F80090676076
:1048300000F38C810834D0E409992CAA584601F081
:10484000FDF800283FF4EDAC0A9B002B3FF460AC70
:104850000A995846FEF79AFF099B9B8903F040038B
:104860005AE401333544072BC4F800906660CDE963
:104870002D357FF7C1AC09992CAA584601F0DEF816
:104880000028E1D12E9D2FACB7E400BFC0A00008E6
:10489000F0A00008ACE900080E9B2D9F012B05F14C
:1048A000010507F1010704F1080840F30B8101231A
:1048B000072FCDE92D752660636000F38381149B7B
:1048C000169A01371D44072FC8E90023CDE92D753D
:1048D00000F3858108F108080E9BDDE910015C1EDC
:1048E00000220023FCF756FB002840F0048101372A
:1048F00001362544072FCDE92D75C8F80060C8F8AA
:10490000044000F3EB8008F10808189BC8F8043055
:1049100001371D44072F26ABCDE92D75C8F80030AF
:10492000A9DC08F1080468E4049D0A2B72F1000177
:1049300080F05E8330338DF85F3101230495089356
:104940000DF25F16DDE609992CAA584601F076F8BB
:1049500000287FF479AF2E9D2FAC34E4099913938E
:104960002CAA584601F06AF800287FF46DAF2E9DFE
:10497000139B2FAC18E4B44A2D9B1392102E1FDD0D
:10498000DDF824801027914604E0103E102E04F13B
:10499000080415DD01331035072BC4E90097CDE974
:1049A0002D35F2DD2CAA4146584601F047F8002883
:1049B0007FF44AAF103E102EDDE92D352FACE9DC37
:1049C0000133139A3544072BC4E90026CDE92D3570
:1049D0007FF71CAC09992CAA584601F02FF8002843
:1049E0007FF432AF2E9D11E42399002940F35183C7
:1049F000DDE90D329342A8BF1346002B98460ADD2D
:104A00001D44C4E900632D9B2E950133072B2D9384
:104A100000F3618608340D9FB8F1000FA8BFA7EB23
:104A20000807002F00F3F5810D9B33440593049B89
:104A30005F0500F11582239B0E9A9342C0F2A0827B
:104A4000049AD00700F19C820E9AB718D61A059BDB
:104A5000FF1AB742A8BF3746002F0ADD23602D9BFF
:104A6000676001333D44072B2E952D9300F3658637
:104A70000834002FA8BFF61B002E7FF7BEAB102E08
:104A80002D9BDFF8C8917FF7ECAEDDF8248010276E
:104A900004E00834103E102E7FF7E3AE01331035EA
:104AA000072BC4E90097CDE92D35F2DD2CAA41464C
:104AB000584600F0C3FF00287FF4C6AEDDE92D356F
:104AC0002FACE7E7049BD9073FF5F1AE0123072F91
:104AD000CDE92D75266063607FF717AF09992CAA81
:104AE000584600F0ABFF00287FF4AEAEDDE92D752F
:104AF0000DF1BC0809E70E9B012B7FF706AF112BC8
:104B0000DFF8489140F35C83CDF814A01026CA4624
:104B1000DDF8249005E008F10808103C102C40F363
:104B20004C8301371035072FC8E900A6CDE92D7554
:104B3000F1DD2CAA4946584600F080FF00287FF49A
:104B400083AEDDE92D750DF1BC08E6E709992CAAC5
:104B5000584600F073FF00287FF476AE2E9D2FACF0
:104B6000FFF73BBB0B9915F0100051F8043B0CD13B
:104B700015F0400604D00B919BB20246012189E456
:104B800015F400721CBFDBB232460B91012181E4A7
:104B900004980B9910F0100051F8043B3DD1049A91
:104BA00012F0400534D09BB202460B91A4E45B4264
:104BB000049D62EB42022D2001216CE4059B0893C9
:104BC00058AE9EE509992CAA584600F037FF0028F8
:104BD0007FF43AAEDDE92D750DF1BC086FE6099959
:104BE0002CAA584600F02AFF00287FF42DAEDDE9FC
:104BF0002D750DF1BC086FE6049BDB077FF5FDAA60
:104C000032E50B939AF80030FFF7D2B958AE78E549
:104C1000049A12F4007240F009840B916CE40B9238
:104C2000DA171146FFF7F6BB179A9AF80030002AF8
:104C30003FF4BEA91278002A3FF4BAA9049A42F4BC
:104C400080620492FFF7B4B9BCE90008ACE900083F
:104C5000049BD80600F1AB82049B590600F1E08367
:104C6000049B9A0540F1A3820B9B069A1B681A705D
:104C700064E4DDE9100102460B46FCF7BDF90028AB
:104C800040F01E860C9B612B00F03185412B00F01B
:104C90004E85059B013300F002840C9B23F020031A
:104CA000472B00F0E1850A90DDE91001049A002904
:104CB00042F48079C0F2F9849DED107B8DED1E7B6E
:104CC000002313930C9B413B252B00F22583DFE847
:104CD00013F02904230323032303EA03B504230366
:104CE0002303230323032303230323032303230394
:104CF0002303230323032303230323032303230384
:104D00002303230323032303230323032303230373
:104D100023032904230323032303EA03B504049D87
:104D20000C93FFF7A9BB0C93AD4B1593049B13F0A9
:104D3000200200F033810B9B073323F00703194651
:104D40005A6851F8083B0B910498C1070BD553EAF8
:104D5000020108D00C998DF8891040F002010491ED
:104D600030218DF88810049921F480650221FFF725
:104D700091BB0C93FFF7B2BB0C939A4B1593D5E7FD
:104D80000B9B1B688DF8FC300123029308933FAE08
:104D9000FFF7F5BA049B43F0200304930AF1010ADC
:104DA0009AF80030FFF704B9049B43F400730493AE
:104DB0000AF1010A9AF80030FFF7FAB809992CAA0B
:104DC000584600F03BFE00287FF43EAD2E9D2FACF0
:104DD00057E4059B0A96062B314628BF0623059605
:104DE00032460293804E0B97089312910F910D91CA
:104DF000FFF765BA40215846FEF7C4FD099B1860CD
:104E00001861002800F00386099A40235361FFF7D8
:104E100093B8102F2D9BDFF8D49140F30B824946B5
:104E20002A46B146099D4FF010080E4604E00834AA
:104E3000103F102F40F3FA8101331032072BC4E9E1
:104E40000068CDE92D32F2DD2CAA2946584600F043
:104E5000F5FD00287FF4F8ACDDE92D322FACE7E753
:104E60000E9BCDF830A006EB03090F9BDDF85CA08C
:104E7000DDF848800D96002B22462946059C099DA9
:104E8000CDF81490DDF8709031DDB8F1000F40F3EB
:104E90003B8108F1FF382D98199B013049440728C0
:104EA000C2E900392E912D9000F387800832059BCE
:104EB0009AF800001F1B8742A8BF0746002F0CDD91
:104EC0002D98013039440728C2E900472E912D90D2
:104ED00000F360819AF800000832002FACBFC61BB7
:104EE0000646002E16DC04440F9B002BCDDCB8F1E7
:104EF000000FCEDCDDE90D632046F318984214461E
:104F0000024628BF1A46CDF85CA00D46DDF830A059
:104F1000059290E5102E2D98344B23DD0894102730
:104F200034461E4604E0103C102C02F1080216DD47
:104F300001302E4B10310728C2E90037CDE92D0191
:104F4000F1DD2CAA2946584600F078FD00287FF4B0
:104F50007BAC103C102CDDE92D012FAAE8DC334698
:104F60002646089C1360013031440728CDE92D0105
:104F7000566000F3A2839AF8000008320444B3E7B5
:104F8000149A16991544C4E900122D9A2E950132EF
:104F9000072A2D9200F3BE83083455E504980B9937
:104FA00010F0100051F8043B17D1049A12F040059C
:104FB0000ED09BB202460B91C6E62CAA2946584653
:104FC00000F03CFD00287FF43FAC2E992FAA6EE73D
:104FD000049A12F4007240F01F820B91B4E600BFF5
:104FE000D4A00008C0A00008E8A00008ACE90008B0
:104FF00000210894DFF81C93179CCDF810A005F44D
:10500000806758AE4FF0050802958C4605E00A2BE4
:1050100072F1000234D353462A46991841F1000137
:10502000A9FB010525F0030000EB9500091A581AA9
:105030004FF0CC3562F1000E05FB00F5A0FB09A096
:1050400009FB0E550AF0010E0544AEFB080E401890
:105050004FEA5A0A303006F8010C4AEAC57A0CF1D8
:10506000010C013E6D08002FD1D021788C45CED1A6
:10507000BCF1FF0FCBD00A2B72F1000280F0E78069
:105080001794DDF810A0029D089CCDF838C0FFF7FA
:1050900034BB2D9B9E4A2260013301350122072B30
:1050A0002E952D93626000F31B810834002940F097
:1050B0009380049B0E9A03F0010313433FF49DA8D1
:1050C000149B169A1D44C4E900232D9B2E95013391
:1050D000072B2D9300F3D68104F108028DE0099986
:1050E00013932CAA584600F0A9FC00287FF4ACAB1F
:1050F0009DF887202E9D139B2FACFFF746B8012902
:10510000049D7FF4EAAA15E40F9B013B0AF1FF3AE4
:105110000F93C0E609992CAA584600F08FFC00288E
:105120007FF492AB2E9D2FACFFF799BA0DF1A80832
:105130000822002140462596FEF7E6F9059B002B44
:10514000C0F292800025029799462F460EE03FA9B3
:10515000584602F06BFA431C384400F08F834845F0
:1051600009DC05F1040500F0BD830746259A525974
:105170004346002AEBD10897029F83E009992CAAA5
:10518000584600F05BFC00287FF45EAB2E9D2FACF0
:10519000FFF71DB82CAA2946584600F04FFC0028FE
:1051A0007FF452AB9AF800002E992FAA95E60B9B3C
:1051B000069A1B681A60FFF7C1B9D146DDF814A042
:1051C000C8F8009001372544072FCDE92D75C8F8A0
:1051D00004407FF798AB81E4149B169A1D44C4E900
:1051E00000232D9B2E950133072B2D9300F34A812D
:1051F00004F108020029C0F2E0820E991660013322
:105200000D44072BCDE92D3551603FF734AB02F14A
:105210000804FEF7F2BF04990B928D054ABF43F3D1
:10522000C012DA175BB21146FFF7F4B815463246E2
:105230004E46914601333D44072BCDE92D35C4F848
:105240000090676000F312810834FFF7EDBB1C9BF0
:105250001999F61A1A46304600F042FD637803B1F8
:1052600001344FF0000CD6E600231946CDF800803B
:1052700025AA584602F000FA03460133089000F0D0
:10528000FD822596089B002B36D0632B00F3E4802B
:1052900000230A933FAE082200214046FEF734F96E
:1052A000089DCDF800802B4625AA3146584602F0CD
:1052B000E3F9854240F0A58308990B9700237354C6
:1052C00021EAE1719DF887200593029112930F93D3
:1052D0000D93FEF7F4BF2D228DF88720FEF7DCBF7B
:1052E00009992CAA584600F0A9FB00287FF4ACAA23
:1052F00023992E9D2FACD9E6089B9DF887200B970C
:105300000293059312930F930D930A93FEF7D7BF61
:10531000F0A00008CDCCCCCC2AAB019325AB0093F8
:10532000022123AB9DED1E0B059A584600F054FE5A
:10533000049BD907064600F1FC812A9B1B1A0E9399
:10534000239B0D930D9BDA1C03DB059A9A4280F296
:105350008B810C9B023B0C930D9B013B9DF83020F5
:1053600023930021002BB8BF0D9B8DF89820BABF66
:10537000C3F101032D222B22092B8DF8992040F334
:1053800065820DF1AF05B34F2A461046A7FB031205
:10539000D20802EB8201A3EB4101303100F8011C7D
:1053A00019466329134600F1FF32EEDC303302F870
:1053B000013C831EAB4280F021830DF1990213F86A
:1053C000011B02F8011FAB42F9D158AB181AA0F12A
:1053D000AD0318930E9B189A012B1A44089240F3C0
:1053E0005882089B149A13440893049B089A23F448
:1053F000806343F48073049322EAE27200231293E1
:1054000002920F930D93139B002B40F01B819DF88C
:1054100087200593FEF753BFDBB22A460B9193E436
:105420000B9B069A1B681A80FFF788B8DBB22A46E6
:105430000B91FFF761B8099C2CAA2146584600F051
:10544000FDFAA38903F04003FEF766BE3046FBF782
:1054500077F80146FEF7C0BF591C5846FEF792FA8E
:105460000646002800F0DB820A9014E709992CAA6E
:10547000584600F0E3FA00287FF4E6A92E9D2FACF1
:10548000FFF7D2BA09992CAA584600F0D7FA00289B
:105490007FF4DAA9DDE92D3523992FAAAAE60623A0
:1054A0000A90059300E4059B022103F101082AAB51
:1054B000019325AB00939DED1E0B23AB424658464E
:1054C00000F08AFD0C9B23F02007462F064600EBD8
:1054D000080518BF452705D13378302B00F03C81F3
:1054E000239B1D44DDE91E0100220023FBF752FD32
:1054F000002840F059812A9BAB4206D230215A1C29
:105500002A9219702A9B9D42F9D8239A0D929B1BCF
:10551000472F0E933FF416AF462F00F02B810D9BC3
:10552000013B1BE723A89DED1E0B00F04BFC002266
:105530004FF07F5351EC100BFBF7C4FA02460B46B9
:10554000CDE9022300220023FBF724FD08B101234B
:105550002393059B404A0C98CDF820A0591E3F4B41
:105560000D96612808BF1A463746A0460592DDE928
:1055700002458A46164609E0002200230AF1FF3957
:10558000FBF708FD002840F0BB81CA46344B0022DF
:1055900020462946FBF796FA0D460446FBF742FDE6
:1055A0008146FBF725FA02460B4620462946FBF7C3
:1055B000D1F816F80930BAF1FF3F3A46044607F829
:1055C000013B0D46D8D1CDE90245264BDDF820A0A0
:1055D0000D9E4446904600224D46FBF703FD0028F1
:1055E00000F0FF81059BCDF8A880D97B17F8012C2E
:1055F00091423B4609D1302003F8010C2A9B5A1EE8
:105600002A9213F8012C9142F6D0392A0BBF059A41
:105610000132927AD2B203F8012C3B469B1B0C9AC2
:105620000E93239B0D93612A03F1FF33239300F024
:10563000B381412150220C91012193E6DDF81480C1
:10564000032134E72D2200238DF887200593FEF7F0
:1056500039BE00BFCDCCCCCCD4A00008C0A000087F
:10566000000030400000E03FDDE90D23934200F3ED
:10567000C480049B13F0010F0D9B00F00F81149A5E
:1056800013440893049B5F0503D50D9B002B00F387
:105690004781089B23EAE373029367230C9300235B
:1056A000CDF8109012930F93ADE601F100431F93D4
:1056B0002D231E901393FFF705BB2CAA29465846AD
:1056C00000F0BCF900287FF4BFA89AF800002E99DA
:1056D0002FAA044408E409992CAA584600F0AEF910
:1056E00000287FF4B1A82E9D2FACFFF794B9782342
:1056F0008DF88930049B43F00203049330238DF826
:105700008830059B632B00F38E8000230A933FAE05
:10571000FFF7CABA09992CAA584600F08FF9002859
:105720007FF492A8239B2E9D2FACFFF78DB95823B1
:10573000DEE7059B4727C518D4E609992CAA5846E9
:1057400000F07CF900287FF47FA8239E0E9B2E9DFD
:105750009E1B2FACFFF78DB9DDE91E01002200234F
:10576000FBF718FC002800F01981239B0D931D44C2
:10577000AB1B0E93049B0D99059A03F001030029BE
:1057800043EA020340F31A81002B40F0F2800D9BA4
:10579000089366230C93049B5B0500F1C380089B70
:1057A00023EAE37302937AE7239A0D922B46AEE63F
:1057B000002282460592FEF7FDBB4F421031DFF812
:1057C0007892B8BF102404DB21E00832103F102F7C
:1057D0001DDD01331035072BC2E90094CDE92D35CD
:1057E000F3DD09992CAA584600F028F900287FF427
:1057F0002BA8DDE92D352FAAE8E70E9B149A9A18FD
:105800000D9B0892002B71DD67230C93C3E70133D6
:105810003D44072BCDE92D35C2F80090576000F3C9
:10582000AF800832E9E4591C5846FEF7ABF806464B
:1058300010B10A90FFF738BA099A938943F04003F0
:1058400093814FF0FF330693FEF769BC002934D1F2
:1058500030228DF89A200DF19B02303302F8013B83
:1058600026ABD31A1893B5E5059B002B7FF41BAA32
:10587000059B0A9301230593FFF716BA099BB3F919
:105880000C3000220A9243F04003099A9381FEF7FC
:10589000DBBF049BDB077FF5A8ADA2E50893F1E62B
:1058A000059B0293089373239DF887200B9705901F
:1058B00012900F900C93FEF702BD0DF19A02CCE707
:1058C000119B5A4E002B049BA8BF9DF8872023F004
:1058D0008003B8BF2D220493B8BF8DF88720544BA6
:1058E000FEF7E0BC059B029F0893CBE4C3F10103E4
:1058F0001A4422EAE2730293672308920C93CEE6DD
:1059000051460029DDF820A00D9E4446FFF685AEE5
:105910004B1C3B44302207F8012B9F42FBD17DE614
:1059200067230C9317990B78FF2B74D000250D9AE1
:10593000284603E001300131FF2B08D0934206DAFC
:10594000D21A4B78002BF5D10B780135F4E717917B
:105950000D920F901295129A0F9B1C99CDF81090F2
:105960001344089A01FB0323089323EAE373029389
:1059700049E5149B1A445318089366230C930AE7CD
:1059800009992CAA584600F059F800287EF45CAF1B
:10599000DDE92D352FAA30E470224DE6C8F1010370
:1059A00023939EE50B9A9AF8013052F8041B0B9250
:1059B00041EAE17182460591FEF7FABA2BB901235B
:1059C000662202930C92089369E6149B03F1010886
:1059D000059B4344089323EAE373029366230C93E5
:1059E0005DE6DDE90201134B0022FBF7D3FA002844
:1059F0003FF413AEE8077FF510AEF3E502231893EA
:105A0000E8E4099BB3F90C3043F040033DE70C2375
:105A1000CBF8003015E7002312930F939BE7099B07
:105A20000A90B3F90C3043F040032EE7BCA0000805
:105A3000B8A000080000E03FACE900082DE9F843F9
:105A4000154692682C68FAB180468946083401E010
:105A50000834CFB16B68591E002B1746696013DDFF
:105A600054F8046C002EF3D0334654F8082C494601
:105A7000404601F00DFE431C07D0AA68921B174652
:105A8000AA600834002FE5D100200023C5E90133C6
:105A9000BDE8F88370B500293FD006460C4610B12A
:105AA000436B002B3CD0636EB4F90C20DD0732D47D
:105AB000900538D52146304600F04CF8E36A05469B
:105AC00033B1E169304698470028B8BF4FF0FF3541
:105AD000A3891A0639D4216B41B104F140039942DC
:105AE00002D03046FDF752FE00232363616C21B1E2
