:020000040800F2
:1000000000000320C1210008151000081710000887
:10001000191000081B1000081D1000080000000047
:100020000000000000000000000000001F10000899
:100030002110000800000000231000081122000811
:1000400011220008112200081122000811220008C4
:1000500011220008112200081122000811220008B4
:1000600011220008112200081122000811220008A4
:100070001122000811220008112200081122000894
:100080001122000811220008112200081122000884
:100090001122000811220008112200081122000874
:1000A0001122000811220008112200081122000864
:1000B0001122000811220008112200081122000854
:1000C0001122000811220008112200081122000844
:1000D00011220008AD1200081122000811220008A8
:1000E0001122000811220008112200081122000824
:1000F0001122000811220008112200081122000814
:100100001122000811220008112200081122000803
:1001100011220008112200081122000811220008F3
:1001200011220008112200081122000811220008E3
:1001300011220008112200081122000811220008D3
:1001400011220008112200081122000811220008C3
:1001500011220008112200081122000811220008B3
:1001600011220008112200081122000811220008A3
:1001700011220008112200081122000800000000CE
:100180001122000811220008112200081122000883
:100190001122000811220008112200081122000873
:0C01A000112200081122000811220008A2
:1001C00001F0FF01102A2BDB10F0070F08D010F808
:1001D000013B013A8B422DD010F0070F42B3F6D10C
:1001E000F0B441EA012141EA014122F007047FF025
:1001F00000070023F0E80256083C85EA010586EA7C
:10020000010685FA47F5A3FA87F586FA47F6A5FAB7
:1002100087F68EB9EED1F0BC01F0FF0102F00702C3
:1002200032B110F8013B013A83EA010313B1F8D16E
:100230000020704701387047002D06BF354603384F
:10024000073815F0010F07D1013015F4807F02BF88
:10025000013015F4C03F0130F0BC0138704700BFD9
:10026000000000000000000000000000000000008E
:10027000000000000000000000000000000000007E
:1002800030B490F800F020F007016FF0000C10F08F
:10029000070491F820F040F048804FF000046FF020
:1002A0000700D1E9002391F840F000F1080082FA3C
:1002B0004CF2A4FA8CF283FA4CF3A2FA8CF34BBB07
:1002C000D1E9022382FA4CF200F10800A4FA8CF280
:1002D00083FA4CF3A2FA8CF3E3B9D1E9042382FA4E
:1002E0004CF200F10800A4FA8CF283FA4CF3A2FA63
:1002F0008CF37BB9D1E9062301F1200182FA4CF29B
:1003000000F10800A4FA8CF283FA4CF3A2FA8CF301
:10031000002BC6D0002A04BF04301A4612BAB2FA23
:1003200082F200EBD20030BC7047D1E9002304F028
:100330000305C4F100004FEAC50514F0040F91F85D
:1003400040F00CFA05F562EA05021CBF63EA0503FA
:1003500062464FF00004AAE7844641EA000313F026
:1003600003036DD1403A41D351F8043B40F8043BBC
:1003700051F8043B40F8043B51F8043B40F8043B7F
:1003800051F8043B40F8043B51F8043B40F8043B6F
:1003900051F8043B40F8043B51F8043B40F8043B5F
:1003A00051F8043B40F8043B51F8043B40F8043B4F
:1003B00051F8043B40F8043B51F8043B40F8043B3F
:1003C00051F8043B40F8043B51F8043B40F8043B2F
:1003D00051F8043B40F8043B51F8043B40F8043B1F
:1003E00051F8043B40F8043B403ABDD2303211D3BF
:1003F00051F8043B40F8043B51F8043B40F8043BFF
:1004000051F8043B40F8043B51F8043B40F8043BEE
:10041000103AEDD20C3205D351F8043B40F8043BBE
:10042000043AF9D2043208D0D2071CBF11F8013BBC
:1004300000F8013B01D30B8803806046704700BF82
:10044000082A13D38B078DD010F003038AD0C3F191
:100450000403D21ADB071CBF11F8013B00F8013B73
:1004600080D331F8023B20F8023B7BE7043AD9D332
:10047000013A11F8013B00F8013BF9D20B78037007
:100480004B7843708B7883706046704781F00041F1
:1004900002E000BF83F0004330B54FEA41044FEA69
:1004A000430594EA050F08BF90EA020F1FBF54EA04
:1004B000000C55EA020C7FEA645C7FEA655C00F0A0
:1004C000E2804FEA5454D4EB5555B8BF6D420CDD71
:1004D0002C4480EA020281EA030382EA000083EAF4
:1004E000010180EA020281EA0303362D88BF30BD94
:1004F00011F0004F4FEA01314FF4801C4CEA1131EA
:1005000002D0404261EB410113F0004F4FEA033348
:100510004CEA133302D0524263EB430394EA050FD3
:1005200000F0A780A4F10104D5F1200E0DDB02FA42
:100530000EFC22FA05F2801841F1000103FA0EF2D6
:10054000801843FA05F359410EE0A5F120050EF19C
:10055000200E012A03FA0EFC28BF4CF0020C43FACD
:1005600005F3C01851EBE37101F0004507D54FF0DA
:10057000000EDCF1000C7EEB00006EEB0101B1F52A
:10058000801F1BD3B1F5001F0CD349085FEA300070
:100590004FEA3C0C04F101044FEA445212F5800F7B
:1005A00080F09A80BCF1004F08BF5FEA500C50F118
:1005B000000041EB045141EA050130BD5FEA4C0CFB
:1005C000404141EB0101013C28BFB1F5801FE9D258
:1005D00091F0000F04BF01460020B1FA81F308BF7B
:1005E0002033A3F10B03B3F120020CDA0C3208DD47
:1005F00002F1140CC2F10C0201FA0CF021FA02F122
:100600000CE002F11402D8BFC2F1200C01FA02F191
:1006100020FA0CFCDCBF41EA0C019040E41AA2BFB6
:1006200001EB0451294330BD6FEA04041F3C1CDA7E
:100630000C340EDC04F11404C4F1200220FA04F09E
:1006400001FA02F340EA030021FA04F345EA030148
:1006500030BDC4F10C04C4F1200220FA02F001FA0A
:1006600004F340EA0300294630BD21FA04F029468C
:1006700030BD94F0000F83F4801306BF81F4801125
:100680000134013D4EE77FEA645C18BF7FEA655C98
:1006900029D094EA050F08BF90EA020F05D054EA6A
:1006A000000C04BF1946104630BD91EA030F1EBF6F
:1006B0000021002030BD5FEA545C05D14000494173
:1006C00028BF41F0004130BD14F580043CBF01F566
:1006D000801130BD01F0004545F0FE4141F470014C
:1006E0004FF0000030BD7FEA645C1ABF1946104627
:1006F0007FEA655C1CBF0B46024650EA013406BF28
:1007000052EA033591EA030F41F4002130BD00BFE6
:1007100090F0000F04BF0021704730B54FF48064A3
:1007200004F132044FF000054FF0000150E700BF24
:1007300090F0000F04BF0021704730B54FF4806483
:1007400004F1320410F0004548BF40424FF0000170
:100750003EE700BF42004FEAE2014FEA31014FEAB3
:1007600002701FBF12F07F4393F07F4F81F0605102
:10077000704732F07F4208BF704793F07F4F04BF4D
:1007800041F40021704730B54FF4607401F000452A
:1007900021F000411CE700BF50EA010208BF70478A
:1007A00030B54FF000050AE050EA010208BF70477B
:1007B00030B511F0004502D5404261EB41014FF4E4
:1007C000806404F132045FEA915C3FF4D8AE4FF0EC
:1007D00003025FEADC0C18BF03325FEADC0C18BFCF
:1007E000033202EBDC02C2F1200300FA03FC20FA20
:1007F00002F001FA03FE40EA0E0021FA02F114446D
:10080000BDE600BF70B54FF0FF0C4CF4E06C1CEA85
:1008100011541DBF1CEA135594EA0C0F95EA0C0FF6
:1008200000F0DEF82C4481EA030621EA4C5123EA69
:100830004C5350EA013518BF52EA033541F4801198
:1008400043F4801338D0A0FB02CE4FF00005E1FB4B
:1008500002E506F00042E0FB03E54FF00006E1FB95
:1008600003569CF0000F18BF4EF0010EA4F1FF04D8
:10087000B6F5007F64F5407404D25FEA4E0E6D4118
:1008800046EB060642EAC62141EA55514FEAC52029
:1008900040EA5E504FEACE2EB4F1FD0C88BFBCF5A5
:1008A000E06F1ED8BEF1004F08BF5FEA500E50F156
:1008B000000041EB045170BD06F0004646EA01011C
:1008C00040EA020081EA0301B4EB5C04C2BFD4EB4E
:1008D0000C0541EA045170BD41F480114FF0000E47
:1008E000013C00F3AB8014F1360FDEBF002001F0B5
:1008F000004170BDC4F10004203C35DA0C341BDC2F
:1009000004F11404C4F1200500FA05F320FA04F000
:1009100001FA05F240EA020001F0004221F0004134
:1009200010EBD37021FA04F642EB06015EEA430EA7
:1009300008BF20EAD37070BDC4F10C04C4F12005D7
:1009400000FA04F320FA05F001FA04F240EA02008A
:1009500001F0004110EBD37041F100015EEA430E5B
:1009600008BF20EAD37070BDC4F1200500FA05F27B
:100970004EEA020E20FA04F301FA05F243EA0203FA
:1009800021FA04F001F0004121FA04F220EA020009
:1009900000EBD3705EEA430E08BF20EAD37070BD4F
:1009A00094F0000F0FD101F00046400041EB01012F
:1009B00011F4801F08BF013CF7D041EA060195F011
:1009C000000F18BF704703F00046520043EB0303CB
:1009D00013F4801F08BF013DF7D043EA06037047B8
:1009E00094EA0C0F0CEA135518BF95EA0C0F0CD0C3
:1009F00050EA410618BF52EA4306D1D181EA030109
:100A000001F000414FF0000070BD50EA410606BF02
:100A10001046194652EA430619D094EA0C0F02D147
:100A200050EA013613D195EA0C0F05D152EA03368C
:100A30001CBF104619460AD181EA030101F00041AA
:100A400041F0FE4141F470014FF0000070BD41F0F3
:100A5000FE4141F4780170BD70B54FF0FF0C4CF4CD
:100A6000E06C1CEA11541DBF1CEA135594EA0C0FEC
:100A700095EA0C0F00F0A7F8A4EB050481EA030E39
:100A800052EA03354FEA013100F088804FEA033320
:100A90004FF0805545EA131343EA12634FEA0222EE
:100AA00045EA111545EA10654FEA00260EF00041AF
:100AB0009D4208BF964244F1FD0404F5407402D201
:100AC0005B084FEA3202B61A65EB03055B084FEA92
:100AD00032024FF480104FF4002CB6EB020E75EB8F
:100AE000030E22BFB61A754640EA0C005B084FEAB7
:100AF0003202B6EB020E75EB030E22BFB61A754634
:100B000040EA5C005B084FEA3202B6EB020E75EB7E
:100B1000030E22BFB61A754640EA9C005B084FEAF6
:100B20003202B6EB020E75EB030E22BFB61A754603
:100B300040EADC0055EA060E18D04FEA051545EAF2
:100B400016754FEA06164FEAC30343EA52734FEA9B
:100B5000C2025FEA1C1CC0D111F4801F0BD141EA14
:100B600000014FF000004FF0004CB6E711F4801F79
:100B700004BF01430020B4F1FD0C88BFBCF5E06F59
:100B80003FF6AFAEB5EB030C04BFB6EB020C5FEA69
:100B9000500C50F1000041EB045170BD0EF0004EBE
:100BA0004EEA113114EB5C04C2BFD4EB0C0541EAF0
:100BB000045170BD41F480114FF0000E013C90E6ED
:100BC00045EA060E8DE60CEA135594EA0C0F08BFB1
:100BD00095EA0C0F3FF43BAF94EA0C0F0AD150EAB0
:100BE00001347FF434AF95EA0C0F7FF425AF104643
:100BF00019462CE795EA0C0F06D152EA03353FF46B
:100C0000FDAE1046194622E750EA410618BF52EAE7
:100C100043067FF4C5AE50EA41047FF40DAF52EABB
:100C200043057FF4EBAE12E74FF0FF3C06E000BF58
:100C30004FF0010C02E000BF4FF0010C4DF804CD65
:100C40004FEA410C7FEA6C5C4FEA430C18BF7FEA25
:100C50006C5C1BD001B050EA410C0CBF52EA430C53
:100C600091EA030F02BF90EA020F0020704710F1D3
:100C7000000F91EA030F58BF994208BF90422CBF62
:100C8000D8176FEAE37040F0010070474FEA410C5B
:100C90007FEA6C5C02D150EA013C07D14FEA430C79
:100CA0007FEA6C5CD6D152EA033CD3D05DF8040BEA
:100CB000704700BF8446104662468C46194663461C
:100CC00000E000BF01B5FFF7B7FF002848BF10F1F3
:100CD000000F01BD4DF808EDFFF7F4FF0CBF012038
:100CE00000205DF808FB00BF4DF808EDFFF7EAFFB4
:100CF00034BF012000205DF808FB00BF4DF808ED6F
:100D0000FFF7E0FF94BF012000205DF808FB00BF63
:100D10004DF808EDFFF7CEFF94BF012000205DF8ED
:100D200008FB00BF4DF808EDFFF7C4FF34BF0120FA
:100D300000205DF808FB00BF4FEA410C7FEA6C5CC5
:100D400002D150EA013C0AD14FEA430C7FEA6C5CC5
:100D500002D152EA033C02D14FF0000070474FF03D
:100D6000010070474FEA410212F5001215D211D569
:100D70006FF47873B3EB625212D94FEAC12343F098
:100D8000004343EA505311F0004F23FA02F018BF1A
:100D9000404270474FF00000704750EA013005D1E3
:100DA00011F0004008BF6FF0004070474FF00000A6
:100DB000704700BF00F1340191E838009C46A64618
:100DC0004CF8045D90E8FF0FE54600BD90EC210B68
:100DD000704700BF80EC210B704700BF90EC200BE8
:100DE000704700BF80EC200B704700BFD0EC200B99
:100DF000704700BFC0EC200B704700BFF0EC020151
:100E0000F0EC0211F0EC0221F0EC0231F0EC0241C6
:100E1000F0EC0251F0EC0261F0EC0271F0EC0281B6
:100E2000F0EC0291F0EC02A1F0EC02B1F0EC02C1A6
:100E3000F0EC02D1F0EC02E1F0EC02F1704700BFFF
:100E4000E0EC0201E0EC0211E0EC0221E0EC023106
:100E5000E0EC0241E0EC0251E0EC0261E0EC0271F6
:100E6000E0EC0281E0EC0291E0EC02A1E0EC02B1E6
:100E7000E0EC02C1E0EC02D1E0EC02E1E0EC02F1D6
:100E8000704700BFB0FC0181B0FC0191B0FC01A132
:100E9000B0FC01B1704700BFA0FC0181A0FC019132
:100EA000A0FC01A1A0FC01B1704700BFEC4600B559
:100EB0002DE900502DE9FF1F4FF000032DE90C0034
:100EC00001A907F0E7FADDF840E012B0704700BF73
:100ED000EC4600B52DE900502DE9FF1F4FF000034F
:100EE0002DE90C0001A907F011FBDDF840E012B07C
:100EF000704700BFEC4600B52DE900502DE9FF1FFB
:100F00004FF000032DE90C0001A907F021FBDDF8EB
:100F100040E012B0704700BFEC4600B52DE900502C
:100F20002DE9FF1F4FF000032DE90C0001AB07F086
:100F3000E5FADDF840E012B0704700BFEC4600B5BE
:100F40002DE900502DE9FF1F4FF000032DE90C00A3
:100F500001AA07F055FBDDF840E012B0704700BF72
:100F60000348044B834202D0034B03B11847704738
:100F7000DC060020DC060020000000000548064BCF
:100F80001B1AD90F01EBA301491002D0034B03B187
:100F900018477047DC060020DC0600200000000037
:100FA00010B5064C237843B9FFF7DAFF044B13B1B1
:100FB0000448AFF300800123237010BDDC0600203D
:100FC000000000000490000808B5054B1BB105495E
:100FD0000548AFF30080BDE80840FFF7CFBF00BF72
:100FE00000000000E00600200490000808B5B420CE
:100FF00000F0B6F84FF4E1315A2000F0E7F800F0C5
:1010000083FF00F053FA024B1846004708BD00BFAB
:10101000852100087047FEE7FEE7FEE7FEE7704720
:101020007047704782B0002301930093344A1368DD
:1010300043F480331360324B1B6803F40033009396
:10104000019B01330193009B1BB9019BB3F5A04F9A
:10105000F1D12B4B1B6813F4003F06D00123009302
:10106000009B012B04D002B0704700230093F7E7E8
:10107000234B1A6C42F080521A6422490A6842F4E7
:1010800040420A609A689A609A6842F400429A6004
:101090009A6842F4A0529A601B4A5A601A6842F059
:1010A00080721A60164B1B6813F0007FFAD0154A45
:1010B000136843F480331360124B5B6813F4803F72
:1010C000FAD0104A136843F4003313600D4B5B6889
:1010D00013F4003FFAD00D4B40F205721A60A3F5ED
:1010E00080639A6822F003029A609A6842F00202D2
:1010F0009A60034B9B6803F00C03082BF9D1B2E70D
:101100000038024000700040195A4007003C02407D
:1011100010B5104CD4F8883043F47003C4F888300C
:101120000D4B1A6842F001021A60002199601A689A
:1011300022F0847222F480321A60084A5A601A68D7
:1011400022F480221A60D960FFF76CFF4FF0006331
:10115000A36010BD00ED00E0003802401030002414
:101160004FF0E022136923F004031361C008054B1C
:101170001870C0EB401300EB8300C000024B1880D6
:10118000704700BFFA060020F80600200E4B1B78BF
:1011900003FB00F04FF0E023586100229A611A69C6
:1011A00042F001021A614FF0E0231B6903F00113C2
:1011B000012BF8D04FF0E0231A6922F001021A61E6
:1011C00000229A61704700BFFA06002070B582B015
:1011D000334B03FB00F007EE900AF8EE676A090153
:1011E00007EE901AB8EE677AC6EE877ABCEEE77A19
:1011F00017EE103A9BB207EE103AB8EEC77A77EEC8
:10120000C77AB3EE007A67EE877AFCEEE77A17EEDC
:10121000904A1B019BB213FA84F4A4B2214B1A6BBF
:1012200042F001021A635A6C42F010025A641E4DD9
:101230000123019302260096002332464FF4C06139
:10124000284600F07FF807220921284600F0C1F85F
:1012500007220A21284600F0BCF8A5F570452C812C
:10126000AB89C3F30E03AB81AB899BB243F0080398
:10127000AB81AB899BB243F00403AB81AB899BB2DA
:1012800043F02003AB81334625220321084600F0BA
:10129000B9F8AB899BB243F40053AB8102B070BD87
:1012A00040420F000038024000000240184B1B88EB
:1012B00013F0200F26D0164B9B88DBB215490A8805
:1012C000B1F9001000291DDB12F4804F0CD00A2B5D
:1012D00003D0104B00221A8070476FEA42426FEA37
:1012E00052420C4B1A8070470D2B0CD0C2F30D01EB
:1012F00009484354013292B2064B1A80C72A01D9D9
:1013000000221A80704742F48042024B1A807047D4
:1013100000100140FC06002000070020C3431B0210
:1013200003F4E0630649CA6822F4E0621204120C76
:1013300042F0BF6242F400321343CB60704700BFFB
:1013400000ED00E02DE9F043079F089E4FF0000CF0
:1013500001E00CF1010CBCF10F0F38D84FF0010E79
:101360000EFA0CFE3EEA0104F3D1D0F800904FEAE9
:101370004C050324AC406FEA040829EA0404046025
:10138000046802FA05F944EA09040460541E012CB9
:10139000DFD8846808EA04048460846807FA05F9E1
:1013A00044EA09048460446824EA0E044460446802
:1013B00003FA0CFE44EA0E044460C46808EA04041C
:1013C000C460C46806FA05F52C43C460C1E7BDE8F3
:1013D000F08310B4CB08083350F8234001F0070124
:1013E00089004FF00F0C0CFA01FC24EA0C0440F8C1
:1013F000234050F823408A40144340F823405DF8CE
:10140000044B7047F8B507460C4616461D4618466D
:10141000FFF784FFC5F1040307FA03F10F232B4103
:1014200004EA030570090A4C54F8203006F01F073F
:101430000122BA40134344F82030344494F8003376
:10144000294301F00F0143EA011384F80033F8BD8A
:1014500000E100E008B5044B1B6803B908BD034B6D
:101460001A6800F023FAF9E7D807002004000020EA
:1014700008B5074B9871074B1B6803B908BD00F00E
:1014800001FA044AD18A024B1980128B5A80F5E77F
:10149000C8070020D807002008B5034B1B6803B914
:1014A00008BD00F085FAFBE7D807002008B500F07A
:1014B00087FB1A4B988070BB184B9B8849F24132CE
:1014C00093420BD045F21032934207D045F21052AE
:1014D000934203D041F66312934210D1104B5A68E5
:1014E00022F00F025A605A6822F470625A605A68F9
:1014F00042F004025A605A6842F480625A60012045
:10150000FFF7B6FF074B0122C3F894224FF6FF7096
:10151000FFF7C2FF08BD00F09FFBCDE7C807002022
:10152000000100A0008040422DE9F04F83B08046CA
:10153000A2EB000A8946A3EB010BBAF1000F0DDD07
:1015400001220092BBF1000F14DD01230193DA4563
:101550001CDD564600252F462C461BE0BAF1000F35
:1015600005D0A0EB020A4FF0FF320092EAE7CDF877
:1015700000A0E7E7BBF1000F05D0A1EB030B4FF094
:10158000FF330193E3E7CDF804B0E0E75E46E1E71F
:101590000134A4B2731C9C4212DC1FFA89F11FFAB9
:1015A00088F0FFF757FF57445D44BE4202DABF1B85
:1015B000009B9844AE42EBDAAD1B019B9944E7E7F0
:1015C00003B0BDE8F08FF8B507460E4615461C4639
:1015D0000B46FFF7A9FF23463A4631463846FFF748
:1015E000A3FF23462A4621463846FFF79DFF2346A0
:1015F0002A4631462846FFF797FFF8BD2DE9F04F00
:1016000083B0814688461F469DF830A013F007033B
:1016100018BF012303EBD7034FEA570B1BFB03FB58
:101620005FFA8BF30193203AD1B244464FF0000B9E
:1016300056E001EB4100464B03EB800313F80B50DF
:101640000026CDF800B08B4627E0424B03EB011398
:1016500013F80B50F4E701EBC1003F4B03EB8003A1
:1016600013F80B50ECE73D4B03EBC11313F80B5091
:10167000E6E73B4B1A682146484600F017F96D0033
:10168000EDB20134A4B2374B5B88A3425CD9A4EB22
:101690000803BB4210D00136F6B2072E19D815F058
:1016A000800FE6D1BAF1000FE9D12F4B1A6821461D
:1016B000484600F0FBF8E2E75946DDF800B009F1D2
:1016C00001091FFA89F9274B1B884B453CD9444631
:1016D00002E05946DDF800B00BF101025FFA82FB2F
:1016E000019B9B4530D2A7F10C03142B2CD801A0F1
:1016F00050F823F03316000849170008491700086E
:10170000491700084B160008491700084917000838
:101710004917000849170008491700084917000829
:10172000491700085716000849170008491700080C
:101730004917000849170008491700084917000809
:10174000491700086716000803B0BDE8F08F00BF16
:10175000ECD20008FCCC0008A0BF000820900008D4
:1017600004000020C8070020000000202DE9F047F9
:1017700082B082460D469DF828700B9E02441FFAE7
:1017800082F90B441FFA83F804460CE0454517D252
:10179000012300933B4629462046FFF72FFF04EB29
:1017A0005704A4B201363278A2F12003DBB25E2BDB
:1017B00006D84C45EAD35FFA8AF43D44ADB2E5E77A
:1017C00002B0BDE8F0872DE9F041C4B004460D46F3
:1017D00016461F464CAA03920DF110084B9940463D
:1017E00000F050FECDF804809DF8283100933B4670
:1017F000324629462046FFF7B9FF44B0BDE8F081E4
:10180000012806D020B9064A936923F001039361A9
:101810007047034A936943F001039361704700BF27
:1018200000680140012909D081B9D8B9104AD2F81D
:10183000843023F00103C2F8843007E060B90C4A19
:10184000D2F8843043F00103C2F88430084A536A66
:1018500043F0010353627047064A536843F00103A3
:101860005360F3E7034A536823F001035360EDE745
:101870000068014000690140014B1875704700BFC6
:10188000D8070020084B587520B95A68DA821A68C0
:101890001A837047012800D07047034B1A68DA8218
:1018A0005A681A83F8E700BFD807002070B4104BBD
:1018B0005B7D6BB10E4C257D0E4B53F82550E369D3
:1018C000246804FB010101FB03F3EA5270BC70477A
:1018D000074B1D7D074C54F82550DC691E685B687A
:1018E0001B1A013B03FB061101FB04F3EA52EDE76F
:1018F000D8070020F807002070B5294C647D002C23
:1019000043D086469C46264D2868AEEB020310FA6B
:1019100083F39BB2013B9BB22E7D224C54F82640B0
:10192000ED6901FB00E000FB05441F4D286B40F40E
:10193000000028631D48056825F0010505604FF487
:1019400040350560022545630364C463ACEB0103C5
:101950000133A2EB0E02013243EA02434364049BCB
:101960008363036843F00103036000230F4A526856
:1019700012F0020F03D10133B3F5001FF6D30B4A67
:10198000936843F00203936070BD8E4604494C682F
:10199000A21A511E1A46241A04F1FF3CB3E700BFF5
:1019A000D8070020F80700200038024000B00240AD
:1019B00000B583B0074BDA8A1B8B013B013A0090DC
:1019C0009BB292B200210846FFF796FF03B05DF884
:1019D00004FB00BFD807002010B4224C236823F07A
:1019E0008053236000231F4C246814F0005F06D04E
:1019F00041F6FE74A34202D801339BB2F3E741F6ED
:101A0000FF74A34229D0090741EA80101549C1F8A3
:101A10008800D1F88C0020F44030C1F88C00D1F857
:101A20008C0040EA0242C1F88C200A6842F08052E1
:101A30000A600C4A126812F0005F06D141F6FE728D
:101A4000934202D801339BB2F3E741F6FF7293420F
:101A500005D000205DF8044B70470120FAE7022012
:101A6000F8E700BF00380240F8B5BDF8184000287C
:101A70003FD1CF183B4DEE68C6F30B463744EE68B6
:101A8000C6F30B4C6144013141EA0741C5F88810A7
:101A90001619E968C1F30A010E44E968C1F30A01A5
:101AA0000A44013242EA0642C5F88C20D5F8942057
:101AB00002F00702012A18D00FD8C2B9042202FB93
:101AC00003F3DA1C42EA0343264AC2F8B030C2F8F4
:101AD000B4400121FFF7A6FEF8BD053AD2B2012AB3
:101AE00001D80122EBE70222E9E70322E7E702221D
:101AF000E5E7CE181B4DEF68C7F30B473E44EF6890
:101B0000C7F30B473944013141EA0641164EB16033
:101B10001119EF68C7F30A0C6144ED68C5F30A05B3
:101B20002A44013242EA0142F260726902F007027D
:101B3000012A13D00AD89AB9042202FB03F3DA1C53
:101B400042EA0343084A13635463C2E7053AD2B238
:101B5000012A01D80122F0E70222EEE70322ECE796
:101B60000222EAE7006801400069014010B59DF8D3
:101B700008E09DF80C409DF810C080B90E48C0F8F0
:101B8000AC10C0F89420C0F89830059B43EA0E636F
:101B9000C0F89C304CEA0424C0F8A04010BD0748AF
:101BA000C16242618361059B43EA0E63C3614CEAF3
:101BB00004240462F2E700BF0068014000690140AC
:101BC00030B583B01F4A136B43F4A0731363012530
:101BD0000195002400942346224640211A48FFF72D
:101BE000B1FB019500942346224684211748FFF754
:101BF000A9FB174BD3F81832DBB2164AD2F80812F9
:101C000043EA4103DBB2D2F81C2243EA8203DBB28F
:101C1000042B11D8DFE803F00312070A0D0044F289
:101C2000423003B030BD47F21600FAE747F2180021
:101C3000F7E748F21600F4E70020F2E747F28400E5
:101C4000EFE700BF003802400018024000200240C9
:101C500000004342000044422DE9F04784B0904B1D
:101C60005A6C42F080625A641A6B42F002021A63A4
:101C70001A6B42F4F0721A6301250195022700974E
:101C800000232A4620218748FFF75CFBDFF838A2B3
:101C900001954FF00308CDF8008000233A464FF439
:101CA00080615046FFF74EFBDFF820920195CDF89A
:101CB000008000233A464FF40C614846FFF742FB90
:101CC000794E0195CDF8008000233A464FF47E41CD
:101CD0003046FFF737FB754C0195CDF800800023A7
:101CE0003A4640F2F7612046FFF72CFB0E220A210C
:101CF0005046FFF76EFB0E2206214846FFF769FBB0
:101D00000E2207214846FFF764FB0E220B214846AE
:101D1000FFF75FFB0E2209213046FFF75AFB0E2228
:101D20000A213046FFF755FB0E220B213046FFF704
:101D300050FB0E220C213046FFF74BFB0E220D21EB
:101D40003046FFF746FB0E2211463046FFF741FBB7
:101D50000E220F213046FFF73CFB0E2200212046C9
:101D6000FFF737FB0E2229462046FFF732FB0E22F3
:101D700039462046FFF72DFB0E2204212046FFF7AF
:101D800028FB0E2205212046FFF723FB0E22062109
:101D90002046FFF71EFB0E2207212046FFF719FB06
:101DA0000E2209212046FFF714FB0E220A212046AD
:101DB000FFF70FFB3E4C4FF4806323604FF4167324
:101DC000636014232381A4F80A808C22A281E3811A
:101DD000A02323820C2363822A4639464FF4B47031
:101DE000FFF7FAFD3348002686616389013B2289AB
:101DF000013A43EA024383606389E1891944013966
:101E00002289B4F80CC094440CF1FF3C41EA0C4127
:101E1000C160E1890B4461680B4403F1FF3EB4F8F3
:101E20000CC0624421680A4402F1FF3C4EEA0C41B6
:101E30000161618A0B44013B218A0A44013A43EA69
:101E400002434361C6622846FFF7DAFC1A491B4B7E
:101E50001960E76103960723029306230193009616
:101E6000FF233A463046FFF781FEA388009323887C
:101E7000324631463046FFF7F7FD2268104B1A8094
:101E800062685A803046FFF7F7FC0E4BC3F8945255
:101E90004FF0FF30FFF78CFD04B0BDE8F08700BFC6
:101EA0000038024000040240001C024000200240B2
:101EB000D807002000680140000000C0F80700209B
:101EC000C807002000804042001402400018024071
:101ED000C0F1040C012000FA0CF0014341EA421168
:101EE00041EA4321074B19650023064A926D12F01F
:101EF000200F05D00133B3F5001FF6D30120704742
:101F000000207047000100A02DE9F04782B0954BFA
:101F10009A6B42F001029A631A6B42F07C021A63D8
:101F2000DFF854A20126019603270097002302221E
:101F30000D215046FFF706FADFF840920196009710
:101F4000002302224CF203714846FFF7FBF9864D4D
:101F500001960097002302224FF683712846FFF76F
:101F6000F1F9824C01960097002302224FF63F01BF
:101F70002046FFF7E7F9DFF8088201960097002373
:101F8000022248F237114046FFF7DCF90C2200210B
:101F90005046FFF71EFA0C2202215046FFF719FAAD
:101FA0000C2239465046FFF714FA0C22002148460D
:101FB000FFF70FFA0C2231464846FFF70AFA0C22C7
:101FC00008214846FFF705FA0C2209214846FFF789
:101FD00000FA0C220A214846FFF7FBF90C220E21D9
:101FE0004846FFF7F6F90C220F214846FFF7F1F9B2
:101FF0000C2200212846FFF7ECF90C223146284636
:10200000FFF7E7F90C2207212846FFF7E2F90C2237
:1020100008212846FFF7DDF90C2209212846FFF7A1
:10202000D8F90C220A212846FFF7D3F90C220B21FC
:102030002846FFF7CEF90C2211462846FFF7C9F9CA
:102040000C220D212846FFF7C4F90C220E21284648
:10205000FFF7BFF90C220F212846FFF7BAF90C222F
:1020600000212046FFF7B5F90C2231462046FFF744
:10207000B0F90C2202212046FFF7ABF90C223946B9
:102080002046FFF7A6F90C2204212046FFF7A1F90C
:102090000C2205212046FFF79CF90C220B2120463B
:1020A000FFF797F90C2211462046FFF792F90C2210
:1020B0000D212046FFF78DF90C220E212046FFF757
:1020C00088F90C220F212046FFF783F90C2200210A
:1020D0004046FFF77EF90C2231464046FFF779F97A
:1020E0000C2202214046FFF774F90C2204214046DD
:1020F000FFF76FF90C2205214046FFF76AF90C2221
:1021000008214046FFF765F90C220F214046FFF7F2
:1021100060F9174C41F6D9132364164BA3640023CE
:102120001A4631461846FFF7D3FE4FF4FA70FFF710
:102130002DF800231A4602211846FFF7C9FE002396
:10214000082239461846FFF7C3FE40F23323002227
:1021500004211046FFF7BCFE40F2B453636502B0A1
:10216000BDE8F08700380240001002400014024031
:10217000000100A06155110100080240000C02405E
:102180000018024000B583B00020FFF785F90A4B24
:102190004FF6FF721A60094B019320230093F0223F
:1021A00028210A20FFF70FFB322364224FF4FA7133
:1021B0000846FFF708FAEEE70400002060D70008A1
:1021C000DFF834D0FEF7A4FF0C480D490D4A002378
:1021D00002E0D458C4500433C4188C42F9D30A4ADC
:1021E0000A4C002301E013600432A242FBD300F04A
:1021F0000BFAFEF7FBFE70470000032000000020F2
:10220000DC060020F8DB0008DC060020180B0020AC
:10221000FEE70000024A0349034800F0C9B800BFC6
:10222000080000204D4A0008180000200C4B4168AF
:10223000994210B5044601D002F008FCA168094B90
:10224000994202D0204602F001FCE168064B994217
:1022500004D02046BDE8104002F0F8BB10BD00BF1E
:102260000008002068080020D00800202DE9F8436D
:10227000314A324C3249DFF8DC90DFF8DC80314FF4
:102280001160002504232946082204F15C00C4E9FA
:1022900003352D4EA560C4E90055C4E905556566B2
:1022A00000F00CF904F15800C4E90749C4E90987B2
:1022B000E66200F0D1F92946244B6367082204F155
:1022C000C400C4E91A55C4E91E552567C4F8CC50AA
:1022D000C4F8805000F0F2F804F1680304F1C00083
:1022E000C4F88430C4E92298C4E9247600F0B4F933
:1022F000174BC4F8DC30294604F596700822C4E96F
:102300003455C4E93855C4F8D850C4F83451C4F829
:10231000E85000F0D3F804F1D003C4E93D87C4F8D5
:10232000F09004F59470C4F8FC60C4F8EC30BDE89B
:10233000F84300F091B900BF3809002000080020E0
:1023400015220008592400087D2400080900010016
:1023500012000200F52300081924000810B50446F5
:102360000A4800F07DF9636B23B9094B094A1B68E1
:10237000626323B1BDE81040044800F073B9FFF771
:1023800075FFBDE81040014800F06CB94809002015
:10239000380900202D220008014800F061B900BF73
:1023A00048090020014800F05DB900BF480900203D
:1023B0002DE9F8430746884616464FF00009D6E94E
:1023C0000154013D10D4A389012B08D9B4F90E3072
:1023D00001332146384602D0C04749EA0009013D91
:1023E0006B1C04F16804EED13668002EE7D1484634
:1023F000BDE8F88310B50C46B1F90E1000F0D8F81E
:10240000002803DB236D0344236510BDA38923F457
:102410008053A38110BD00BF2DE9F0410C46B1F9F6
:102420000C101F46CB05054616460BD421F48051EF
:10243000A1813B46B4F90E1032462846BDE8F04172
:1024400000F0CCB8B4F90E100223002200F09AF884
:10245000B4F90C10EAE700BF10B50C46B1F90E1044
:1024600000F090F8B4F90C30421C0EBF23F48053F6
:1024700043F480532065A38110BD00BFB1F90E1055
:1024800000F06EB870B59AB013460A4E0A466FF067
:1024900000410291059108490391044600253068E6
:1024A000199569460094049400F006FD009B1D7088
:1024B0001AB070BD140000200802FFFF830730B57A
:1024C00047D0541E002A3ED0CAB2034601E0013C68
:1024D00039D303F8012B9D07F9D1032C2CD9CDB2A8
:1024E00005EB05250F2C05EB054535D9A4F11002A8
:1024F00022F00F0C03F1100EE6444FEA121C1A46AC
:10250000C2E90055C2E9025510327245F8D10CF10A
:10251000010214F00C0F03EB021204F00F0C13D0A5
:10252000ACF1040323F003030433134442F8045BC7
:102530009342FBD10CF003042CB1C9B21C4403F844
:10254000011BA342FBD130BD64461346002CF4D1DD
:10255000F9E703461446C0E71A46A446E0E700BF81
:1025600038B5074D0022044608462A6006F0FAFCFA
:10257000431C00D038BD2B68002BFBD0236038BD36
:102580003C09002038B50C46084D844611462046CB
:102590001A4600232B60644606F00CFD431C00D055
:1025A00038BD2B68002BFBD0236038BD3C090020D0
:1025B00038B50C46084D8446114620461A4600237D
:1025C0002B60644606F0FEFC431C00D038BD2B682F
:1025D000002BFBD0236038BD3C09002038B50C46E9
:1025E000084D8446114620461A4600232B60644657
:1025F00006F0FEFC431C00D038BD2B68002BFBD03E
:10260000236038BD3C09002070B50F4B0F4DAB4225
:10261000A3EB050607D0B610002455F8043B01349F
:102620009847A642F9D806F0EDFC094D094B5E1B10
:10263000AB424FEAA60606D0002455F8043B01340D
:102640009847A642F9D870BDECDB0008ECDB000827
:10265000ECDB0008F4DB0008704700BF704700BFE8
:10266000704700BF704700BF024B13B1024800F033
:1026700005B8704700000000394D000800230146EE
:102680001A46184602F0ACBB2DE9F843064608206E
:10269000894602F065FBDFF8A4800546304600F06D
:1026A000FDFBD8F808305F6827F00307A7F1110495
:1026B000A4EB09042C44B4FBF5F4013C05FB04F441
:1026C000A54208DC0021304602F024FBD8F808308F
:1026D0003B44984205D0304600F0E6FB0020BDE8C0
:1026E000F8836142304602F015FB01300FD0114AE9
:1026F000D8F808303F1B47F001075F601368304689
:102700001B1B136000F0D0FB0120BDE8F883002103
:10271000304602F0FFFAD8F80820831A0F2BDADDD2
:1027200043F001035360044B02491B68C01A086060
:10273000D1E700BF500900205C01002068010020A3
:1027400000297CD02DE9F0410C46804600F0A6FB24
:1027500054F8043C754FA4F1080523F001016818F2
:10276000BE684268864222F0030200F08380DE07E2
:10277000426000EB020C33D454F8084CDCF804300F
:102780002D1B2144AC6807F1080C644503F00103DC
:1027900064D0D5F80CE0C4F80CE0CEF80840002B6B
:1027A00000F0818041F001036B600160B1F5007FB2
:1027B00022D27868CB080122490901338A400243BA
:1027C00057F833107A6007EBC302083AC5E90212E2
:1027D00047F83350CD604046BDE8F04100F064BB9F
:1027E000DCF80430DB072BD541F00103B1F5007FA5
:1027F00044F8043C0160DCD3B1F5206F4FEA51236B
:1028000053D28B0903F1390003F13802C300F818E1
:10281000FB580838984203D161E09B68984204D085
:102820005A6822F003028A42F7D8D868C5E9023014
:102830008560DD604046BDE8F04100F035BB704783
:10284000114407F1080C836863453FD0C268DA6021
:10285000936041F001036B606950A7E7002B5FD1E3
:102860000A44D0E90213CB60996042F001036B6027
:10287000AA50B0E7DB070A4407D454F8083CED1A25
:102880001A44D5E90213CB60996042F001036B60F2
:10289000274BBD601B6893429DD8264B4046196864
:1028A000FFF7F2FE97E71144CDE7142B08D9542B1C
:1028B0001DD80B0B03F16F0003F16E02C300A6E7F6
:1028C00003F15C0003F15B02C300A0E741F00103E8
:1028D000C7E90455C5E902CC6B6069507BE77968AC
:1028E0009210012404FA02F20A437A609EE7B3F5DB
:1028F000AA7F06D8CB0B03F1780003F17702C3005F
:1029000085E740F25452934206D88B0C03F17D00C8
:1029100003F17C02C3007AE74FF47E737E2276E7F0
:1029200041F001036B60016055E700BF68010020C2
:1029300060010020800900202DE9F04F01F10B0516
:10294000162D83B0064623D8102900F2AF8000F080
:10295000A5FA102518230220B74F3B44A3F1080223
:102960005C68944200F01E816368E268A16823F00D
:102970000303CA602344304691605A6842F0010262
:102980005A6000F091FA0834204603B0BDE8F08F99
:1029900035F0070500F18A80A94200F2878000F037
:1029A0007DFAB5F5FC7FC0F06E816B0A00F0828085
:1029B000042B00F21D81AB0903F1390003F1380E3D
:1029C000C3009D4F3B44A3F1080C5C68A44507D1AC
:1029D0000DE0002AE16880F2DF808C4507D00C46CC
:1029E000636823F003035A1B0F2AF2DD7046DFF8F9
:1029F00060823C69444500F0BC80636823F0030CAE
:102A0000ACEB05030F2B00F34281002BC7E90488D0
:102A100080F22D81BCF5007FD7F804E080F0C880FB
:102A20004FEADC0101314FEA5C1C012303FA0CF38D
:102A300057F83120A2604EEA030E07EBC103083BB2
:102A4000E360C7F804E047F83140D46083104FF0EA
:102A5000010C0CFA03FCF44532D81CEA0E0F08D125
:102A600020F003004FEA4C0C1CEA0E0F00F10400AA
:102A7000F8D007EBC00AD6468146DEF80C300BE0F2
:102A8000596821F003014A1B0F2A1C46DB6800F33A
:102A9000BB80002A80F2DE809E45F1D109F1010958
:102AA00019F0030F0EF1080EE7D119E10C23336082
:102AB000002469E74FF4007340204FF03F0E80E799
:102AC000BC68636823F00309A94503D3A9EB050398
:102AD0000F2B51DC594B1B68082003F1100804EB45
:102AE0000903009302F03CF9554A13680133A844E6
:102AF000834605D008F1FF388044434203EA0808C2
:102B00004146304602F006F9B0F1FF3F4C4A82469A
:102B100000F0D880009B834200F2D280494B1868B5
:102B200040440BF1FF311860844640F0FC801AEA03
:102B3000010F40F0F880D7F808A0C84448F001021F
:102B4000CAF80420404B1968814238BF18603F4BD7
:102B50001968814238BF1860544622F00308A8451E
:102B6000A8EB050301D30F2B06DC304600F09CF9DF
:102B70009EE7D7F804E069E7621943F0010345F0E6
:102B8000010565603046BA60536000F08DF9083485
:102B9000204603B0BDE8F08FA2682344D1603046E0
:102BA0008A60EAE6DC68A3427FF4DEAE02301EE70C
:102BB000BCF5206F4FEA5C227BD3142A00F212810D
:102BC00002F15C03DB005B32F918FB5808399942CB
:102BD00003D1ECE09B68994204D05A6822F00302CA
:102BE0006245F7D8D968C4E902318C60DC602DE712
:102BF000142B6AD9542B00F2FE802B0B03F16F00CB
:102C000003F16E0EC300DCE6D4F808C03046661946
:102C100045F001056560CCF80C30C3F808C042F0FF
:102C20000103C7E90466C6E902887360625000F0D8
:102C30003BF90834A8E600BF6801002080090020A5
:102C40005C010020500900207C0900207809002048
:102C500070010020214430464A6842F001024A6077
:102C600054F8082FD3609A6000F01EF98CE6A44453
:102C70003046DCF8043043F00103CCF8043000F0B7
:102C800013F9083480E6E80805F1080364E66219E0
:102C900043F0010145F0010565603046C7E90422B3
:102CA000C2E90288516044F80C3000F0FDF80834A5
:102CB0006AE64FEA9C1202F13903DB00383283E7FF
:102CC000BC4228D0BC68626847E703F15C0003F1AE
:102CD0005B0EC30075E65AF80839534540F0D980B9
:102CE00010F0030F00F1FF30F5D17B6823EA0C03ED
:102CF0007B604FEA4C0C9C453FF6E2AEBCF1000F06
:102D000004D1DDE64FEA4C0C09F104091CEA030F7B
:102D1000F8D04846ADE6604B186808EB000C0BF1A4
:102D2000FF31C3F800C0106801306ED0009AAAEBE2
:102D3000020262441A601AF00702CDE9002340D073
:102D4000C2F108029244D04408EA01005A44121A1F
:102D500002EA010B5946304601F0DCFF421C019BA0
:102D60006FD0A0EB0A0000EB0B081868C7F808A0AA
:102D700048F001025844BC42CAF8042018603FF4ED
:102D8000E1AEB9F10F0F43D96168A9F10C0222F04D
:102D9000070201F00101114361604FF0050CA11819
:102DA0000F2AC1E901CC54D8DAF80420CAE69210FF
:102DB0004FF0010C0CFA02F24EEA020EC7F804E0E2
:102DC00011E70AEB08020A40ABEB020202EA010B30
:102DD0005946304601F09EFF431C019BC1D1DDF8EE
:102DE00000B0C2E7542A17D84FEA1C3202F16F0331
:102DF000DB006E32E8E6B3F5AA7F17D8EB0B03F1E0
:102E0000780003F1770EC300DBE5C2F800A092E77B
:102E10000123CAF80430A8E6B2F5AA7F24D84FEA05
:102E2000DC3202F17803DB007732CDE640F2545217
:102E3000934224D8AB0C03F17D0003F17C0EC30058
:102E4000BFE5009A083A9044A8EB0A084FF0000B3F
:102E50008BE7304604F108010093FFF771FC009BFB
:102E6000D7F808A018689FE740F254539A420CD84C
:102E70004FEA9C4202F17D03DB007C32A4E64FF472
:102E80007E737F204FF07E0E9BE54FF47E737E2293
:102E90009AE67B682DE700BF500900200148FFF744
:102EA000DFBB00BF400900200148FFF7DBBB00BFCC
:102EB00040090020000000002DE9F04FD9B00C4679
:102EC000099115460B93834601F020FF0368169382
:102ED0001846FDF7D5F900211490082228A8FFF71D
:102EE000EDFAA389190603D52369002B00F05E874C
:102EF0009FED7F7B0023CDE92D33CDE917338DED99
:102F0000107B2FAA0E932C92144615931C931993A1
:102F100006932E46B246784BD3F8E45001F0F0FE0B
:102F200028AA0346009224A952465846A8470028DA
:102F300000F0B180C0F2A780249A252A034601D070
:102F40009A44E8E7BAEB0607054640F0A88000235C
:102F500019464FF0FF328DF8873007930AF1010AC6
:102F60009AF80030059204910AF1010AA3F12002B7
:102F70005A2A00F2C380DFE812F0F402C100C10057
:102F8000ED02C100C100C1006A00C100C1003F02E2
:102F90005102C1004A020603C100FF025B005B0050
:102FA0005B005B005B005B005B005B005B00C100E3
:102FB000C100C100C100C100C100C1003B01C1008E
:102FC000BE01D3023B013B013B01C100C100C10076
:102FD000C100CC02C100C1008802C100C100C10013
:102FE000E801C1005702C100C100B206C100C10022
:102FF000C100C100C100C100C100C1003B01C1004E
:10300000BE011A023B013B013B01A0021A027F00F4
:10301000C100C202C100B302D80622037F00C10072
:10302000E8017C00AE06C100C100DB06C1007C00E7
:10303000A3F1300200211AF8013B01EB810102EB00
:103040004101A3F13002092AF5D907918EE75846CC
:1030500001F05CFE436819931846FDF711F91C90C6
:103060000546584601F052FE83681793002D40F044
:10307000B7859AF8003077E7049B43F02003049368
:103080009AF8003070E70822002128A8FFF716FA06
:1030900001239A443FE7BAEB0607054610D02E9B62
:1030A0003B442E932D9B0133072BC4E900672D93DE
:1030B00015DC0834069B3B440693002D7FF447AF94
:1030C0002E9B002B41F09381099B9B8903F04003C9
:1030D000002B41F09283069859B0BDE8F08F099912
:1030E0002CAA584601F086FC0028EDD12FACE1E770
:1030F0000000000000000000700500200C93002B71
:10310000DED000228DF8FC3001238DF88720029359
:103110000A920893059212920F920D923FAE049B71
:1031200013F0020302D002990231029104992E9DFC
:1031300011F0840805D1079902980F1A002F00F3A7
:10314000A1806AB1012262602D9A013201350DF130
:103150008701072A2E952D92216000F3DB83083426
:103160006BB12D9B22AA013302352260072B4FF051
:1031700002022E952D93626000F3C1830834B8F1EA
:10318000800F00F0C482059B089A9F1A002F00F35D
:10319000FE82049BDA0500F12482089B63601D44D3
:1031A0002D9B26600133072B2E952D9300F33F8333
:1031B0000834049B5A0705D5079B029A9E1A002ED5
:1031C00000F3B583DDE9063202998A42ACBF9B1851
:1031D0005B180693002D40F00B8300232D930A9B70
:1031E0001BB10A995846FFF7ABFA2FAC564691E649
:1031F0000C930B9B073323F00703B3EC027B58ECD3
:10320000177B0B9328F000431B938DED1A7ADDE9B1
:103210001A01AF4B4FF0FF328DED107BFDF78CFDA7
:10322000002840F00285DDE91A01A94B4FF0FF327A
:10323000FDF764FD002840F0F884002200233846A2
:103240004146FDF751FD002841F021809DF887207F
:10325000049BA04E23F0800304939F4B0C994729B5
:10326000D8BF1E46002303210A93029108910593BB
:1032700012930F930D93002A3FF451AF029B013339
:1032800002934CE795492D9A1391102F25DD214685
:103290002846099C914D1D934FF0100904E0103F02
:1032A000102F01F1080115DD01321030072AC1E9A4
:1032B0000059CDE92D20F2DD2CAA2146584601F017
:1032C00099FB002840F09C82103F102FDDE92D2053
:1032D0002FA9E9DC1D9B0C4605460132139921609C
:1032E0003D44072ACDE92D25676000F3D4869DF87B
:1032F0008720083425E70B9A0C93432B02F1040531
:1033000003D0049BDA0640F11785082200212AA881
:10331000FFF7D4F80B9B3FAE1A6831462AAB5846EC
:1033200003F060F903460133089001F06182089BC5
:1033300023EAE373029300220B958DF887200A920B
:10334000059212920F920D92E9E60B9F0C9357F89B
:10335000046B00238DF88730002E00F016850C9B3F
:10336000532B00F0BF86049B13F010030D9340F025
:10337000B986059B002BC1F245800D991A4630464F
:10338000FCF71EFF0A90002801F066820A9B991B39
:103390000D9B0891059321EAE17112930F930A9313
:1033A00073239DF887200B9702910C9363E70C938E
:1033B000049B9B0640F1BD800B9B073323F0070362
:1033C0001A46596852F8083B0B920A460029C0F287
:1033D000CA8305990029C0F28382049921F08005EF
:1033E00053EA020140F07D82059A002A40F07E8275
:1033F0000495089258AE60E10B9B53F8042B07929A
:10340000002A80F2DA83079A0B9352420792049BB8
:1034100043F0040304939AF80030A5E52B238DF8BC
:1034200087309AF800309FE50C93049B43F0100519
:1034300015F0200200F072830B9B073323F0070383
:1034400019465A6851F8083B0B9101210020059E4E
:103450008DF88700002EC0F2198125F080000490BD
:1034600053EA020040F01181002E40F0248600292A
:1034700040F0808315F00103089300F0A38330230C
:103480008DF85F310DF25F1617E10C93049B43F04A
:1034900010030493049B13F0200200F055830B9B50
:1034A000073323F0070319465A6851F8083B0B917C
:1034B000049921F480650021C8E79AF80030682B50
:1034C00000F04E84049A42F0400204924CE500BFA2
:1034D000FFFFEF7F70D700086CD7000824D90008E1
:1034E000049B9D0640F190830B9B069A1B681A6013
:1034F000D2175A600B9B04330B9356460AE59AF891
:1035000000306C2B00F02284049A42F010020492E6
:103510002AE5049B43F0080304939AF8003023E55E
:103520000C93049B43F010030493049B9B063FF50C
:1035300043AF04990B9ACF0652F8043B00F14B833A
:1035400004994E0640F143860B9243F3C032114674
:103550001BB23BE7049B43F0010304939AF800304D
:1035600002E59DF887209AF80030002A7FF4FCAC31
:1035700020228DF88720F7E4049B43F08003049316
:103580009AF80030F0E4504610F8013B2A2B01F085
:10359000E581A3F13002092A98BF002101F2E480FD
:1035A00010F8013B01EB810102EB4101A3F1300274
:1035B000092AF5D941EAE17205928246D6E40B9ACE
:1035C000049B43F0020552F8043B0B9247F630028D
:1035D000ADF8882078209B4A1592022100220C9099
:1035E00034E70C9B652B40F33381DDE910010022A9
:1035F0000023FDF76FFB002800F0D2812D9B924A3B
:103600002260013301350122072B2E952D93626034
:1036100000F35C850834239B0E9A934280F2C882A3
:10362000149B169A1D44C4E900232D9B2E9501334B
:10363000072B2D9300F39E8308340E9B5E1E002EF5
:103640007FF7B7AD102E2D9BDFF8009240F3E58099
:10365000DDF82480102704E00834103E102E40F3DB
:10366000DC8001331035072BC4E90097CDE92D35F7
:10367000F2DD2CAA4146584601F0BCF9002840F082
:10368000BF80DDE92D352FACE7E7049D012900F06F
:103690002881022958AE1FD1159803F00F011B098C
:1036A000415C06F8011D43EA0273120953EA020164
:1036B000F3D158AB9B1B04950893059908989DF886
:1036C000872081424FF00003B8BF01460A93029160
:1036D00012930F930D93CEE503F00701DB0843EA45
:1036E0004273D208303153EA0207304606F8011D12
:1036F000F2D1EF07DDD53029DBD03023023806F8D0
:10370000013C58AB1B1A049508930646D5E7079B66
:10371000029A9F1A002F7FF736AD102F2D9BDFF8EE
:103720002C9122DD2A464FF010084D46DDF82490FA
:1037300004E0103F102F04F1080414DD01331032AF
:10374000072BC4E90058CDE92D32F2DD2CAA4946F9
:10375000584601F04FF9002852D1103F102FDDE9F3
:103760002D322FACEADCA946154601333D44072B28
:10377000CDE92D35C4F80090676000F3DB84059B2C
:10378000089A9F1A002F04F108047FF702AD102F4A
:103790002D9BDFF8B8901FDD2A464FF01008099DD9
:1037A00004E0103F102F04F1080414DD0133274911
:1037B0001032072BC4E90018CDE92D32F1DD2CAA17
:1037C0002946584601F016F9D0B9103F102FDDE90F
:1037D0002D322FACEADC154601333D44072BCDE9F1
:1037E0002D35C4F80090676000F38C810834D0E474
:1037F00009992CAA584601F0FDF800283FF4EDACD9
:103800000A9B002B3FF460AC0A995846FEF798FFDC
:10381000099B9B8903F040035AE401333544072B8D
:10382000C4F800906660CDE92D357FF7C1AC0999E9
:103830002CAA584601F0DEF80028E1D12E9D2FACCD
:10384000B7E400BF7CD70008ACD7000814D9000843
:103850000E9B2D9F012B05F1010507F1010704F1D6
:10386000080840F30B810123072FCDE92D75266051
:10387000636000F38381149B169A01371D44072F60
:10388000C8E90023CDE92D7500F3858108F108080A
:103890000E9BDDE910015C1E00220023FDF71AFAE1
:1038A000002840F00481013701362544072FCDE977
:1038B0002D75C8F80060C8F8044000F3EB8008F1EB
:1038C0000808189BC8F8043001371D44072F26ABA1
:1038D000CDE92D75C8F80030A9DC08F1080468E4CA
:1038E000049D0A2B72F1000180F05E8330338DF865
:1038F0005F310123049508930DF25F16DDE6099907
:103900002CAA584601F076F800287FF479AF2E9D56
:103910002FAC34E4099913932CAA584601F06AF8A5
:1039200000287FF46DAF2E9D139B2FAC18E4B44A92
:103930002D9B1392102E1FDDDDF824801027914659
:1039400004E0103E102E04F1080415DD013310359B
:10395000072BC4E90097CDE92D35F2DD2CAA4146AD
:10396000584601F047F800287FF44AAF103E102E69
:10397000DDE92D352FACE9DC0133139A3544072BF3
:10398000C4E90026CDE92D357FF71CAC09992CAA96
:10399000584601F02FF800287FF432AF2E9D11E435
:1039A0002399002940F35183DDE90D329342A8BFEA
:1039B0001346002B98460ADD1D44C4E900632D9B85
:1039C0002E950133072B2D9300F3618608340D9F4C
:1039D000B8F1000FA8BFA7EB0807002F00F3F5818F
:1039E0000D9B33440593049B5F0500F11582239BD7
:1039F0000E9A9342C0F2A082049AD00700F19C82F2
:103A00000E9AB718D61A059BFF1AB742A8BF3746B9
:103A1000002F0ADD23602D9B676001333D44072B97
:103A20002E952D9300F365860834002FA8BFF61B52
:103A3000002E7FF7BEAB102E2D9BDFF8C8917FF7CD
:103A4000ECAEDDF82480102704E00834103E102E80
:103A50007FF7E3AE01331035072BC4E90097CDE9BA
:103A60002D35F2DD2CAA4146584600F0C3FF002850
:103A70007FF4C6AEDDE92D352FACE7E7049BD9070F
:103A80003FF5F1AE0123072FCDE92D752660636068
:103A90007FF717AF09992CAA584600F0ABFF002812
:103AA0007FF4AEAEDDE92D750DF1BC0809E70E9B84
:103AB000012B7FF706AF112BDFF8489140F35C83B1
:103AC000CDF814A01026CA46DDF8249005E008F1D0
:103AD0000808103C102C40F34C8301371035072F99
:103AE000C8E900A6CDE92D75F1DD2CAA4946584656
:103AF00000F080FF00287FF483AEDDE92D750DF125
:103B0000BC08E6E709992CAA584600F073FF002884
:103B10007FF476AE2E9D2FACFFF73BBB0B9915F0D3
:103B2000100051F8043B0CD115F0400604D00B9165
:103B30009BB20246012189E415F400721CBFDBB27E
:103B400032460B91012181E404980B9910F010008A
:103B500051F8043B3DD1049A12F0400534D09BB299
:103B600002460B91A4E45B42049D62EB42022D20CD
:103B700001216CE4059B089358AE9EE509992CAA97
:103B8000584600F037FF00287FF43AAEDDE92D7586
:103B90000DF1BC086FE609992CAA584600F02AFFDF
:103BA00000287FF42DAEDDE92D750DF1BC086FE620
:103BB000049BDB077FF5FDAA32E50B939AF80030F2
:103BC000FFF7D2B958AE78E5049A12F4007240F0CB
:103BD00009840B916CE40B92DA171146FFF7F6BBE0
:103BE000179A9AF80030002A3FF4BEA91278002AEA
:103BF0003FF4BAA9049A42F480620492FFF7B4B980
:103C000024D9000814D90008049BD80600F1AB821F
:103C1000049B590600F1E083049B9A0540F1A382BE
:103C20000B9B069A1B681A7064E4DDE910010246DA
:103C30000B46FDF781F8002840F01E860C9B612B97
:103C400000F03185412B00F04E85059B013300F0DB
:103C500002840C9B23F02003472B00F0E1850A909F
:103C6000DDE91001049A002942F48079C0F2F98458
:103C70009DED107B8DED1E7B002313930C9B413B30
:103C8000252B00F22583DFE813F029042303230307
:103C90002303EA03B504230323032303230323039A
:103CA00023032303230323032303230323032303E4
:103CB00023032303230323032303230323032303D4
:103CC00023032303230323032303290423032303BD
:103CD0002303EA03B504049D0C93FFF7A9BB0C93DF
:103CE000AD4B1593049B13F0200200F033810B9B26
:103CF000073323F0070319465A6851F8083B0B9124
:103D00000498C1070BD553EA020108D00C998DF82D
:103D1000891040F00201049130218DF88810049937
:103D200021F480650221FFF791BB0C93FFF7B2BB32
:103D30000C939A4B1593D5E70B9B1B688DF8FC30C1
:103D40000123029308933FAEFFF7F5BA049B43F0BB
:103D5000200304930AF1010A9AF80030FFF704B92E
:103D6000049B43F4007304930AF1010A9AF80030AB
:103D7000FFF7FAB809992CAA584600F03BFE002834
:103D80007FF43EAD2E9D2FAC57E4059B0A96062B83
:103D9000314628BF0623059632460293804E0B9784
:103DA000089312910F910D91FFF765BA4021584683
:103DB000FEF7C2FD099B18601861002800F0038619
:103DC000099A40235361FFF793B8102F2D9BDFF81A
:103DD000D49140F30B8249462A46B146099D4FF0E3
:103DE00010080E4604E00834103F102F40F3FA810B
:103DF00001331032072BC4E90068CDE92D32F2DD22
:103E00002CAA2946584600F0F5FD00287FF4F8ACAE
:103E1000DDE92D322FACE7E70E9BCDF830A006EBA5
:103E200003090F9BDDF85CA0DDF848800D96002BA0
:103E300022462946059C099DCDF81490DDF8709026
:103E400031DDB8F1000F40F33B8108F1FF382D98C8
:103E5000199B013049440728C2E900392E912D9061
:103E600000F387800832059B9AF800001F1B8742E9
:103E7000A8BF0746002F0CDD2D98013039440728D4
:103E8000C2E900472E912D9000F360819AF800005E
:103E90000832002FACBFC61B0646002E16DC0444B9
:103EA0000F9B002BCDDCB8F1000FCEDCDDE90D63FC
:103EB0002046F31898421446024628BF1A46CDF809
:103EC0005CA00D46DDF830A0059290E5102E2D98EF
:103ED000344B23DD0894102734461E4604E0103C82
:103EE000102C02F1080216DD01302E4B103107288C
:103EF000C2E90037CDE92D01F1DD2CAA294658464B
:103F000000F078FD00287FF47BAC103C102CDDE93C
:103F10002D012FAAE8DC33462646089C13600130A9
:103F200031440728CDE92D01566000F3A2839AF8A9
:103F3000000008320444B3E7149A16991544C4E902
:103F400000122D9A2E950132072A2D9200F3BE837E
:103F5000083455E504980B9910F0100051F8043B13
:103F600017D1049A12F040050ED09BB202460B9175
:103F7000C6E62CAA2946584600F03CFD00287FF4EE
:103F80003FAC2E992FAA6EE7049A12F4007240F00B
:103F90001F820B91B4E600BF90D700087CD70008C1
:103FA000A4D7000814D9000800210894DFF81C9356
:103FB000179CCDF810A005F4806758AE4FF00508A7
:103FC00002958C4605E00A2B72F1000234D3534669
:103FD0002A46991841F10001A9FB010525F00300CB
:103FE00000EB9500091A581A4FF0CC3562F1000E1B
:103FF00005FB00F5A0FB09A009FB0E550AF0010E18
:104000000544AEFB080E40184FEA5A0A303006F855
:10401000010C4AEAC57A0CF1010C013E6D08002F33
:10402000D1D021788C45CED1BCF1FF0FCBD00A2B5B
:1040300072F1000280F0E7801794DDF810A0029D75
:10404000089CCDF838C0FFF734BB2D9B9E4A2260F8
:10405000013301350122072B2E952D93626000F369
:104060001B810834002940F09380049B0E9A03F0D2
:10407000010313433FF49DA8149B169A1D44C4E901
:1040800000232D9B2E950133072B2D9300F3D68112
:1040900004F108028DE0099913932CAA584600F008
:1040A000A9FC00287FF4ACAB9DF887202E9D139BC4
:1040B0002FACFFF746B80129049D7FF4EAAA15E466
:1040C0000F9B013B0AF1FF3A0F93C0E609992CAA16
:1040D000584600F08FFC00287FF492AB2E9D2FAC49
:1040E000FFF799BA0DF1A80808220021404625964D
:1040F000FEF7E4F9059B002BC0F2928000250297A1
:1041000099462F460EE03FA9584602F06BFA431C31
:10411000384400F08F83484509DC05F1040500F0C0
:10412000BD830746259A52594346002AEBD108978A
:10413000029F83E009992CAA584600F05BFC0028F6
:104140007FF45EAB2E9D2FACFFF71DB82CAA29463D
:10415000584600F04FFC00287FF452AB9AF800005C
:104160002E992FAA95E60B9B069A1B681A60FFF7FB
:10417000C1B9D146DDF814A0C8F800900137254434
:10418000072FCDE92D75C8F804407FF798AB81E47F
:10419000149B169A1D44C4E900232D9B2E950133D0
:1041A000072B2D9300F34A8104F108020029C0F285
:1041B000E0820E99166001330D44072BCDE92D35B1
:1041C00051603FF734AB02F10804FEF7F2BF0499E7
:1041D0000B928D054ABF43F3C012DA175BB211464A
:1041E000FFF7F4B8154632464E46914601333D443A
:1041F000072BCDE92D35C4F80090676000F31281DC
:104200000834FFF7EDBB1C9B1999F61A1A46304685
:1042100000F042FD637803B101344FF0000CD6E6A4
:1042200000231946CDF8008025AA584602F000FA6E
:1042300003460133089000F0FD822596089B002B71
:1042400036D0632B00F3E48000230A933FAE0822AC
:1042500000214046FEF732F9089DCDF800802B463C
:1042600025AA3146584602F0E3F9854240F0A5837D
:1042700008990B970023735421EAE1719DF8872078
:104280000593029112930F930D93FEF7F4BF2D2225
:104290008DF88720FEF7DCBF09992CAA584600F05C
:1042A000A9FB00287FF4ACAA23992E9D2FACD9E658
:1042B000089B9DF887200B970293059312930F9309
:1042C0000D930A93FEF7D7BFACD70008CDCCCCCC6A
:1042D0002AAB019325AB0093022123AB9DED1E0B6E
:1042E000059A584600F054FE049BD907064600F193
:1042F000FC812A9B1B1A0E93239B0D930D9BDA1CAA
:1043000003DB059A9A4280F28B810C9B023B0C9353
:104310000D9B013B9DF8302023930021002BB8BF5B
:104320000D9B8DF89820BABFC3F101032D222B22DB
:10433000092B8DF8992040F365820DF1AF05B34F3D
:104340002A461046A7FB0312D20802EB8201A3EB18
:104350004101303100F8011C19466329134600F170
:10436000FF32EEDC303302F8013C831EAB4280F0BA
:1043700021830DF1990213F8011B02F8011FAB42D2
:10438000F9D158AB181AA0F1AD0318930E9B189AE7
:10439000012B1A44089240F35882089B149A134444
:1043A0000893049B089A23F4806343F48073049376
:1043B00022EAE2720023129302920F930D93139B51
:1043C000002B40F01B819DF887200593FEF753BF1B
:1043D000DBB22A460B9193E40B9B069A1B681A806A
:1043E000FFF788B8DBB22A460B91FFF761B8099C4A
:1043F0002CAA2146584600F0FDFAA38903F0400399
:10440000FEF766BE3046FBF73BFF0146FEF7C0BF36
:10441000591C5846FEF790FA0646002800F0DB8249
:104420000A9014E709992CAA584600F0E3FA0028EC
:104430007FF4E6A92E9D2FACFFF7D2BA09992CAADA
:10444000584600F0D7FA00287FF4DAA9DDE92D35C7
:1044500023992FAAAAE606230A90059300E4059B58
:10446000022103F101082AAB019325AB00939DEDD6
:104470001E0B23AB4246584600F08AFD0C9B23F0EE
:104480002007462F064600EB080518BF452705D133
:104490003378302B00F03C81239B1D44DDE91E0165
:1044A00000220023FCF716FC002840F059812A9BCB
:1044B000AB4206D230215A1C2A9219702A9B9D4287
:1044C000F9D8239A0D929B1B472F0E933FF416AFFA
:1044D000462F00F02B810D9B013B1BE723A89DED90
:1044E0001E0B00F04BFC00224FF07F5351EC100BE1
:1044F000FCF788F902460B46CDE90223002200238F
:10450000FCF7E8FB08B101232393059B404A0C9874
:10451000CDF820A0591E3F4B0D96612808BF1A46C2
:104520003746A0460592DDE902458A46164609E06F
:10453000002200230AF1FF39FCF7CCFB002840F0F1
:10454000BB81CA46344B002220462946FCF75AF963
:104550000D460446FCF706FC8146FCF7E9F80246E6
:104560000B4620462946FBF795FF16F80930BAF1AD
:10457000FF3F3A46044607F8013B0D46D8D1CDE946
:104580000245264BDDF820A00D9E444690460022B1
:104590004D46FCF7C7FB002800F0FF81059BCDF8D6
:1045A000A880D97B17F8012C91423B4609D13020D5
:1045B00003F8010C2A9B5A1E2A9213F8012C9142EF
:1045C000F6D0392A0BBF059A0132927AD2B203F89B
:1045D000012C3B469B1B0C9A0E93239B0D93612A47
:1045E00003F1FF33239300F0B381412150220C915A
:1045F000012193E6DDF81480032134E72D22002306
:104600008DF887200593FEF739BE00BFCDCCCCCC0A
:1046100090D700087CD70008000030400000E03F41
:10462000DDE90D23934200F3C480049B13F0010FD6
:104630000D9B00F00F81149A13440893049B5F05AF
:1046400003D50D9B002B00F34781089B23EAE373FE
:10465000029367230C930023CDF8109012930F93CD
:10466000ADE601F100431F932D231E901393FFF736
:1046700005BB2CAA2946584600F0BCF900287FF457
:10468000BFA89AF800002E992FAA044408E40999BB
:104690002CAA584600F0AEF900287FF4B1A82E9D50
:1046A0002FACFFF794B978238DF88930049B43F041
:1046B0000203049330238DF88830059B632B00F3AD
:1046C0008E8000230A933FAEFFF7CABA09992CAA3D
:1046D000584600F08FF900287FF492A8239B2E9D66
:1046E0002FACFFF78DB95823DEE7059B4727C51888
:1046F000D4E609992CAA584600F07CF900287FF4EA
:104700007FA8239E0E9B2E9D9E1B2FACFFF78DB97D
:10471000DDE91E0100220023FCF7DCFA002800F08E
:104720001981239B0D931D44AB1B0E93049B0D9984
:10473000059A03F00103002943EA020340F31A81BA
:10474000002B40F0F2800D9B089366230C93049B92
:104750005B0500F1C380089B23EAE37302937AE7C9
:10476000239A0D922B46AEE6002282460592FEF772
:10477000FDBB4F421031DFF87892B8BF102404DB44
:1047800021E00832103F102F1DDD01331035072BBB
:10479000C2E90094CDE92D35F3DD09992CAA5846DC
:1047A00000F028F900287FF42BA8DDE92D352FAA89
:1047B000E8E70E9B149A9A180D9B0892002B71DD66
:1047C00067230C93C3E701333D44072BCDE92D3517
:1047D000C2F80090576000F3AF800832E9E4591C3A
:1047E0005846FEF7A9F8064610B10A90FFF738BA06
:1047F000099A938943F0400393814FF0FF33069366
:10480000FEF769BC002934D130228DF89A200DF1D1
:104810009B02303302F8013B26ABD31A1893B5E55F
:10482000059B002B7FF41BAA059B0A93012305938C
:10483000FFF716BA099BB3F90C3000220A9243F035
:104840004003099A9381FEF7DBBF049BDB077FF5EA
:10485000A8ADA2E50893F1E6059B029308937323A4
:104860009DF887200B97059012900F900C93FEF700
:1048700002BD0DF19A02CCE7119B5A4E002B049B0E
:10488000A8BF9DF8872023F08003B8BF2D22049392
:10489000B8BF8DF88720544BFEF7E0BC059B029F04
:1048A0000893CBE4C3F101031A4422EAE2730293B2
:1048B000672308920C93CEE651460029DDF820A02C
:1048C0000D9E4446FFF685AE4B1C3B44302207F854
:1048D000012B9F42FBD17DE667230C9317990B7840
:1048E000FF2B74D000250D9A284603E001300131DA
:1048F000FF2B08D0934206DAD21A4B78002BF5D161
:104900000B780135F4E717910D920F901295129ADA
:104910000F9B1C99CDF810901344089A01FB0323B8
:10492000089323EAE373029349E5149B1A4453184E
:10493000089366230C930AE709992CAA584600F0BD
:1049400059F800287EF45CAFDDE92D352FAA30E45C
:1049500070224DE6C8F1010323939EE50B9A9AF865
:10496000013052F8041B0B9241EAE1718246059135
:10497000FEF7FABA2BB90123662202930C92089330
:1049800069E6149B03F10108059B4344089323EA5D
:10499000E373029366230C935DE6DDE90201134B9A
:1049A0000022FCF797F900283FF413AEE8077FF5E3
:1049B00010AEF3E502231893E8E4099BB3F90C3039
:1049C00043F040033DE70C23CBF8003015E700230C
:1049D00012930F939BE7099B0A90B3F90C3043F0B5
:1049E00040032EE778D7000874D700080000E03FA6
:1049F00014D900082DE9F843154692682C68FAB1DD
:104A000080468946083401E00834CFB16B68591EEE
:104A1000002B1746696013DD54F8046C002EF3D0A8
:104A2000334654F8082C4946404601F00DFE431C1D
:104A300007D0AA68921B1746AA600834002FE5D158
:104A400000200023C5E90133BDE8F88370B50029D3
:104A50003FD006460C4610B1436B002B3CD0636E32
:104A6000B4F90C20DD0732D4900538D52146304604
:104A700000F04CF8E36A054633B1E16930469847E7
:104A80000028B8BF4FF0FF35A3891A0639D4216B2F
:104A900041B104F14003994202D03046FDF750FE87
:104AA00000232363616C21B13046FDF749FE0023EA
:104AB0006364FDF771FC636E0022DB07A2811CD5E5
:104AC000A06DFDF7CBFDFDF76DFC284670BD002AFB
:104AD000CCD10025284670BDFDF740FCBFE7A06D96
:104AE000FDF7BEFDB4F90C30002BBFD1636ED907C2
:104AF000EFD4A06DFDF7B6FDEBE7A06DFDF7B2FDBD
:104B0000DEE721693046FDF71BFEC0E7B1F90C2056
:104B10002DE9F04116070C4680464ED4496842F410
:104B200000630029A38163DDA56A002D42D0002126
:104B300012F48052D8F80060C8F80010E16964D11E
:104B400001234046A847451C02466ED0B4F90C30FC
:104B5000A56AE169580705D56368D21A236B0BB1C2
:104B6000E36BD21A00234046A847431C4FD1D8F824
:104B70000010B4F90C301D2940D8314ACA40D7077B
:104B80003CD52269226023F40062A281DD044FF04B
:104B90000002626001D5002945D0216BC8F8006091
:104BA00041B104F14003994202D04046FDF7C8FDEF
:104BB000002323630020BDE8F0810E69002EF9D0A8
:104BC0000D680E6092070CBF4B690023AD1B8B6014
:104BD0000BE02B463246E169676A4046B847B0F1C0
:104BE000000CA5EB0C05664406DD002DF1DCE1E7C9
:104BF000E16B002998DCDDE7B4F90C3043F04003A9
:104C0000A3814FF0FF30BDE8F081226DA2E7B4F937
:104C10000C302269226023F40062A281DB044FF091
:104C200000026260B9D52065B7E7D8F80030002BE4
:104C30008CD01D2B01D0162BDED1C8F80060B9E74F
:104C40000100402038B50C46054608B1436B03B35C
:104C5000B4F90C0088B1636EDB0701D481050FD570
:104C600028462146FFF752FF636EDA07054602D455
:104C7000A3899B0508D5284638BD0546284638BD7A
:104C8000A06DFDF7EDFCEBE7A06DFDF7EBFC284612
:104C900038BDFDF763FBDBE740EA01039B0710B576
:104CA00001D1032A17D8844601F1FF3E07E01EF820
:104CB000011F03F8011B541E29B19C46224663467E
:104CC000002AF4D110BD9444002CFBD003F8011B42
:104CD0006345FBD110BD8E468446DEF80040A4F14A
:104CE000013323EA040313F0803F71460EF1040EF2
:104CF000DAD1043A032A4CF8044BEED87146D3E7D4
:104D0000014B93F828017047700500200048704758
:104D10006006002038B5074D0022044608462A6088
:104D200004F058F9431C00D038BD2B68002BFBD091
:104D3000236038BD3C09002038B5074D074C2C1BBB
:104D4000A41005D0013C55F8043D9847002CF9D13A
:104D5000BDE8384004F05CB9F8DB0008F4DB00087B
:104D6000082802D14FF48050704708B501F04CFD7F
:104D7000162303604FF0FF3008BD00BF70B555EC3F
:104D8000104B0646134825F0004300218342316052
:104D90001DD8204618431AD00F4828402A4658B933
:104DA0000E4B002220462946FBF72CFD0A4621F037
:104DB000004304466FF035011B156FF31E52A3F23A
:104DC000FE3342F07F550B4445F40015336045EC4B
:104DD000104B70BDFFFFEF7F0000F07F00005043DD
:104DE0002DE9F8431B4D0646286898460F46914624
:104DF000FDF736FC184B1C681CB3286865681F2D2E
:104E000022DC4EB96B1C0235636044F82570FDF757
:104E100029FC0020BDE8F88304EB85010123C1F8DB
:104E20008890D4F88821AB401A43022EC4F8882118
:104E3000C1F80881E6D1D4F88C211A43C4F88C213A
:104E4000E0E7064C1C60D8E7FDF70CFC4FF0FF30A4
:104E5000E0E700BF580100204C0900208409002031
:104E60002DE9F04F03690C69A34283B0C0F28A8038
:104E7000013C01F1140500F1140855F8243058F8EC
:104E8000242001339A428E4681464FEA840105EB85
:104E9000840708EB840AB2FBF3F63AD3CDE9001598
:104EA0000022AC46404613465CF8041B05681FFA16
:104EB00081FB06FB0B22090C4FEA124B06FB01BBE0
:104EC00092B2A9B2891A19441FFA8BF3C3EB21439A
:104ED00003EB154389B241EA0341674540F8041BDF
:104EE0004FEA1B424FEA2343DED2DDE9001558F8B2
:104EF000013073B9AAF1040AD04504D307E0D045C4
:104F000004F1FF3403D25AF80439002BF7D0C9F862
:104F100010407146484601F019FA00282EDB414640
:104F2000002255F8040BD1F800C01FFA80FE1FFACA
:104F30008CF3A3EB0E031344020CC2EB234202EBEF
:104F40001C429BB243EA0243AF4241F8043B4FEAA2
:104F50002242E6D258F8242008EB84036AB9043BC5
:104F6000434504D807E0984504F1FF3403D253F8D1
:104F70000429002AF7D0C9F810400136304603B0A2
:104F8000BDE8F08F002003B0BDE8F08F0000000006
:104F90002DE9F04F9DB0CDE90A320291816B269D3B
:104FA00004908DED060B57EC106B49B1C26B4A6053
:104FB0000123934004468B6000F066FF0023A36347
:104FC000B7F10009B4BF012300232B60764BBCBFAF
:104FD00029F00049CDF81C9033EA090300F0AA80BB
:104FE0009DED067B002251EC170B00238DED007B1D
:104FF000FBF770FE804668B10A9A01231360279B75
:1050000013B1279A694B1360694B059305981DB03E
:10501000BDE8F08F9DED000B04981AAA1BA901F0C2
:1050200073FA5FEA1955824640F09A80DDE91A85E5
:10503000454405F23243202B40F38A83C3F14003F9
:1050400009FA03F905F2124326FA03F349EA0300C9
:10505000FBF75EFB0123013DA1F1F8711293554B63
:105060000022FBF717FA4AA3D3E90023FBF7CAFB98
:1050700049A3D3E90023FBF70FFA064628460F465B
:10508000FBF756FB46A3D3E90023FBF7BBFB024625
:105090000B4630463946FBF7FFF906460F46FBF74D
:1050A00061FE002204460990002330463946FBF792
:1050B0001BFE002840F02283099CA8EB050808F19C
:1050C000FF33162C089300F28A813B4B03EBC40399
:1050D000D3E90023DDE90001FBF706FE002871D0CB
:1050E000631E099300231193089B002BC0F27D815E
:1050F00000230C93099B002B6ADA099B0C9A0D93F1
:10510000D21A0C925A4200230993029B1092092B47
:1051100068D8052B40F32183043B02930025029BB2
:10512000023B032B00F23686DFE813F06E046B04BB
:10513000630447040A9AC9F3130942F20F7359EA48
:10514000060913601CD1279B002B00F043861B4BE4
:1051500005930833279A059813601DB0BDE8F08FBA
:10516000DDE90012C2F31303084643F07F51CDF886
:105170004880A5F2FF35DDF8688041F440116EE704
:10518000279B002B40F0F4830D4B05933EE700BFB7
:1051900061436F63A787D23FB3C8608B288AC63F3D
:1051A000FB799F501344D33F0000F07FADD7000838
:1051B000ACD700080000F83F68D90008F8D700080D
:1051C00004D80008B8F1000F40F3A38411900C90AC
:1051D000DDE908321344089300231093029B0D92DB
:1051E000092B96D90023012502930E954FF0FF3B22
:1051F0000B93049BCDF84CB00021D963049800F0C8
:105200001DFE0590002800F0CE85DDE90432BBF1DB
:105210000E0F9A6300F21881002D00F015810D9990
:10522000002940F34684B34B01F00F0203EBC203A5
:10523000C805D3E900894FEA211540F10884AE4B37
:10524000DDE90001D3E90823FBF706FCCDE91401F1
:1052500005F00F0503277DB1A74EE90708D54046A5
:105260004946D6E90023FBF7CDFA01378046894647
:105270006D1006F10806F0D142464B46DDE91401F7
:10528000FBF7EAFB80468946119B43B19B4B00220A
:1052900040464946FBF728FD002840F00B8538467C
:1052A000FBF746FA42464B46FBF7ACFA944B00221A
:1052B000FBF7F2F8A1F15073CDE914011593BBF19E
:1052C000000F00F0A8800D9BCDE918B34946404679
:1052D000FBF748FD189A874B03EBC20313ED027BE3
:1052E00005468DED167BFBF723FA0B460246494631
:1052F0004046FBF7CFF8059F0E9B30357E1CECB285
:10530000804689463546002B00F06C84DDE9162383
:105310007C490020FBF7A0FBDDE91423FBF7BAF87A
:105320003C7042464B4604460D46FBF7FBFC00280A
:1053300040F0B884CDF850A0CDF858B00027AB4667
:10534000A246189D2AE00137AF4280F2FD846E4BE1
:10535000504659460022FBF755FA6B4B0022824615
:105360008B4640464946FBF74DFA89468046FBF797
:10537000F9FC0446FBF7DCF902460B464046494679
:10538000FBF788F8303406F8014B52465B468046FE
:105390008946FBF7A9FC002840F0D38442464B46DF
:1053A00056490020FBF776F852465B46FBF79CFC1B
:1053B0000028C8D0199BDDF850A0059A374603F1A4
:1053C000010802E0974200F09B843E4617F8013D39
:1053D000392BF7D00133DBB23B7045467DE1012329
:1053E0001193089B002BBFF683AEC8F101030C9309
:1053F000002308937EE63846FBF79AF942464B466F
:10540000FBF700FA3E4B0022FBF746F8A1F1507380
:10541000CDE9140115933D4B002240464946FBF768
:1054200039F8DDE9144522462B4606460F46FBF7C0
:1054300079FC002840F0738430463946224605F155
:105440000043FBF751FC28BB1B9B002BC0F2908054
:105450000D9A0E2A00F38C80264B0D9A03EBC203A3
:1054600093ED007B0B9B002B8DED027B19DABBF1DA
:10547000000F16DC0ED1254B0022DDE90201FBF7FF
:10548000C1F902460B46DDE90001FBF737FC0028B5
:1054900000F045840023059E00931F460B9BDD43CF
:1054A0002DE2059B5D1CDDE90278DDE900013A464D
:1054B0004346FBF7D1FAFBF755FC0646FBF738F9F4
:1054C0003A464346FBF79EF902460B46DDE90001EA
:1054D000FAF7E0FF059A06F13003BBF1010F2F4602
:1054E000137000F021830125CDF800A0A846DDE966
:1054F000029A2BE068D9000840D900080000F03F6C
:1055000000001C400000E03F000024400000144068
:105510004A46534620462946FBF79EFAFBF722FCF3
:105520000646FBF705F94A465346FBF76BF908F1C7
:1055300001080B46024629462046FAF7ABFF06F162
:105540003003D84507F8013B00F0EC82844B002281
:10555000FBF758F90022002304460D46FBF7BAFB7F
:105560000028D5D00D9DDDF800A001353E46B4E001
:105570000E9A002A40F0D8800023109E0C9D0E93B6
:105580001F4665B1089A002A09DD0C99AA42134604
:10559000A8BF2B46C91AED1AD31A0C910893109B79
:1055A00053B10E9B13B1002E40F0F7825146109A72
:1055B000049800F0F9FD82460498012100F010FDE6
:1055C000099B0090002B40F0BE81029B012B40F311
:1055D000D4810120089A104410F01F0000F09B8035
:1055E000C0F12003042B40F3E3810C9BC0F11C00AD
:1055F000034402440C93054408920C9B002B05DDE8
:10560000514604981A4600F029FE8246089B002B5A
:1056100005DD009904981A4600F020FE0090119BC9
:10562000002B40F07581BBF1000F40F34C810E9BC5
:10563000002B40F0A4800D9D0135DDF81480009C06
:10564000DDF81090012607E0514600230A22484663
:1056500000F024FC0136824621465046FFF700FC4C
:10566000B34500F1300008F8010BEDDCBBF1000F91
:10567000059BCCBF5E460126814603EB060B00244A
:1056800051460122049800F0E9FD0099824600F09D
:105690005DFE002840F3EE81059A02E0934500F09C
:1056A00003825E460BF1FF3B16F8013C392BF5D027
:1056B00001338BF80030DDF810800099404600F08F
:1056C000E3FB57B12CB1BC4203D02146404600F069
:1056D000DBFB0498394600F0D7FB0498514600F0F4
:1056E000D3FB002333700A9B1D60279B002B3FF4E4
:1056F0008DAC05981E601DB0BDE8F08F2046FBF70D
:1057000017F832463B46FBF7E5FA00287FF4D4ACA5
:10571000631E0993D0E41C230C9A1A440C92089A35
:105720001A441D44089268E7029A012A40F3AD81A9
:10573000109B0BF1FF36B342C0F26981BBF1000F41
:10574000A3EB060680F2EF820C9BA3EB0B056CE14A
:10575000C3F1200306FA03F07AE40125DFE400BF79
:10576000000024403946002304980A2200F096FBEA
:10577000139B002B074640F3FF820D969B46002D9E
:1057800005DD394604982A4600F068FD0746099B66
:10579000002B40F0E681B846059E731E03EB0B0418
:1057A000069B03F00103CDE90B43049C009950468E
:1057B000FFF756FB39468346504600F0C7FD009977
:1057C00005464246204600F0E3FDC3680BF1300970
:1057D0000146ABBB0990504600F0B8FD099908900E
:1057E000204600F051FB089A002A54D1029B1BB9B5
:1057F0000C9B002B00F0AE82002D3FDB0B9BB346D1
:105800009E420BF8019B00F0C381514600230A22FF
:10581000204600F043FB4745824639464FF00003DF
:105820004FF00A02204630D000F038FB41460746D0
:1058300000230A22204600F031FB5E468046B5E791
:10584000049800F021FB002D06DB069B03F001020B
:10585000029B1D432A4329D151460122049800F09E
:10586000FDFC0099824600F071FD002840F3F680AF
:10587000B9F1390F00F049820BF131090D9D06F89D
:10588000019B3C460135474615E700F007FB5E46A5
:10589000074680468AE7002DC0F29382029B1D4393
:1058A0000C9B1D4300F08D82002AA7DDB9F1390F52
:1058B00000F02B820D9D09F101033C4606F8013BE7
:1058C00001354746F7E6029B022B7FF7B0AEBBF1EE
:1058D000000F40F02581009904985B46052200F0F6
:1058E000DDFA01460090504600F030FD002840F3FC
:1058F0001781059E0D9D312306F8013B0135009966
:10590000049800F0C1FA0135002F7FF4E2AEE4E61E
:105910000099504600F01AFD0028BFF684AE5146AB
:10592000002304980D9C0A2200F0B8FA0E9B661E14
:105930008246002B7FF416AF139B002B40F311829D
:105940000D9D9B4679E601461A46049800F02CFC12
:10595000029B0090012B6EDD00230993009A1369CE
:1059600002EB8303186900F0E9FAC0F1200031E688
:10597000984B05930333FFF7EDBB069B002B7FF499
:1059800028AEDDE90612C2F31303002B7FF421AE2B
:10599000914B134033B10C9B01330C93089B0133A3
:1059A00008930123099A0993002A3FF412AED5E720
:1059B0003FF423AEC0F13C03AEE601230E930B9BF4
:1059C0000D9A134403F1010B5E46012E1393B8BFE9
:1059D0000126172E40F3F981012204235B0003F115
:1059E0001400B042114602F10102F7D9049BD963B9
:1059F00004E401230E930B9E002E36DD1396B3466E
:105A0000E7E700230E93DAE700230E93F3E7109BFA
:105A1000099A1096F31A1A44089B09925B4408935A
:105A20000C9B1D465B440C9300260498012100F05A
:105A3000D7FA0746A5E5069B002B8DD1DDE90601C7
:105A4000C1F313030A46002BA2D0099086E79DED0F
:105A5000007B02278DED147BFFF7FDBB7FF40EAFBB
:105A600019F0010F7FF404AF08E701230B939B4665
:105A7000FFF7BFBB03D119F0010F7FF40DAE5E46F7
:105A80001BF8013D302BFAD015E6129A002A00F0DF
:105A90009C8003F23343089A109E1A4408920C9A91
:105AA00015461A440C92C0E7059A3123013513704C
:105AB00001E600F0FA800D9A484B554205F00F02BE
:105AC00003EBC203D3E90023DDE90001FAF79AFEF4
:105AD0002D11CDE9140100F05881414E0023022719
:105AE00080468946EA0709D5D6E90023404649465B
